{
  "_format": "hh-sol-artifact-1",
  "contractName": "GroupPredict",
  "sourceName": "contracts/GroupPredict.sol",
  "abi": [
    {
      "inputs": [
        {
          "internalType": "contract IGroupNFT",
          "name": "nft",
          "type": "address"
        },
        {
          "internalType": "contract ERC20PresetMinterPauser",
          "name": "token",
          "type": "address"
        },
        {
          "internalType": "uint256",
          "name": "rewardAmt",
          "type": "uint256"
        }
      ],
      "stateMutability": "nonpayable",
      "type": "constructor"
    },
    {
      "anonymous": false,
      "inputs": [
        {
          "indexed": true,
          "internalType": "address",
          "name": "previousOwner",
          "type": "address"
        },
        {
          "indexed": true,
          "internalType": "address",
          "name": "newOwner",
          "type": "address"
        }
      ],
      "name": "OwnershipTransferred",
      "type": "event"
    },
    {
      "anonymous": false,
      "inputs": [
        {
          "indexed": false,
          "internalType": "address",
          "name": "account",
          "type": "address"
        }
      ],
      "name": "Paused",
      "type": "event"
    },
    {
      "anonymous": false,
      "inputs": [
        {
          "indexed": false,
          "internalType": "address",
          "name": "account",
          "type": "address"
        }
      ],
      "name": "Unpaused",
      "type": "event"
    },
    {
      "inputs": [],
      "name": "GroupNFT",
      "outputs": [
        {
          "internalType": "contract IGroupNFT",
          "name": "",
          "type": "address"
        }
      ],
      "stateMutability": "view",
      "type": "function"
    },
    {
      "inputs": [],
      "name": "NFTBToken",
      "outputs": [
        {
          "internalType": "contract ERC20PresetMinterPauser",
          "name": "",
          "type": "address"
        }
      ],
      "stateMutability": "view",
      "type": "function"
    },
    {
      "inputs": [],
      "name": "TEAM_COUNT",
      "outputs": [
        {
          "internalType": "uint8",
          "name": "",
          "type": "uint8"
        }
      ],
      "stateMutability": "view",
      "type": "function"
    },
    {
      "inputs": [
        {
          "internalType": "uint8",
          "name": "",
          "type": "uint8"
        }
      ],
      "name": "_gameDrawPredictCount",
      "outputs": [
        {
          "internalType": "uint256",
          "name": "",
          "type": "uint256"
        }
      ],
      "stateMutability": "view",
      "type": "function"
    },
    {
      "inputs": [
        {
          "internalType": "uint8",
          "name": "",
          "type": "uint8"
        }
      ],
      "name": "_gameLosePredictCount",
      "outputs": [
        {
          "internalType": "uint256",
          "name": "",
          "type": "uint256"
        }
      ],
      "stateMutability": "view",
      "type": "function"
    },
    {
      "inputs": [
        {
          "internalType": "uint8",
          "name": "",
          "type": "uint8"
        }
      ],
      "name": "_gameWinPredictCount",
      "outputs": [
        {
          "internalType": "uint256",
          "name": "",
          "type": "uint256"
        }
      ],
      "stateMutability": "view",
      "type": "function"
    },
    {
      "inputs": [
        {
          "internalType": "uint8",
          "name": "",
          "type": "uint8"
        }
      ],
      "name": "_games",
      "outputs": [
        {
          "internalType": "uint8",
          "name": "homeTeam",
          "type": "uint8"
        },
        {
          "internalType": "uint8",
          "name": "awayTeam",
          "type": "uint8"
        },
        {
          "internalType": "uint256",
          "name": "deadline",
          "type": "uint256"
        },
        {
          "internalType": "uint8",
          "name": "homeScore",
          "type": "uint8"
        },
        {
          "internalType": "uint8",
          "name": "awayScore",
          "type": "uint8"
        },
        {
          "internalType": "enum GroupPredict.GameResult",
          "name": "result",
          "type": "uint8"
        }
      ],
      "stateMutability": "view",
      "type": "function"
    },
    {
      "inputs": [],
      "name": "_predictId",
      "outputs": [
        {
          "internalType": "uint256",
          "name": "",
          "type": "uint256"
        }
      ],
      "stateMutability": "view",
      "type": "function"
    },
    {
      "inputs": [
        {
          "internalType": "uint256",
          "name": "",
          "type": "uint256"
        }
      ],
      "name": "_predictInfos",
      "outputs": [
        {
          "internalType": "uint8",
          "name": "gameId",
          "type": "uint8"
        },
        {
          "internalType": "uint256",
          "name": "time",
          "type": "uint256"
        },
        {
          "internalType": "enum GroupPredict.GameResult",
          "name": "result",
          "type": "uint8"
        },
        {
          "internalType": "uint256",
          "name": "count",
          "type": "uint256"
        },
        {
          "internalType": "address",
          "name": "userAddr",
          "type": "address"
        },
        {
          "internalType": "bool",
          "name": "isClaimed",
          "type": "bool"
        }
      ],
      "stateMutability": "view",
      "type": "function"
    },
    {
      "inputs": [
        {
          "internalType": "uint256",
          "name": "",
          "type": "uint256"
        }
      ],
      "name": "_tokenPredictInfos",
      "outputs": [
        {
          "internalType": "uint256",
          "name": "",
          "type": "uint256"
        }
      ],
      "stateMutability": "view",
      "type": "function"
    },
    {
      "inputs": [
        {
          "internalType": "address",
          "name": "",
          "type": "address"
        },
        {
          "internalType": "uint256",
          "name": "",
          "type": "uint256"
        }
      ],
      "name": "_userPredicts",
      "outputs": [
        {
          "internalType": "uint256",
          "name": "",
          "type": "uint256"
        }
      ],
      "stateMutability": "view",
      "type": "function"
    },
    {
      "inputs": [
        {
          "internalType": "uint256",
          "name": "predictId",
          "type": "uint256"
        }
      ],
      "name": "claim",
      "outputs": [],
      "stateMutability": "nonpayable",
      "type": "function"
    },
    {
      "inputs": [
        {
          "internalType": "uint8[]",
          "name": "gameIds",
          "type": "uint8[]"
        }
      ],
      "name": "getGameByIds",
      "outputs": [
        {
          "components": [
            {
              "internalType": "uint8",
              "name": "homeTeam",
              "type": "uint8"
            },
            {
              "internalType": "uint8",
              "name": "awayTeam",
              "type": "uint8"
            },
            {
              "internalType": "uint256",
              "name": "deadline",
              "type": "uint256"
            },
            {
              "internalType": "uint8",
              "name": "homeScore",
              "type": "uint8"
            },
            {
              "internalType": "uint8",
              "name": "awayScore",
              "type": "uint8"
            },
            {
              "internalType": "enum GroupPredict.GameResult",
              "name": "result",
              "type": "uint8"
            }
          ],
          "internalType": "struct GroupPredict.Game[]",
          "name": "",
          "type": "tuple[]"
        }
      ],
      "stateMutability": "view",
      "type": "function"
    },
    {
      "inputs": [
        {
          "internalType": "address",
          "name": "userAddr",
          "type": "address"
        },
        {
          "internalType": "uint256",
          "name": "pageNum",
          "type": "uint256"
        },
        {
          "internalType": "uint256",
          "name": "pageSize",
          "type": "uint256"
        }
      ],
      "name": "getPredictsByUser",
      "outputs": [
        {
          "internalType": "uint256",
          "name": "",
          "type": "uint256"
        },
        {
          "components": [
            {
              "internalType": "uint256",
              "name": "id",
              "type": "uint256"
            },
            {
              "internalType": "uint256",
              "name": "time",
              "type": "uint256"
            },
            {
              "internalType": "uint8",
              "name": "homeTeamId",
              "type": "uint8"
            },
            {
              "internalType": "uint8",
              "name": "awayTeamId",
              "type": "uint8"
            },
            {
              "internalType": "uint8",
              "name": "homeScore",
              "type": "uint8"
            },
            {
              "internalType": "uint8",
              "name": "awayScore",
              "type": "uint8"
            },
            {
              "internalType": "enum GroupPredict.GameResult",
              "name": "result",
              "type": "uint8"
            },
            {
              "internalType": "uint256",
              "name": "count",
              "type": "uint256"
            },
            {
              "internalType": "uint256",
              "name": "reward",
              "type": "uint256"
            },
            {
              "internalType": "bool",
              "name": "isClaimed",
              "type": "bool"
            }
          ],
          "internalType": "struct GroupPredict.PredictResult[]",
          "name": "",
          "type": "tuple[]"
        }
      ],
      "stateMutability": "view",
      "type": "function"
    },
    {
      "inputs": [],
      "name": "getRewardAmount",
      "outputs": [
        {
          "internalType": "uint256",
          "name": "",
          "type": "uint256"
        }
      ],
      "stateMutability": "view",
      "type": "function"
    },
    {
      "inputs": [
        {
          "internalType": "uint8",
          "name": "gameId",
          "type": "uint8"
        }
      ],
      "name": "getTotalPredictCountByGame",
      "outputs": [
        {
          "internalType": "uint256",
          "name": "",
          "type": "uint256"
        }
      ],
      "stateMutability": "view",
      "type": "function"
    },
    {
      "inputs": [
        {
          "internalType": "address",
          "name": "userAddr",
          "type": "address"
        },
        {
          "internalType": "uint8",
          "name": "gameId",
          "type": "uint8"
        }
      ],
      "name": "getUserNFTByGameAndNotPredicted",
      "outputs": [
        {
          "internalType": "uint256[]",
          "name": "",
          "type": "uint256[]"
        }
      ],
      "stateMutability": "view",
      "type": "function"
    },
    {
      "inputs": [
        {
          "internalType": "address",
          "name": "userAddr",
          "type": "address"
        },
        {
          "internalType": "uint8",
          "name": "team",
          "type": "uint8"
        }
      ],
      "name": "getUserNFTByTeamAndNotPredicted",
      "outputs": [
        {
          "internalType": "uint256[]",
          "name": "",
          "type": "uint256[]"
        }
      ],
      "stateMutability": "view",
      "type": "function"
    },
    {
      "inputs": [],
      "name": "owner",
      "outputs": [
        {
          "internalType": "address",
          "name": "",
          "type": "address"
        }
      ],
      "stateMutability": "view",
      "type": "function"
    },
    {
      "inputs": [],
      "name": "paused",
      "outputs": [
        {
          "internalType": "bool",
          "name": "",
          "type": "bool"
        }
      ],
      "stateMutability": "view",
      "type": "function"
    },
    {
      "inputs": [
        {
          "internalType": "uint8",
          "name": "gameId",
          "type": "uint8"
        },
        {
          "internalType": "uint256[]",
          "name": "tokenIds",
          "type": "uint256[]"
        },
        {
          "internalType": "enum GroupPredict.GameResult",
          "name": "result",
          "type": "uint8"
        }
      ],
      "name": "predict",
      "outputs": [],
      "stateMutability": "nonpayable",
      "type": "function"
    },
    {
      "inputs": [],
      "name": "renounceOwnership",
      "outputs": [],
      "stateMutability": "nonpayable",
      "type": "function"
    },
    {
      "inputs": [
        {
          "internalType": "uint8[]",
          "name": "ids",
          "type": "uint8[]"
        },
        {
          "internalType": "uint8[]",
          "name": "homeTeams",
          "type": "uint8[]"
        },
        {
          "internalType": "uint8[]",
          "name": "awayTeams",
          "type": "uint8[]"
        },
        {
          "internalType": "uint256[]",
          "name": "deadlines",
          "type": "uint256[]"
        }
      ],
      "name": "setGames",
      "outputs": [],
      "stateMutability": "nonpayable",
      "type": "function"
    },
    {
      "inputs": [
        {
          "internalType": "uint8[]",
          "name": "ids",
          "type": "uint8[]"
        },
        {
          "internalType": "uint8[]",
          "name": "homeScores",
          "type": "uint8[]"
        },
        {
          "internalType": "uint8[]",
          "name": "awayScores",
          "type": "uint8[]"
        },
        {
          "internalType": "enum GroupPredict.GameResult[]",
          "name": "results",
          "type": "uint8[]"
        }
      ],
      "name": "setResults",
      "outputs": [],
      "stateMutability": "nonpayable",
      "type": "function"
    },
    {
      "inputs": [
        {
          "internalType": "address",
          "name": "newOwner",
          "type": "address"
        }
      ],
      "name": "transferOwnership",
      "outputs": [],
      "stateMutability": "nonpayable",
      "type": "function"
    }
  ],
  "bytecode": "0x60806040523480156200001157600080fd5b5060405162002b1a38038062002b1a8339810160408190526200003491620000ee565b6200003f3362000085565b60018055600280546001600160a81b0319166101006001600160a01b0395861602179055600380546001600160a01b031916929093169190911790915560045562000136565b600080546001600160a01b038381166001600160a01b0319831681178455604051919092169283917f8be0079c531659141344cd1fd0a4f28419497f9722a3daafe3b4186f6b6457e09190a35050565b6001600160a01b0381168114620000eb57600080fd5b50565b6000806000606084860312156200010457600080fd5b83516200011181620000d5565b60208501519093506200012481620000d5565b80925050604084015190509250925092565b6129d480620001466000396000f3fe608060405234801561001057600080fd5b50600436106101725760003560e01c80636de5e2e0116100de578063c258038a11610097578063e7a2bba011610071578063e7a2bba014610406578063ef343f5014610419578063f2fde38b14610439578063fe59165c1461044c57600080fd5b8063c258038a146103b2578063cf9d0352146103d2578063e3fac264146103f357600080fd5b80636de5e2e0146103525780636e6fd35614610365578063715018a61461036e57806379b00b6e1461037657806381b8a9d81461038e5780638da5cb5b146103a157600080fd5b8063263df1d111610130578063263df1d1146102325780633096dfc91461024c57806333ec38601461025f578063379607f5146102c15780634464b186146102d45780635c975abb1461033c57600080fd5b8062276a50146101775780630332086e146101a7578063087a622f146101d557806309a69f57146101f55780631f23ab6b146101fd57806323bbcd431461021d575b600080fd5b60035461018a906001600160a01b031681565b6040516001600160a01b0390911681526020015b60405180910390f35b6101c76101b53660046121b3565b60066020526000908152604090205481565b60405190815260200161019e565b6101e86101e33660046122a7565b61046c565b60405161019e919061231c565b6004546101c7565b61021061020b3660046123c1565b6105e5565b60405161019e91906123f6565b61023061022b3660046124a4565b610922565b005b61023a602081565b60405160ff909116815260200161019e565b61021061025a3660046123c1565b611053565b6102af61026d3660046121b3565b60056020526000908152604090208054600182015460029092015460ff8083169361010093849004821693909280831692918104821691620100009091041686565b60405161019e96959493929190612502565b6102306102cf366004612543565b6112f9565b61032a6102e2366004612543565b600b6020526000908152604090208054600182015460028301546003840154600485015460069095015460ff9485169593949283169391926001600160a01b03909216911686565b60405161019e9695949392919061255c565b60025460ff16604051901515815260200161019e565b6101c76103603660046125a2565b6116f9565b6101c760095481565b61023061172a565b60025461018a9061010090046001600160a01b031681565b6101c761039c3660046121b3565b61173e565b6000546001600160a01b031661018a565b6101c76103c03660046121b3565b60076020526000908152604090205481565b6103e56103e03660046125ce565b61177a565b60405161019e929190612603565b6102306104013660046126c7565b611b4b565b6102306104143660046127ce565b611d6b565b6101c76104273660046121b3565b60086020526000908152604090205481565b61023061044736600461287b565b611f7f565b6101c761045a366004612543565b600a6020526000908152604090205481565b60606000825167ffffffffffffffff81111561048a5761048a6121d5565b6040519080825280602002602001820160405280156104f157816020015b6104de6040805160c08101825260008082526020820181905291810182905260608101829052608081018290529060a082015290565b8152602001906001900390816104a85790505b50905060005b83518110156105de576005600085838151811061051657610516612898565b60209081029190910181015160ff9081168352828201939093526040918201600020825160c08101845281548086168252610100908190048616938201939093526001820154938101939093526002810154808516606085015291820484166080840152919260a0840191620100009004166003811115610599576105996122e4565b60038111156105aa576105aa6122e4565b815250508282815181106105c0576105c0612898565b602002602001018190525080806105d6906128c4565b9150506104f7565b5092915050565b60ff81166000908152600560205260409020600101546060906106405760405162461bcd60e51b815260206004820152600e60248201526d19d85b59481b9bdd08195e1a5cdd60921b60448201526064015b60405180910390fd5b6002546040516370a0823160e01b81526001600160a01b038581166004830152600092610100900416906370a0823190602401602060405180830381865afa158015610690573d6000803e3d6000fd5b505050506040513d601f19601f820116820180604052508101906106b491906128dd565b90506000808267ffffffffffffffff8111156106d2576106d26121d5565b6040519080825280602002602001820160405280156106fb578160200160208202803683370190505b50905060005b8381101561083a57600254604051632f745c5960e01b81526001600160a01b0389811660048301526024820184905260009261010090041690632f745c5990604401602060405180830381865afa158015610760573d6000803e3d6000fd5b505050506040513d601f19601f8201168201806040525081019061078491906128dd565b60ff8089166000908152600560209081526040909120549293509116906107ab90836128f6565b14806107de575060ff8088166000908152600560209081526040909120546101009004909116906107dc90836128f6565b145b80156107f657506000818152600a6020526040902054155b15610827578083858151811061080e5761080e612898565b602090810291909101015283610823816128c4565b9450505b5080610832816128c4565b915050610701565b508160000361087a5760005b60405190808252806020026020018201604052801561086f578160200160208202803683370190505b50935050505061091c565b60008267ffffffffffffffff811115610895576108956121d5565b6040519080825280602002602001820160405280156108be578160200160208202803683370190505b50905060005b83811015610915578281815181106108de576108de612898565b60200260200101518282815181106108f8576108f8612898565b60209081029190910101528061090d816128c4565b9150506108c4565b5093505050505b92915050565b6002600154036109745760405162461bcd60e51b815260206004820152601f60248201527f5265656e7472616e637947756172643a207265656e7472616e742063616c6c006044820152606401610637565b6002600155610981611ff8565b3332146109c45760405162461bcd60e51b815260206004820152601160248201527053656e646572206973206e6f7420454f4160781b6044820152606401610637565b60008160038111156109d8576109d86122e4565b03610a165760405162461bcd60e51b815260206004820152600e60248201526d1a5b9d985b1a59081c995cdd5b1d60921b6044820152606401610637565b60ff831660009081526005602052604090206001015415801590610a4f575060ff83166000908152600560205260409020600101544211155b610ab35760405162461bcd60e51b815260206004820152602f60248201527f67616d65206e6f7420657869737473206f722067616d6520616c72656164792060448201526e73746f702070726564696374696e6760881b6064820152608401610637565b60098054906000610ac3836128c4565b909155505081516040805160e08101825260ff86168152426020820152908101836003811115610af557610af56122e4565b8152602081018390523360408201526060016000604051908082528060200260200182016040528015610b32578160200160208202803683370190505b508152600060209182018190526009548152600b82526040908190208351815460ff90911660ff19918216178255928401516001828101919091559184015160028201805492949193909290911690836003811115610b9357610b936122e4565b02179055506060820151600382015560808201516004820180546001600160a01b0319166001600160a01b0390921691909117905560a08201518051610be39160058401916020909101906120e8565b5060c091909101516006909101805460ff191691151591909117905560005b81811015610f36576002548451339161010090046001600160a01b031690636352211e90879085908110610c3857610c38612898565b60200260200101516040518263ffffffff1660e01b8152600401610c5e91815260200190565b602060405180830381865afa158015610c7b573d6000803e3d6000fd5b505050506040513d601f19601f82011682018060405250810190610c9f9190612918565b6001600160a01b031614610cf55760405162461bcd60e51b815260206004820152601c60248201527f6d73672e73656e646572206e6f74206f776e2074686520746f6b656e000000006044820152606401610637565b600a6000858381518110610d0b57610d0b612898565b6020026020010151815260200190815260200160002054600014610d715760405162461bcd60e51b815260206004820152601a60248201527f746f6b656e20616c7265616479206265207072656469637465640000000000006044820152606401610637565b6000602060ff16858381518110610d8a57610d8a612898565b6020026020010151610d9c91906128f6565b60ff80881660009081526005602052604090205491925080831691161480610ddf575060ff86811660009081526005602052604090205461010090048116908216145b610e215760405162461bcd60e51b8152602060048201526013602482015272746f6b656e206e6f742067616d65207465616d60681b6044820152606401610637565b600954600a6000878581518110610e3a57610e3a612898565b6020026020010151815260200190815260200160002081905550600b60006009548152602001908152602001600020600501858381518110610e7e57610e7e612898565b6020908102919091018101518254600181018455600093845291909220015560025485516101009091046001600160a01b03169063dd46706490879085908110610eca57610eca612898565b60200260200101516040518263ffffffff1660e01b8152600401610ef091815260200190565b600060405180830381600087803b158015610f0a57600080fd5b505af1158015610f1e573d6000803e3d6000fd5b50505050508080610f2e906128c4565b915050610c02565b50336000908152600c6020908152604082206009548154600181810184559285529290932090910191909155826003811115610f7457610f746122e4565b03610faf5760ff8416600090815260066020526040902054610f97908290612935565b60ff8516600090815260066020526040902055611049565b6002826003811115610fc357610fc36122e4565b03610ffe5760ff8416600090815260076020526040902054610fe6908290612935565b60ff8516600090815260076020526040902055611049565b6003826003811115611012576110126122e4565b036110495760ff8416600090815260086020526040902054611035908290612935565b60ff85166000908152600860205260409020555b5050600180555050565b6060602060ff83161061109c5760405162461bcd60e51b815260206004820152601160248201527034b73b30b634b2103830b930b6b2ba32b960791b6044820152606401610637565b6002546040516370a0823160e01b81526001600160a01b038581166004830152600092610100900416906370a0823190602401602060405180830381865afa1580156110ec573d6000803e3d6000fd5b505050506040513d601f19601f8201168201806040525081019061111091906128dd565b90506000808267ffffffffffffffff81111561112e5761112e6121d5565b604051908082528060200260200182016040528015611157578160200160208202803683370190505b50905060005b8381101561124e57600254604051632f745c5960e01b81526001600160a01b0389811660048301526024820184905260009261010090041690632f745c5990604401602060405180830381865afa1580156111bc573d6000803e3d6000fd5b505050506040513d601f19601f820116820180604052508101906111e091906128dd565b905060ff87166111f16020836128f6565b14801561120a57506000818152600a6020526040902054155b1561123b578083858151811061122257611222612898565b602090810291909101015283611237816128c4565b9450505b5080611246816128c4565b91505061115d565b508160000361125e576000610846565b60008267ffffffffffffffff811115611279576112796121d5565b6040519080825280602002602001820160405280156112a2578160200160208202803683370190505b50905060005b83811015610915578281815181106112c2576112c2612898565b60200260200101518282815181106112dc576112dc612898565b6020908102919091010152806112f1816128c4565b9150506112a8565b60026001540361134b5760405162461bcd60e51b815260206004820152601f60248201527f5265656e7472616e637947756172643a207265656e7472616e742063616c6c006044820152606401610637565b6002600155611358611ff8565b33321461139b5760405162461bcd60e51b815260206004820152601160248201527053656e646572206973206e6f7420454f4160781b6044820152606401610637565b6000818152600b602052604081206002015460ff1660038111156113c1576113c16122e4565b036114025760405162461bcd60e51b81526020600482015260116024820152701c1c99591a58dd081b9bdd08195e1a5cdd607a1b6044820152606401610637565b6000818152600b602052604090206006015460ff16156114565760405162461bcd60e51b815260206004820152600f60248201526e185b1c9958591e4818db185a5b5959608a1b6044820152606401610637565b6000818152600b60205260409020600401546001600160a01b031633146114bf5760405162461bcd60e51b815260206004820152601c60248201527f70726564696374206973206e6f74206f776e65642062792075736572000000006044820152606401610637565b6000818152600b602090815260408083205460ff90811684526005909252909120600201546201000090041660038111156114fc576114fc6122e4565b6000828152600b602052604090206002015460ff166003811115611522576115226122e4565b036115bd57600380546000838152600b60205260409020909101546004546001600160a01b03909216916340c10f1991339161155e9190612948565b6040516001600160e01b031960e085901b1681526001600160a01b0390921660048301526024820152604401600060405180830381600087803b1580156115a457600080fd5b505af11580156115b8573d6000803e3d6000fd5b505050505b6000818152600b60205260408120600601805460ff191660011790555b6000828152600b60205260409020600501548110156116f1576000828152600b602052604081206005018054600a9183918590811061161b5761161b612898565b9060005260206000200154815260200190815260200160002081905550600260019054906101000a90046001600160a01b03166001600160a01b0316636198e339600b6000858152602001908152602001600020600501838154811061168357611683612898565b90600052602060002001546040518263ffffffff1660e01b81526004016116ac91815260200190565b600060405180830381600087803b1580156116c657600080fd5b505af11580156116da573d6000803e3d6000fd5b5050505080806116e9906128c4565b9150506115da565b505060018055565b600c602052816000526040600020818154811061171557600080fd5b90600052602060002001600091509150505481565b61173261203e565b61173c6000612098565b565b60ff81166000908152600860209081526040808320546007835281842054600690935290832054909161177091612935565b61091c9190612935565b6001600160a01b0383166000908152600c602052604081205460609082846117a360018861295f565b6117ad9190612948565b905060006117bb8688612948565b905082821115611804576040805160008082526020820190925284916117f7565b6117e4612133565b8152602001906001900390816117dc5790505b5094509450505050611b43565b8281111561180f5750815b600061181b838361295f565b67ffffffffffffffff811115611833576118336121d5565b60405190808252806020026020018201604052801561186c57816020015b611859612133565b8152602001906001900390816118515790505b509050825b82811015611b39576001600160a01b038a166000908152600c602052604081208054600b918391859081106118a8576118a8612898565b600091825260208083209091015483528281019390935260409182019020815160e081018352815460ff9081168252600183015494820194909452600282015490939192840191166003811115611901576119016122e4565b6003811115611912576119126122e4565b8152602001600382015481526020016004820160009054906101000a90046001600160a01b03166001600160a01b03166001600160a01b031681526020016005820180548060200260200160405190810160405280929190818152602001828054801561199e57602002820191906000526020600020905b81548152602001906001019080831161198a575b50505091835250506006919091015460ff16151560209091015290506119c2612133565b6001600160a01b038c166000908152600c602052604090208054849081106119ec576119ec612898565b600091825260208083209091015483528381015183820152835160ff908116835260058083526040808520548316818701528651831685528184528085205461010090819004841660608801528751841686528285528186206002908101548516608089015288518516875283865282872081015491909104841660a08801528751841686529190935291909220015460c083019162010000909104166003811115611a9a57611a9a6122e4565b90816003811115611aad57611aad6122e4565b905250606082015160e082015260008160c001516003811115611ad257611ad26122e4565b14611af0578160600151600454611ae99190612948565b6101008201525b60c082015115156101208201528084611b09888661295f565b81518110611b1957611b19612898565b602002602001018190525050508080611b31906128c4565b915050611871565b5092945091925050505b935093915050565b611b5361203e565b80518451148015611b65575082518451145b8015611b72575081518451145b611b8e5760405162461bcd60e51b815260040161063790612972565b60005b8451811015611d6457600060056000878481518110611bb257611bb2612898565b602002602001015160ff1660ff1681526020019081526020016000206001015411611c115760405162461bcd60e51b815260206004820152600f60248201526e67616d65206e6f742065786973747360881b6044820152606401610637565b828181518110611c2357611c23612898565b602002602001015160056000878481518110611c4157611c41612898565b602002602001015160ff1660ff16815260200190815260200160002060020160016101000a81548160ff021916908360ff160217905550838181518110611c8a57611c8a612898565b602002602001015160056000878481518110611ca857611ca8612898565b602002602001015160ff1660ff16815260200190815260200160002060020160006101000a81548160ff021916908360ff160217905550818181518110611cf157611cf1612898565b602002602001015160056000878481518110611d0f57611d0f612898565b60209081029190910181015160ff168252810191909152604001600020600201805462ff0000191662010000836003811115611d4d57611d4d6122e4565b021790555080611d5c816128c4565b915050611b91565b5050505050565b611d7361203e565b82518451148015611d85575081518451145b8015611d92575080518451145b611dae5760405162461bcd60e51b815260040161063790612972565b60005b8451811015611d6457602060ff16848281518110611dd157611dd1612898565b602002602001015160ff16108015611e085750602060ff16838281518110611dfb57611dfb612898565b602002602001015160ff16105b611e245760405162461bcd60e51b815260040161063790612972565b6040518060c00160405280858381518110611e4157611e41612898565b602002602001015160ff168152602001848381518110611e6357611e63612898565b602002602001015160ff168152602001838381518110611e8557611e85612898565b60200260200101518152602001600060ff168152602001600060ff16815260200160006003811115611eb957611eb96122e4565b81525060056000878481518110611ed257611ed2612898565b60209081029190910181015160ff9081168352828201939093526040918201600020845181549286015190851661ffff199384161761010091861682021782559285015160018201556060850151600282018054608088015192871694169390931794169092029290921780835560a084015191929062ff0000191662010000836003811115611f6457611f646122e4565b02179055509050508080611f77906128c4565b915050611db1565b611f8761203e565b6001600160a01b038116611fec5760405162461bcd60e51b815260206004820152602660248201527f4f776e61626c653a206e6577206f776e657220697320746865207a65726f206160448201526564647265737360d01b6064820152608401610637565b611ff581612098565b50565b60025460ff161561173c5760405162461bcd60e51b815260206004820152601060248201526f14185d5cd8589b194e881c185d5cd95960821b6044820152606401610637565b6000546001600160a01b0316331461173c5760405162461bcd60e51b815260206004820181905260248201527f4f776e61626c653a2063616c6c6572206973206e6f7420746865206f776e65726044820152606401610637565b600080546001600160a01b038381166001600160a01b0319831681178455604051919092169283917f8be0079c531659141344cd1fd0a4f28419497f9722a3daafe3b4186f6b6457e09190a35050565b828054828255906000526020600020908101928215612123579160200282015b82811115612123578251825591602001919060010190612108565b5061212f929150612188565b5090565b6040805161014081018252600080825260208201819052918101829052606081018290526080810182905260a081018290529060c0820190815260200160008152602001600081526020016000151581525090565b5b8082111561212f5760008155600101612189565b803560ff811681146121ae57600080fd5b919050565b6000602082840312156121c557600080fd5b6121ce8261219d565b9392505050565b634e487b7160e01b600052604160045260246000fd5b604051601f8201601f1916810167ffffffffffffffff81118282101715612214576122146121d5565b604052919050565b600067ffffffffffffffff821115612236576122366121d5565b5060051b60200190565b600082601f83011261225157600080fd5b813560206122666122618361221c565b6121eb565b82815260059290921b8401810191818101908684111561228557600080fd5b8286015b848110156109155761229a8161219d565b8352918301918301612289565b6000602082840312156122b957600080fd5b813567ffffffffffffffff8111156122d057600080fd5b6122dc84828501612240565b949350505050565b634e487b7160e01b600052602160045260246000fd5b6004811061231857634e487b7160e01b600052602160045260246000fd5b9052565b602080825282518282018190526000919060409081850190868401855b8281101561239f578151805160ff90811686528782015181168887015286820151878701526060808301518216908701526080808301519091169086015260a0908101519061238a818701836122fa565b505060c0939093019290850190600101612339565b5091979650505050505050565b6001600160a01b0381168114611ff557600080fd5b600080604083850312156123d457600080fd5b82356123df816123ac565b91506123ed6020840161219d565b90509250929050565b6020808252825182820181905260009190848201906040850190845b8181101561242e57835183529284019291840191600101612412565b50909695505050505050565b600082601f83011261244b57600080fd5b8135602061245b6122618361221c565b82815260059290921b8401810191818101908684111561247a57600080fd5b8286015b84811015610915578035835291830191830161247e565b8035600481106121ae57600080fd5b6000806000606084860312156124b957600080fd5b6124c28461219d565b9250602084013567ffffffffffffffff8111156124de57600080fd5b6124ea8682870161243a565b9250506124f960408501612495565b90509250925092565b60ff878116825286811660208301526040820186905284811660608301528316608082015260c0810161253860a08301846122fa565b979650505050505050565b60006020828403121561255557600080fd5b5035919050565b60ff871681526020810186905260c0810161257a60408301876122fa565b60608201949094526001600160a01b03929092166080830152151560a0909101529392505050565b600080604083850312156125b557600080fd5b82356125c0816123ac565b946020939093013593505050565b6000806000606084860312156125e357600080fd5b83356125ee816123ac565b95602085013595506040909401359392505050565b600060408083018584526020828186015281865180845260609350838701915082880160005b828110156126b85781518051855285810151868601528781015160ff908116898701528782015181168887015260808083015182169087015260a0808301519091169086015260c080820151612681828801826122fa565b505060e081810151908601526101008082015190860152610120908101511515908501526101409093019290840190600101612629565b50919998505050505050505050565b600080600080608085870312156126dd57600080fd5b843567ffffffffffffffff808211156126f557600080fd5b61270188838901612240565b955060209150818701358181111561271857600080fd5b61272489828a01612240565b95505060408701358181111561273957600080fd5b61274589828a01612240565b94505060608701358181111561275a57600080fd5b87019050601f8101881361276d57600080fd5b803561277b6122618261221c565b81815260059190911b8201830190838101908a83111561279a57600080fd5b928401925b828410156127bf576127b084612495565b8252928401929084019061279f565b979a9699509497505050505050565b600080600080608085870312156127e457600080fd5b843567ffffffffffffffff808211156127fc57600080fd5b61280888838901612240565b9550602087013591508082111561281e57600080fd5b61282a88838901612240565b9450604087013591508082111561284057600080fd5b61284c88838901612240565b9350606087013591508082111561286257600080fd5b5061286f8782880161243a565b91505092959194509250565b60006020828403121561288d57600080fd5b81356121ce816123ac565b634e487b7160e01b600052603260045260246000fd5b634e487b7160e01b600052601160045260246000fd5b6000600182016128d6576128d66128ae565b5060010190565b6000602082840312156128ef57600080fd5b5051919050565b60008261291357634e487b7160e01b600052601260045260246000fd5b500690565b60006020828403121561292a57600080fd5b81516121ce816123ac565b8082018082111561091c5761091c6128ae565b808202811582820484141761091c5761091c6128ae565b8181038181111561091c5761091c6128ae565b602080825260129082015271696e76616c696420706172616d657465727360701b60408201526060019056fea2646970667358221220c394e66b9af80196003519b0c4b1932a4be553e3f7c82abec0e69032e513826464736f6c63430008110033",
  "linkReferences": {},
  "deployedLinkReferences": {}
}