{
  "_format": "hh-sol-artifact-1",
  "contractName": "GroupPredict",
  "sourceName": "contracts/GroupPredict.sol",
  "abi": [
    {
      "inputs": [
        {
          "internalType": "contract IGroupNFT",
          "name": "nft",
          "type": "address"
        },
        {
          "internalType": "contract ERC20PresetMinterPauser",
          "name": "token",
          "type": "address"
        },
        {
          "internalType": "uint256",
          "name": "rewardAmt",
          "type": "uint256"
        }
      ],
      "stateMutability": "nonpayable",
      "type": "constructor"
    },
    {
      "anonymous": false,
      "inputs": [
        {
          "indexed": true,
          "internalType": "address",
          "name": "previousOwner",
          "type": "address"
        },
        {
          "indexed": true,
          "internalType": "address",
          "name": "newOwner",
          "type": "address"
        }
      ],
      "name": "OwnershipTransferred",
      "type": "event"
    },
    {
      "anonymous": false,
      "inputs": [
        {
          "indexed": false,
          "internalType": "address",
          "name": "account",
          "type": "address"
        }
      ],
      "name": "Paused",
      "type": "event"
    },
    {
      "anonymous": false,
      "inputs": [
        {
          "indexed": false,
          "internalType": "address",
          "name": "account",
          "type": "address"
        }
      ],
      "name": "Unpaused",
      "type": "event"
    },
    {
      "inputs": [],
      "name": "GroupNFT",
      "outputs": [
        {
          "internalType": "contract IGroupNFT",
          "name": "",
          "type": "address"
        }
      ],
      "stateMutability": "view",
      "type": "function"
    },
    {
      "inputs": [],
      "name": "NFTBToken",
      "outputs": [
        {
          "internalType": "contract ERC20PresetMinterPauser",
          "name": "",
          "type": "address"
        }
      ],
      "stateMutability": "view",
      "type": "function"
    },
    {
      "inputs": [],
      "name": "TEAM_COUNT",
      "outputs": [
        {
          "internalType": "uint8",
          "name": "",
          "type": "uint8"
        }
      ],
      "stateMutability": "view",
      "type": "function"
    },
    {
      "inputs": [
        {
          "internalType": "uint8",
          "name": "",
          "type": "uint8"
        }
      ],
      "name": "_gameDrawPredictCount",
      "outputs": [
        {
          "internalType": "uint256",
          "name": "",
          "type": "uint256"
        }
      ],
      "stateMutability": "view",
      "type": "function"
    },
    {
      "inputs": [
        {
          "internalType": "uint8",
          "name": "",
          "type": "uint8"
        }
      ],
      "name": "_gameLosePredictCount",
      "outputs": [
        {
          "internalType": "uint256",
          "name": "",
          "type": "uint256"
        }
      ],
      "stateMutability": "view",
      "type": "function"
    },
    {
      "inputs": [
        {
          "internalType": "uint8",
          "name": "",
          "type": "uint8"
        }
      ],
      "name": "_gameWinPredictCount",
      "outputs": [
        {
          "internalType": "uint256",
          "name": "",
          "type": "uint256"
        }
      ],
      "stateMutability": "view",
      "type": "function"
    },
    {
      "inputs": [
        {
          "internalType": "uint8",
          "name": "",
          "type": "uint8"
        }
      ],
      "name": "_games",
      "outputs": [
        {
          "internalType": "uint8",
          "name": "homeTeam",
          "type": "uint8"
        },
        {
          "internalType": "uint8",
          "name": "awayTeam",
          "type": "uint8"
        },
        {
          "internalType": "uint256",
          "name": "deadline",
          "type": "uint256"
        },
        {
          "internalType": "uint8",
          "name": "homeScore",
          "type": "uint8"
        },
        {
          "internalType": "uint8",
          "name": "awayScore",
          "type": "uint8"
        },
        {
          "internalType": "enum GroupPredict.GameResult",
          "name": "result",
          "type": "uint8"
        }
      ],
      "stateMutability": "view",
      "type": "function"
    },
    {
      "inputs": [],
      "name": "_predictId",
      "outputs": [
        {
          "internalType": "uint256",
          "name": "",
          "type": "uint256"
        }
      ],
      "stateMutability": "view",
      "type": "function"
    },
    {
      "inputs": [
        {
          "internalType": "uint256",
          "name": "",
          "type": "uint256"
        }
      ],
      "name": "_predictInfos",
      "outputs": [
        {
          "internalType": "uint8",
          "name": "gameId",
          "type": "uint8"
        },
        {
          "internalType": "uint256",
          "name": "time",
          "type": "uint256"
        },
        {
          "internalType": "enum GroupPredict.GameResult",
          "name": "result",
          "type": "uint8"
        },
        {
          "internalType": "uint256",
          "name": "count",
          "type": "uint256"
        },
        {
          "internalType": "address",
          "name": "userAddr",
          "type": "address"
        },
        {
          "internalType": "bool",
          "name": "isClaimed",
          "type": "bool"
        }
      ],
      "stateMutability": "view",
      "type": "function"
    },
    {
      "inputs": [
        {
          "internalType": "uint256",
          "name": "",
          "type": "uint256"
        }
      ],
      "name": "_tokenPredictInfos",
      "outputs": [
        {
          "internalType": "uint256",
          "name": "",
          "type": "uint256"
        }
      ],
      "stateMutability": "view",
      "type": "function"
    },
    {
      "inputs": [
        {
          "internalType": "address",
          "name": "",
          "type": "address"
        },
        {
          "internalType": "uint256",
          "name": "",
          "type": "uint256"
        }
      ],
      "name": "_userPredicts",
      "outputs": [
        {
          "internalType": "uint256",
          "name": "",
          "type": "uint256"
        }
      ],
      "stateMutability": "view",
      "type": "function"
    },
    {
      "inputs": [
        {
          "internalType": "uint256",
          "name": "predictId",
          "type": "uint256"
        }
      ],
      "name": "claim",
      "outputs": [],
      "stateMutability": "nonpayable",
      "type": "function"
    },
    {
      "inputs": [
        {
          "internalType": "uint8[]",
          "name": "gameIds",
          "type": "uint8[]"
        }
      ],
      "name": "getGameByIds",
      "outputs": [
        {
          "components": [
            {
              "internalType": "uint8",
              "name": "homeTeam",
              "type": "uint8"
            },
            {
              "internalType": "uint8",
              "name": "awayTeam",
              "type": "uint8"
            },
            {
              "internalType": "uint256",
              "name": "deadline",
              "type": "uint256"
            },
            {
              "internalType": "uint8",
              "name": "homeScore",
              "type": "uint8"
            },
            {
              "internalType": "uint8",
              "name": "awayScore",
              "type": "uint8"
            },
            {
              "internalType": "enum GroupPredict.GameResult",
              "name": "result",
              "type": "uint8"
            }
          ],
          "internalType": "struct GroupPredict.Game[]",
          "name": "games",
          "type": "tuple[]"
        }
      ],
      "stateMutability": "view",
      "type": "function"
    },
    {
      "inputs": [
        {
          "internalType": "address",
          "name": "userAddr",
          "type": "address"
        },
        {
          "internalType": "uint256",
          "name": "pageNum",
          "type": "uint256"
        },
        {
          "internalType": "uint256",
          "name": "pageSize",
          "type": "uint256"
        }
      ],
      "name": "getPredictsByUser",
      "outputs": [
        {
          "internalType": "uint256",
          "name": "",
          "type": "uint256"
        },
        {
          "components": [
            {
              "internalType": "uint256",
              "name": "time",
              "type": "uint256"
            },
            {
              "internalType": "uint8",
              "name": "homeTeamId",
              "type": "uint8"
            },
            {
              "internalType": "uint8",
              "name": "awayTeamId",
              "type": "uint8"
            },
            {
              "internalType": "uint8",
              "name": "homeScore",
              "type": "uint8"
            },
            {
              "internalType": "uint8",
              "name": "awayScore",
              "type": "uint8"
            },
            {
              "internalType": "enum GroupPredict.GameResult",
              "name": "result",
              "type": "uint8"
            },
            {
              "internalType": "uint256",
              "name": "count",
              "type": "uint256"
            },
            {
              "internalType": "uint256",
              "name": "reward",
              "type": "uint256"
            },
            {
              "internalType": "bool",
              "name": "isClaimed",
              "type": "bool"
            }
          ],
          "internalType": "struct GroupPredict.PredictResult[]",
          "name": "results",
          "type": "tuple[]"
        }
      ],
      "stateMutability": "view",
      "type": "function"
    },
    {
      "inputs": [],
      "name": "getRewardAmount",
      "outputs": [
        {
          "internalType": "uint256",
          "name": "",
          "type": "uint256"
        }
      ],
      "stateMutability": "view",
      "type": "function"
    },
    {
      "inputs": [
        {
          "internalType": "uint8",
          "name": "gameId",
          "type": "uint8"
        }
      ],
      "name": "getTotalPredictCountByGame",
      "outputs": [
        {
          "internalType": "uint256",
          "name": "",
          "type": "uint256"
        }
      ],
      "stateMutability": "view",
      "type": "function"
    },
    {
      "inputs": [
        {
          "internalType": "address",
          "name": "userAddr",
          "type": "address"
        },
        {
          "internalType": "uint8",
          "name": "gameId",
          "type": "uint8"
        }
      ],
      "name": "getUserNFTByGameAndNotPredicted",
      "outputs": [
        {
          "internalType": "uint256[]",
          "name": "tokenIds",
          "type": "uint256[]"
        }
      ],
      "stateMutability": "view",
      "type": "function"
    },
    {
      "inputs": [
        {
          "internalType": "address",
          "name": "userAddr",
          "type": "address"
        },
        {
          "internalType": "uint8",
          "name": "team",
          "type": "uint8"
        }
      ],
      "name": "getUserNFTByTeamAndNotPredicted",
      "outputs": [
        {
          "internalType": "uint256[]",
          "name": "tokenIds",
          "type": "uint256[]"
        }
      ],
      "stateMutability": "view",
      "type": "function"
    },
    {
      "inputs": [],
      "name": "owner",
      "outputs": [
        {
          "internalType": "address",
          "name": "",
          "type": "address"
        }
      ],
      "stateMutability": "view",
      "type": "function"
    },
    {
      "inputs": [],
      "name": "paused",
      "outputs": [
        {
          "internalType": "bool",
          "name": "",
          "type": "bool"
        }
      ],
      "stateMutability": "view",
      "type": "function"
    },
    {
      "inputs": [
        {
          "internalType": "uint8",
          "name": "gameId",
          "type": "uint8"
        },
        {
          "internalType": "uint256[]",
          "name": "homeTeamTokenIds",
          "type": "uint256[]"
        },
        {
          "internalType": "uint256[]",
          "name": "awayTeamTokenIds",
          "type": "uint256[]"
        },
        {
          "internalType": "enum GroupPredict.GameResult",
          "name": "result",
          "type": "uint8"
        }
      ],
      "name": "predict",
      "outputs": [],
      "stateMutability": "nonpayable",
      "type": "function"
    },
    {
      "inputs": [],
      "name": "renounceOwnership",
      "outputs": [],
      "stateMutability": "nonpayable",
      "type": "function"
    },
    {
      "inputs": [
        {
          "internalType": "uint8[]",
          "name": "ids",
          "type": "uint8[]"
        },
        {
          "internalType": "uint8[]",
          "name": "homeTeams",
          "type": "uint8[]"
        },
        {
          "internalType": "uint8[]",
          "name": "awayTeams",
          "type": "uint8[]"
        },
        {
          "internalType": "uint256[]",
          "name": "deadlines",
          "type": "uint256[]"
        }
      ],
      "name": "setGames",
      "outputs": [],
      "stateMutability": "nonpayable",
      "type": "function"
    },
    {
      "inputs": [
        {
          "internalType": "uint8[]",
          "name": "ids",
          "type": "uint8[]"
        },
        {
          "internalType": "uint8[]",
          "name": "homeScores",
          "type": "uint8[]"
        },
        {
          "internalType": "uint8[]",
          "name": "awayScores",
          "type": "uint8[]"
        },
        {
          "internalType": "enum GroupPredict.GameResult[]",
          "name": "results",
          "type": "uint8[]"
        }
      ],
      "name": "setResults",
      "outputs": [],
      "stateMutability": "nonpayable",
      "type": "function"
    },
    {
      "inputs": [
        {
          "internalType": "address",
          "name": "newOwner",
          "type": "address"
        }
      ],
      "name": "transferOwnership",
      "outputs": [],
      "stateMutability": "nonpayable",
      "type": "function"
    }
  ],
  "bytecode": "0x60806040523480156200001157600080fd5b50604051620029fa380380620029fa8339810160408190526200003491620000ee565b6200003f3362000085565b60018055600280546001600160a81b0319166101006001600160a01b0395861602179055600380546001600160a01b031916929093169190911790915560045562000136565b600080546001600160a01b038381166001600160a01b0319831681178455604051919092169283917f8be0079c531659141344cd1fd0a4f28419497f9722a3daafe3b4186f6b6457e09190a35050565b6001600160a01b0381168114620000eb57600080fd5b50565b6000806000606084860312156200010457600080fd5b83516200011181620000d5565b60208501519093506200012481620000d5565b80925050604084015190509250925092565b6128b480620001466000396000f3fe608060405234801561001057600080fd5b50600436106101725760003560e01c80636e6fd356116100de578063cf9d035211610097578063ef343f5011610071578063ef343f5014610406578063f2fde38b14610426578063f3d2dee614610439578063fe59165c1461044c57600080fd5b8063cf9d0352146103bf578063e3fac264146103e0578063e7a2bba0146103f357600080fd5b80636e6fd35614610352578063715018a61461035b57806379b00b6e1461036357806381b8a9d81461037b5780638da5cb5b1461038e578063c258038a1461039f57600080fd5b80633096dfc9116101305780633096dfc91461023757806333ec38601461024a578063379607f5146102ac5780634464b186146102c15780635c975abb146103295780636de5e2e01461033f57600080fd5b8062276a50146101775780630332086e146101a7578063087a622f146101d557806309a69f57146101f55780631f23ab6b146101fd578063263df1d11461021d575b600080fd5b60035461018a906001600160a01b031681565b6040516001600160a01b0390911681526020015b60405180910390f35b6101c76101b5366004612064565b60066020526000908152604090205481565b60405190815260200161019e565b6101e86101e3366004612163565b61046c565b60405161019e91906121d8565b6004546101c7565b61021061020b36600461227d565b61055e565b60405161019e91906122b2565b610225602081565b60405160ff909116815260200161019e565b61021061024536600461227d565b61076c565b61029a610258366004612064565b60056020526000908152604090208054600182015460029092015460ff8083169361010093849004821693909280831692918104821691620100009091041686565b60405161019e969594939291906122f6565b6102bf6102ba366004612337565b61091e565b005b6103176102cf366004612337565b600b6020526000908152604090208054600182015460028301546003840154600485015460069095015460ff9485169593949283169391926001600160a01b03909216911686565b60405161019e96959493929190612350565b60025460ff16604051901515815260200161019e565b6101c761034d366004612396565b610d1e565b6101c760095481565b6102bf610d4f565b60025461018a9061010090046001600160a01b031681565b6101c7610389366004612064565b610d63565b6000546001600160a01b031661018a565b6101c76103ad366004612064565b60076020526000908152604090205481565b6103d26103cd3660046123c2565b610d9f565b60405161019e9291906123f7565b6102bf6103ee3660046124c7565b6110ea565b6102bf610401366004612629565b61130a565b6101c7610414366004612064565b60086020526000908152604090205481565b6102bf6104343660046126d6565b61151e565b6102bf6104473660046126f3565b611597565b6101c761045a366004612337565b600a6020526000908152604090205481565b606060005b8251811015610558576005600084838151811061049057610490612778565b60209081029190910181015160ff9081168352828201939093526040918201600020825160c08101845281548086168252610100908190048616938201939093526001820154938101939093526002810154808516606085015291820484166080840152919260a0840191620100009004166003811115610513576105136121a0565b6003811115610524576105246121a0565b8152505082828151811061053a5761053a612778565b60200260200101819052508080610550906127a4565b915050610471565b50919050565b60ff81166000908152600560205260409020600101546060906105b95760405162461bcd60e51b815260206004820152600e60248201526d19d85b59481b9bdd08195e1a5cdd60921b60448201526064015b60405180910390fd5b6002546040516370a0823160e01b81526001600160a01b038581166004830152600092610100900416906370a0823190602401602060405180830381865afa158015610609573d6000803e3d6000fd5b505050506040513d601f19601f8201168201806040525081019061062d91906127bd565b90506000805b8281101561076257600254604051632f745c5960e01b81526001600160a01b0388811660048301526024820184905260009261010090041690632f745c5990604401602060405180830381865afa158015610692573d6000803e3d6000fd5b505050506040513d601f19601f820116820180604052508101906106b691906127bd565b60ff8088166000908152600560205260409020549192506106d89116826127d6565b1580610706575060ff8087166000908152600560205260409020546107049161010090910416826127d6565b155b801561071e57506000818152600a6020526040902054155b1561074f578085848151811061073657610736612778565b60209081029190910101528261074b816127a4565b9350505b508061075a816127a4565b915050610633565b5050505b92915050565b6060602060ff8316106107b55760405162461bcd60e51b815260206004820152601160248201527034b73b30b634b2103830b930b6b2ba32b960791b60448201526064016105b0565b6002546040516370a0823160e01b81526001600160a01b038581166004830152600092610100900416906370a0823190602401602060405180830381865afa158015610805573d6000803e3d6000fd5b505050506040513d601f19601f8201168201806040525081019061082991906127bd565b90506000805b8281101561076257600254604051632f745c5960e01b81526001600160a01b0388811660048301526024820184905260009261010090041690632f745c5990604401602060405180830381865afa15801561088e573d6000803e3d6000fd5b505050506040513d601f19601f820116820180604052508101906108b291906127bd565b90506108c160ff8716826127d6565b1580156108da57506000818152600a6020526040902054155b1561090b57808584815181106108f2576108f2612778565b602090810291909101015282610907816127a4565b9350505b5080610916816127a4565b91505061082f565b6002600154036109705760405162461bcd60e51b815260206004820152601f60248201527f5265656e7472616e637947756172643a207265656e7472616e742063616c6c0060448201526064016105b0565b600260015561097d611efe565b3332146109c05760405162461bcd60e51b815260206004820152601160248201527053656e646572206973206e6f7420454f4160781b60448201526064016105b0565b6000818152600b602052604081206002015460ff1660038111156109e6576109e66121a0565b03610a275760405162461bcd60e51b81526020600482015260116024820152701c1c99591a58dd081b9bdd08195e1a5cdd607a1b60448201526064016105b0565b6000818152600b602052604090206006015460ff1615610a7b5760405162461bcd60e51b815260206004820152600f60248201526e185b1c9958591e4818db185a5b5959608a1b60448201526064016105b0565b6000818152600b60205260409020600401546001600160a01b03163314610ae45760405162461bcd60e51b815260206004820152601c60248201527f70726564696374206973206e6f74206f776e656420627920757365720000000060448201526064016105b0565b6000818152600b602090815260408083205460ff9081168452600590925290912060020154620100009004166003811115610b2157610b216121a0565b6000828152600b602052604090206002015460ff166003811115610b4757610b476121a0565b03610be257600380546000838152600b60205260409020909101546004546001600160a01b03909216916340c10f19913391610b8391906127f8565b6040516001600160e01b031960e085901b1681526001600160a01b0390921660048301526024820152604401600060405180830381600087803b158015610bc957600080fd5b505af1158015610bdd573d6000803e3d6000fd5b505050505b6000818152600b60205260408120600601805460ff191660011790555b6000828152600b6020526040902060050154811015610d16576000828152600b602052604081206005018054600a91839185908110610c4057610c40612778565b9060005260206000200154815260200190815260200160002081905550600260019054906101000a90046001600160a01b03166001600160a01b0316636198e339600b60008581526020019081526020016000206005018381548110610ca857610ca8612778565b90600052602060002001546040518263ffffffff1660e01b8152600401610cd191815260200190565b600060405180830381600087803b158015610ceb57600080fd5b505af1158015610cff573d6000803e3d6000fd5b505050508080610d0e906127a4565b915050610bff565b505060018055565b600c6020528160005260406000208181548110610d3a57600080fd5b90600052602060002001600091509150505481565b610d57611f44565b610d616000611f9e565b565b60ff811660009081526008602090815260408083205460078352818420546006909352908320549091610d959161280f565b610766919061280f565b6001600160a01b0383166000908152600c60205260408120546060908284610dc8600188612822565b610dd291906127f8565b90506000610de086886127f8565b905082821115610df5578294505050506110e2565b82811115610e005750815b815b818110156110db576001600160a01b0389166000908152600c602052604081208054600b91839185908110610e3957610e39612778565b600091825260208083209091015483528281019390935260409182019020815160e081018352815460ff9081168252600183015494820194909452600282015490939192840191166003811115610e9257610e926121a0565b6003811115610ea357610ea36121a0565b8152602001600382015481526020016004820160009054906101000a90046001600160a01b03166001600160a01b03166001600160a01b0316815260200160058201805480602002602001604051908101604052809291908181526020018280548015610f2f57602002820191906000526020600020905b815481526020019060010190808311610f1b575b50505091835250506006919091015460ff1615156020909101529050610f9c604080516101208101825260008082526020820181905291810182905260608101829052608081018290529060a0820190815260200160008152602001600081526020016000151581525090565b6020808301518252825160ff908116600090815260058084526040808320548416868601528651841683528185528083205461010090819004851682880152875185168452828652818420600290810154861660608901528851861685528387528285208101549190910485166080880152875185168452919094529290209091015460a08301916201000090910416600381111561103d5761103d6121a0565b90816003811115611050576110506121a0565b905250606082015160c082015260008160a001516003811115611075576110756121a0565b1461109257816060015160045461108c91906127f8565b60e08201525b60c0820151151561010082015280876110ab8786612822565b815181106110bb576110bb612778565b6020026020010181905250505080806110d3906127a4565b915050610e02565b5091935050505b935093915050565b6110f2611f44565b80518451148015611104575082518451145b8015611111575081518451145b61112d5760405162461bcd60e51b81526004016105b090612835565b60005b84518110156113035760006005600087848151811061115157611151612778565b602002602001015160ff1660ff16815260200190815260200160002060010154116111b05760405162461bcd60e51b815260206004820152600f60248201526e67616d65206e6f742065786973747360881b60448201526064016105b0565b8281815181106111c2576111c2612778565b6020026020010151600560008784815181106111e0576111e0612778565b602002602001015160ff1660ff16815260200190815260200160002060020160016101000a81548160ff021916908360ff16021790555083818151811061122957611229612778565b60200260200101516005600087848151811061124757611247612778565b602002602001015160ff1660ff16815260200190815260200160002060020160006101000a81548160ff021916908360ff16021790555081818151811061129057611290612778565b6020026020010151600560008784815181106112ae576112ae612778565b60209081029190910181015160ff168252810191909152604001600020600201805462ff00001916620100008360038111156112ec576112ec6121a0565b0217905550806112fb816127a4565b915050611130565b5050505050565b611312611f44565b82518451148015611324575081518451145b8015611331575080518451145b61134d5760405162461bcd60e51b81526004016105b090612835565b60005b845181101561130357602060ff1684828151811061137057611370612778565b602002602001015160ff161080156113a75750602060ff1683828151811061139a5761139a612778565b602002602001015160ff16105b6113c35760405162461bcd60e51b81526004016105b090612835565b6040518060c001604052808583815181106113e0576113e0612778565b602002602001015160ff16815260200184838151811061140257611402612778565b602002602001015160ff16815260200183838151811061142457611424612778565b60200260200101518152602001600060ff168152602001600060ff16815260200160006003811115611458576114586121a0565b8152506005600087848151811061147157611471612778565b60209081029190910181015160ff9081168352828201939093526040918201600020845181549286015190851661ffff199384161761010091861682021782559285015160018201556060850151600282018054608088015192871694169390931794169092029290921780835560a084015191929062ff0000191662010000836003811115611503576115036121a0565b02179055509050508080611516906127a4565b915050611350565b611526611f44565b6001600160a01b03811661158b5760405162461bcd60e51b815260206004820152602660248201527f4f776e61626c653a206e6577206f776e657220697320746865207a65726f206160448201526564647265737360d01b60648201526084016105b0565b61159481611f9e565b50565b6002600154036115e95760405162461bcd60e51b815260206004820152601f60248201527f5265656e7472616e637947756172643a207265656e7472616e742063616c6c0060448201526064016105b0565b60026001556115f6611efe565b3332146116395760405162461bcd60e51b815260206004820152601160248201527053656e646572206973206e6f7420454f4160781b60448201526064016105b0565b815183511461165a5760405162461bcd60e51b81526004016105b090612835565b600081600381111561166e5761166e6121a0565b036116ac5760405162461bcd60e51b815260206004820152600e60248201526d1a5b9d985b1a59081c995cdd5b1d60921b60448201526064016105b0565b60ff8416600090815260056020526040902060010154158015906116e5575060ff84166000908152600560205260409020600101544211155b6117495760405162461bcd60e51b815260206004820152602f60248201527f67616d65206e6f7420657869737473206f722067616d6520616c72656164792060448201526e73746f702070726564696374696e6760881b60648201526084016105b0565b60098054906000611759836127a4565b909155505082516040805160e08101825260ff8716815242602082015290810183600381111561178b5761178b6121a0565b81526020810183905233604082015260600160006040519080825280602002602001820160405280156117c8578160200160208202803683370190505b508152600060209182018190526009548152600b82526040908190208351815460ff90911660ff19918216178255928401516001828101919091559184015160028201805492949193909290911690836003811115611829576118296121a0565b02179055506060820151600382015560808201516004820180546001600160a01b0319166001600160a01b0390921691909117905560a08201518051611879916005840191602090910190611fee565b5060c091909101516006909101805460ff191691151591909117905560005b81811015611de0576002548551339161010090046001600160a01b031690636352211e908890859081106118ce576118ce612778565b60200260200101516040518263ffffffff1660e01b81526004016118f491815260200190565b602060405180830381865afa158015611911573d6000803e3d6000fd5b505050506040513d601f19601f820116820180604052508101906119359190612861565b6001600160a01b03161480156119e657506002548451339161010090046001600160a01b031690636352211e9087908590811061197457611974612778565b60200260200101516040518263ffffffff1660e01b815260040161199a91815260200190565b602060405180830381865afa1580156119b7573d6000803e3d6000fd5b505050506040513d601f19601f820116820180604052508101906119db9190612861565b6001600160a01b0316145b611a325760405162461bcd60e51b815260206004820152601c60248201527f6d73672e73656e646572206e6f74206f776e2074686520746f6b656e0000000060448201526064016105b0565b600a6000868381518110611a4857611a48612778565b60200260200101518152602001908152602001600020546000148015611a9a5750600a6000858381518110611a7f57611a7f612778565b60200260200101518152602001908152602001600020546000145b611ae65760405162461bcd60e51b815260206004820152601a60248201527f746f6b656e20616c72656164792062652070726564696374656400000000000060448201526064016105b0565b6000602060ff16868381518110611aff57611aff612778565b6020026020010151611b1191906127d6565b90506000602060ff16868481518110611b2c57611b2c612778565b6020026020010151611b3e91906127d6565b60ff808a166000908152600560205260409020549192508381169116148015611b82575060ff88811660009081526005602052604090205461010090048116908216145b611bc45760405162461bcd60e51b8152602060048201526013602482015272746f6b656e206e6f742067616d65207465616d60681b60448201526064016105b0565b600954600a6000898681518110611bdd57611bdd612778565b6020026020010151815260200190815260200160002081905550600954600a6000888681518110611c1057611c10612778565b6020026020010151815260200190815260200160002081905550600b60006009548152602001908152602001600020600501878481518110611c5457611c54612778565b6020908102919091018101518254600181018455600093845282842001556009548252600b9052604090208651600590910190879085908110611c9957611c99612778565b6020908102919091018101518254600181018455600093845291909220015560025487516101009091046001600160a01b03169063dd46706490899086908110611ce557611ce5612778565b60200260200101516040518263ffffffff1660e01b8152600401611d0b91815260200190565b600060405180830381600087803b158015611d2557600080fd5b505af1158015611d39573d6000803e3d6000fd5b50505050600260019054906101000a90046001600160a01b03166001600160a01b031663dd467064878581518110611d7357611d73612778565b60200260200101516040518263ffffffff1660e01b8152600401611d9991815260200190565b600060405180830381600087803b158015611db357600080fd5b505af1158015611dc7573d6000803e3d6000fd5b5050505050508080611dd8906127a4565b915050611898565b50336000908152600c6020908152604082206009548154600181810184559285529290932090910191909155826003811115611e1e57611e1e6121a0565b03611e595760ff8516600090815260066020526040902054611e4190829061280f565b60ff8616600090815260066020526040902055611ef3565b6002826003811115611e6d57611e6d6121a0565b03611ea85760ff8516600090815260076020526040902054611e9090829061280f565b60ff8616600090815260076020526040902055611ef3565b6003826003811115611ebc57611ebc6121a0565b03611ef35760ff8516600090815260086020526040902054611edf90829061280f565b60ff86166000908152600860205260409020555b505060018055505050565b60025460ff1615610d615760405162461bcd60e51b815260206004820152601060248201526f14185d5cd8589b194e881c185d5cd95960821b60448201526064016105b0565b6000546001600160a01b03163314610d615760405162461bcd60e51b815260206004820181905260248201527f4f776e61626c653a2063616c6c6572206973206e6f7420746865206f776e657260448201526064016105b0565b600080546001600160a01b038381166001600160a01b0319831681178455604051919092169283917f8be0079c531659141344cd1fd0a4f28419497f9722a3daafe3b4186f6b6457e09190a35050565b828054828255906000526020600020908101928215612029579160200282015b8281111561202957825182559160200191906001019061200e565b50612035929150612039565b5090565b5b80821115612035576000815560010161203a565b803560ff8116811461205f57600080fd5b919050565b60006020828403121561207657600080fd5b61207f8261204e565b9392505050565b634e487b7160e01b600052604160045260246000fd5b604051601f8201601f1916810167ffffffffffffffff811182821017156120c5576120c5612086565b604052919050565b600067ffffffffffffffff8211156120e7576120e7612086565b5060051b60200190565b600082601f83011261210257600080fd5b81356020612117612112836120cd565b61209c565b82815260059290921b8401810191818101908684111561213657600080fd5b8286015b848110156121585761214b8161204e565b835291830191830161213a565b509695505050505050565b60006020828403121561217557600080fd5b813567ffffffffffffffff81111561218c57600080fd5b612198848285016120f1565b949350505050565b634e487b7160e01b600052602160045260246000fd5b600481106121d457634e487b7160e01b600052602160045260246000fd5b9052565b602080825282518282018190526000919060409081850190868401855b8281101561225b578151805160ff90811686528782015181168887015286820151878701526060808301518216908701526080808301519091169086015260a09081015190612246818701836121b6565b505060c09390930192908501906001016121f5565b5091979650505050505050565b6001600160a01b038116811461159457600080fd5b6000806040838503121561229057600080fd5b823561229b81612268565b91506122a96020840161204e565b90509250929050565b6020808252825182820181905260009190848201906040850190845b818110156122ea578351835292840192918401916001016122ce565b50909695505050505050565b60ff878116825286811660208301526040820186905284811660608301528316608082015260c0810161232c60a08301846121b6565b979650505050505050565b60006020828403121561234957600080fd5b5035919050565b60ff871681526020810186905260c0810161236e60408301876121b6565b60608201949094526001600160a01b03929092166080830152151560a0909101529392505050565b600080604083850312156123a957600080fd5b82356123b481612268565b946020939093013593505050565b6000806000606084860312156123d757600080fd5b83356123e281612268565b95602085013595506040909401359392505050565b600060408083018584526020828186015281865180845260609350838701915082880160005b828110156124a9578151805185528581015160ff90811687870152888201511688860152868101516124538887018260ff169052565b5060808181015160ff169086015260a080820151612473828801826121b6565b505060c0818101519086015260e0808201519086015261010090810151151590850152610120909301929084019060010161241d565b50919998505050505050505050565b80356004811061205f57600080fd5b600080600080608085870312156124dd57600080fd5b843567ffffffffffffffff808211156124f557600080fd5b612501888389016120f1565b955060209150818701358181111561251857600080fd5b61252489828a016120f1565b95505060408701358181111561253957600080fd5b61254589828a016120f1565b94505060608701358181111561255a57600080fd5b87019050601f8101881361256d57600080fd5b803561257b612112826120cd565b81815260059190911b8201830190838101908a83111561259a57600080fd5b928401925b828410156125bf576125b0846124b8565b8252928401929084019061259f565b979a9699509497505050505050565b600082601f8301126125df57600080fd5b813560206125ef612112836120cd565b82815260059290921b8401810191818101908684111561260e57600080fd5b8286015b848110156121585780358352918301918301612612565b6000806000806080858703121561263f57600080fd5b843567ffffffffffffffff8082111561265757600080fd5b612663888389016120f1565b9550602087013591508082111561267957600080fd5b612685888389016120f1565b9450604087013591508082111561269b57600080fd5b6126a7888389016120f1565b935060608701359150808211156126bd57600080fd5b506126ca878288016125ce565b91505092959194509250565b6000602082840312156126e857600080fd5b813561207f81612268565b6000806000806080858703121561270957600080fd5b6127128561204e565b9350602085013567ffffffffffffffff8082111561272f57600080fd5b61273b888389016125ce565b9450604087013591508082111561275157600080fd5b5061275e878288016125ce565b92505061276d606086016124b8565b905092959194509250565b634e487b7160e01b600052603260045260246000fd5b634e487b7160e01b600052601160045260246000fd5b6000600182016127b6576127b661278e565b5060010190565b6000602082840312156127cf57600080fd5b5051919050565b6000826127f357634e487b7160e01b600052601260045260246000fd5b500690565b80820281158282048414176107665761076661278e565b808201808211156107665761076661278e565b818103818111156107665761076661278e565b602080825260129082015271696e76616c696420706172616d657465727360701b604082015260600190565b60006020828403121561287357600080fd5b815161207f8161226856fea2646970667358221220d9cb7fe8c109b14f2ec5265ef6a263a93cfefcb5f4636742ab84219b78d9df4564736f6c63430008110033",
  "linkReferences": {},
  "deployedLinkReferences": {}
}