{
  "_format": "hh-sol-artifact-1",
  "contractName": "GroupPredict",
  "sourceName": "contracts/GroupPredict.sol",
  "abi": [
    {
      "inputs": [
        {
          "internalType": "contract IGroupNFT",
          "name": "nft",
          "type": "address"
        },
        {
          "internalType": "contract ERC20PresetMinterPauser",
          "name": "token",
          "type": "address"
        },
        {
          "internalType": "uint256",
          "name": "rewardAmt",
          "type": "uint256"
        }
      ],
      "stateMutability": "nonpayable",
      "type": "constructor"
    },
    {
      "anonymous": false,
      "inputs": [
        {
          "indexed": true,
          "internalType": "address",
          "name": "previousOwner",
          "type": "address"
        },
        {
          "indexed": true,
          "internalType": "address",
          "name": "newOwner",
          "type": "address"
        }
      ],
      "name": "OwnershipTransferred",
      "type": "event"
    },
    {
      "anonymous": false,
      "inputs": [
        {
          "indexed": false,
          "internalType": "address",
          "name": "account",
          "type": "address"
        }
      ],
      "name": "Paused",
      "type": "event"
    },
    {
      "anonymous": false,
      "inputs": [
        {
          "indexed": false,
          "internalType": "address",
          "name": "account",
          "type": "address"
        }
      ],
      "name": "Unpaused",
      "type": "event"
    },
    {
      "inputs": [],
      "name": "GroupNFT",
      "outputs": [
        {
          "internalType": "contract IGroupNFT",
          "name": "",
          "type": "address"
        }
      ],
      "stateMutability": "view",
      "type": "function"
    },
    {
      "inputs": [],
      "name": "NFTBToken",
      "outputs": [
        {
          "internalType": "contract ERC20PresetMinterPauser",
          "name": "",
          "type": "address"
        }
      ],
      "stateMutability": "view",
      "type": "function"
    },
    {
      "inputs": [],
      "name": "TEAM_COUNT",
      "outputs": [
        {
          "internalType": "uint8",
          "name": "",
          "type": "uint8"
        }
      ],
      "stateMutability": "view",
      "type": "function"
    },
    {
      "inputs": [
        {
          "internalType": "uint256",
          "name": "",
          "type": "uint256"
        }
      ],
      "name": "_endGames",
      "outputs": [
        {
          "internalType": "uint8",
          "name": "",
          "type": "uint8"
        }
      ],
      "stateMutability": "view",
      "type": "function"
    },
    {
      "inputs": [
        {
          "internalType": "uint8",
          "name": "",
          "type": "uint8"
        }
      ],
      "name": "_gameDrawPredictCount",
      "outputs": [
        {
          "internalType": "uint256",
          "name": "",
          "type": "uint256"
        }
      ],
      "stateMutability": "view",
      "type": "function"
    },
    {
      "inputs": [
        {
          "internalType": "uint8",
          "name": "",
          "type": "uint8"
        }
      ],
      "name": "_gameLosePredictCount",
      "outputs": [
        {
          "internalType": "uint256",
          "name": "",
          "type": "uint256"
        }
      ],
      "stateMutability": "view",
      "type": "function"
    },
    {
      "inputs": [
        {
          "internalType": "uint8",
          "name": "",
          "type": "uint8"
        }
      ],
      "name": "_gameWinPredictCount",
      "outputs": [
        {
          "internalType": "uint256",
          "name": "",
          "type": "uint256"
        }
      ],
      "stateMutability": "view",
      "type": "function"
    },
    {
      "inputs": [
        {
          "internalType": "uint8",
          "name": "",
          "type": "uint8"
        }
      ],
      "name": "_games",
      "outputs": [
        {
          "internalType": "uint8",
          "name": "homeTeam",
          "type": "uint8"
        },
        {
          "internalType": "uint8",
          "name": "awayTeam",
          "type": "uint8"
        },
        {
          "internalType": "uint256",
          "name": "deadline",
          "type": "uint256"
        },
        {
          "internalType": "uint8",
          "name": "homeScore",
          "type": "uint8"
        },
        {
          "internalType": "uint8",
          "name": "awayScore",
          "type": "uint8"
        },
        {
          "internalType": "enum GroupPredict.GameResult",
          "name": "result",
          "type": "uint8"
        }
      ],
      "stateMutability": "view",
      "type": "function"
    },
    {
      "inputs": [],
      "name": "_predictId",
      "outputs": [
        {
          "internalType": "uint256",
          "name": "",
          "type": "uint256"
        }
      ],
      "stateMutability": "view",
      "type": "function"
    },
    {
      "inputs": [
        {
          "internalType": "uint256",
          "name": "",
          "type": "uint256"
        }
      ],
      "name": "_predictInfos",
      "outputs": [
        {
          "internalType": "uint8",
          "name": "gameId",
          "type": "uint8"
        },
        {
          "internalType": "uint256",
          "name": "time",
          "type": "uint256"
        },
        {
          "internalType": "enum GroupPredict.GameResult",
          "name": "result",
          "type": "uint8"
        },
        {
          "internalType": "uint256",
          "name": "count",
          "type": "uint256"
        },
        {
          "internalType": "address",
          "name": "userAddr",
          "type": "address"
        },
        {
          "internalType": "bool",
          "name": "isClaimed",
          "type": "bool"
        }
      ],
      "stateMutability": "view",
      "type": "function"
    },
    {
      "inputs": [
        {
          "internalType": "uint256",
          "name": "",
          "type": "uint256"
        }
      ],
      "name": "_tokenPredictInfos",
      "outputs": [
        {
          "internalType": "uint256",
          "name": "",
          "type": "uint256"
        }
      ],
      "stateMutability": "view",
      "type": "function"
    },
    {
      "inputs": [
        {
          "internalType": "address",
          "name": "",
          "type": "address"
        },
        {
          "internalType": "uint256",
          "name": "",
          "type": "uint256"
        }
      ],
      "name": "_userPredicts",
      "outputs": [
        {
          "internalType": "uint256",
          "name": "",
          "type": "uint256"
        }
      ],
      "stateMutability": "view",
      "type": "function"
    },
    {
      "inputs": [
        {
          "internalType": "uint8[]",
          "name": "ids",
          "type": "uint8[]"
        }
      ],
      "name": "addEndGames",
      "outputs": [],
      "stateMutability": "nonpayable",
      "type": "function"
    },
    {
      "inputs": [
        {
          "internalType": "uint256",
          "name": "predictId",
          "type": "uint256"
        }
      ],
      "name": "claim",
      "outputs": [],
      "stateMutability": "nonpayable",
      "type": "function"
    },
    {
      "inputs": [],
      "name": "getEndGameList",
      "outputs": [
        {
          "internalType": "uint8[]",
          "name": "",
          "type": "uint8[]"
        }
      ],
      "stateMutability": "view",
      "type": "function"
    },
    {
      "inputs": [
        {
          "internalType": "uint8[]",
          "name": "gameIds",
          "type": "uint8[]"
        }
      ],
      "name": "getGameByIds",
      "outputs": [
        {
          "components": [
            {
              "internalType": "uint8",
              "name": "homeTeam",
              "type": "uint8"
            },
            {
              "internalType": "uint8",
              "name": "awayTeam",
              "type": "uint8"
            },
            {
              "internalType": "uint256",
              "name": "deadline",
              "type": "uint256"
            },
            {
              "internalType": "uint8",
              "name": "homeScore",
              "type": "uint8"
            },
            {
              "internalType": "uint8",
              "name": "awayScore",
              "type": "uint8"
            },
            {
              "internalType": "enum GroupPredict.GameResult",
              "name": "result",
              "type": "uint8"
            }
          ],
          "internalType": "struct GroupPredict.Game[]",
          "name": "",
          "type": "tuple[]"
        },
        {
          "internalType": "uint256[]",
          "name": "",
          "type": "uint256[]"
        }
      ],
      "stateMutability": "view",
      "type": "function"
    },
    {
      "inputs": [
        {
          "internalType": "address",
          "name": "userAddr",
          "type": "address"
        },
        {
          "internalType": "uint256",
          "name": "pageNum",
          "type": "uint256"
        },
        {
          "internalType": "uint256",
          "name": "pageSize",
          "type": "uint256"
        }
      ],
      "name": "getPredictsByUser",
      "outputs": [
        {
          "internalType": "uint256",
          "name": "",
          "type": "uint256"
        },
        {
          "components": [
            {
              "internalType": "uint256",
              "name": "id",
              "type": "uint256"
            },
            {
              "internalType": "uint256",
              "name": "time",
              "type": "uint256"
            },
            {
              "internalType": "uint8",
              "name": "homeTeamId",
              "type": "uint8"
            },
            {
              "internalType": "uint8",
              "name": "awayTeamId",
              "type": "uint8"
            },
            {
              "internalType": "uint8",
              "name": "homeScore",
              "type": "uint8"
            },
            {
              "internalType": "uint8",
              "name": "awayScore",
              "type": "uint8"
            },
            {
              "internalType": "enum GroupPredict.GameResult",
              "name": "result",
              "type": "uint8"
            },
            {
              "internalType": "enum GroupPredict.GameResult",
              "name": "finalResult",
              "type": "uint8"
            },
            {
              "internalType": "uint256",
              "name": "count",
              "type": "uint256"
            },
            {
              "internalType": "uint256",
              "name": "reward",
              "type": "uint256"
            },
            {
              "internalType": "bool",
              "name": "isClaimed",
              "type": "bool"
            },
            {
              "internalType": "uint256[]",
              "name": "tokenIds",
              "type": "uint256[]"
            }
          ],
          "internalType": "struct GroupPredict.PredictResult[]",
          "name": "",
          "type": "tuple[]"
        }
      ],
      "stateMutability": "view",
      "type": "function"
    },
    {
      "inputs": [],
      "name": "getRewardAmount",
      "outputs": [
        {
          "internalType": "uint256",
          "name": "",
          "type": "uint256"
        }
      ],
      "stateMutability": "view",
      "type": "function"
    },
    {
      "inputs": [
        {
          "internalType": "uint8",
          "name": "gameId",
          "type": "uint8"
        }
      ],
      "name": "getTotalPredictCountByGame",
      "outputs": [
        {
          "internalType": "uint256",
          "name": "",
          "type": "uint256"
        }
      ],
      "stateMutability": "view",
      "type": "function"
    },
    {
      "inputs": [
        {
          "internalType": "address",
          "name": "userAddr",
          "type": "address"
        }
      ],
      "name": "getUnclaimedAmount",
      "outputs": [
        {
          "internalType": "uint256",
          "name": "",
          "type": "uint256"
        }
      ],
      "stateMutability": "view",
      "type": "function"
    },
    {
      "inputs": [
        {
          "internalType": "address",
          "name": "userAddr",
          "type": "address"
        },
        {
          "internalType": "uint8",
          "name": "gameId",
          "type": "uint8"
        }
      ],
      "name": "getUserNFTByGameAndNotPredicted",
      "outputs": [
        {
          "internalType": "uint256[]",
          "name": "",
          "type": "uint256[]"
        }
      ],
      "stateMutability": "view",
      "type": "function"
    },
    {
      "inputs": [
        {
          "internalType": "address",
          "name": "userAddr",
          "type": "address"
        },
        {
          "internalType": "uint8",
          "name": "team",
          "type": "uint8"
        }
      ],
      "name": "getUserNFTByTeamAndNotPredicted",
      "outputs": [
        {
          "internalType": "uint256[]",
          "name": "",
          "type": "uint256[]"
        }
      ],
      "stateMutability": "view",
      "type": "function"
    },
    {
      "inputs": [],
      "name": "owner",
      "outputs": [
        {
          "internalType": "address",
          "name": "",
          "type": "address"
        }
      ],
      "stateMutability": "view",
      "type": "function"
    },
    {
      "inputs": [],
      "name": "paused",
      "outputs": [
        {
          "internalType": "bool",
          "name": "",
          "type": "bool"
        }
      ],
      "stateMutability": "view",
      "type": "function"
    },
    {
      "inputs": [
        {
          "internalType": "uint8",
          "name": "gameId",
          "type": "uint8"
        },
        {
          "internalType": "uint256[]",
          "name": "tokenIds",
          "type": "uint256[]"
        },
        {
          "internalType": "enum GroupPredict.GameResult",
          "name": "result",
          "type": "uint8"
        }
      ],
      "name": "predict",
      "outputs": [],
      "stateMutability": "nonpayable",
      "type": "function"
    },
    {
      "inputs": [
        {
          "internalType": "uint256",
          "name": "index",
          "type": "uint256"
        }
      ],
      "name": "removeEndGames",
      "outputs": [],
      "stateMutability": "nonpayable",
      "type": "function"
    },
    {
      "inputs": [],
      "name": "renounceOwnership",
      "outputs": [],
      "stateMutability": "nonpayable",
      "type": "function"
    },
    {
      "inputs": [
        {
          "internalType": "uint8[]",
          "name": "ids",
          "type": "uint8[]"
        },
        {
          "internalType": "uint8[]",
          "name": "homeTeams",
          "type": "uint8[]"
        },
        {
          "internalType": "uint8[]",
          "name": "awayTeams",
          "type": "uint8[]"
        },
        {
          "internalType": "uint256[]",
          "name": "deadlines",
          "type": "uint256[]"
        }
      ],
      "name": "setGames",
      "outputs": [],
      "stateMutability": "nonpayable",
      "type": "function"
    },
    {
      "inputs": [
        {
          "internalType": "uint8[]",
          "name": "ids",
          "type": "uint8[]"
        },
        {
          "internalType": "uint8[]",
          "name": "homeScores",
          "type": "uint8[]"
        },
        {
          "internalType": "uint8[]",
          "name": "awayScores",
          "type": "uint8[]"
        },
        {
          "internalType": "enum GroupPredict.GameResult[]",
          "name": "results",
          "type": "uint8[]"
        }
      ],
      "name": "setResults",
      "outputs": [],
      "stateMutability": "nonpayable",
      "type": "function"
    },
    {
      "inputs": [
        {
          "internalType": "uint256",
          "name": "amount",
          "type": "uint256"
        }
      ],
      "name": "setRewardAmount",
      "outputs": [],
      "stateMutability": "nonpayable",
      "type": "function"
    },
    {
      "inputs": [
        {
          "internalType": "address",
          "name": "newOwner",
          "type": "address"
        }
      ],
      "name": "transferOwnership",
      "outputs": [],
      "stateMutability": "nonpayable",
      "type": "function"
    }
  ],
  "bytecode": "0x60806040523480156200001157600080fd5b50604051620031fc380380620031fc8339810160408190526200003491620000ee565b6200003f3362000085565b60018055600280546001600160a81b0319166101006001600160a01b0395861602179055600380546001600160a01b031916929093169190911790915560045562000136565b600080546001600160a01b038381166001600160a01b0319831681178455604051919092169283917f8be0079c531659141344cd1fd0a4f28419497f9722a3daafe3b4186f6b6457e09190a35050565b6001600160a01b0381168114620000eb57600080fd5b50565b6000806000606084860312156200010457600080fd5b83516200011181620000d5565b60208501519093506200012481620000d5565b80925050604084015190509250925092565b6130b680620001466000396000f3fe608060405234801561001057600080fd5b50600436106101e45760003560e01c80636e6fd3561161010f578063c258038a116100a2578063e7a2bba011610071578063e7a2bba0146104ed578063ef343f5014610500578063f2fde38b14610520578063fe59165c1461053357600080fd5b8063c258038a14610484578063cf9d0352146104a4578063d2bbef29146104c5578063e3fac264146104da57600080fd5b80638da5cb5b116100de5780638da5cb5b1461043a5780638e761b361461044b578063a8a65a781461045e578063b81523951461047157600080fd5b80636e6fd356146103fe578063715018a61461040757806379b00b6e1461040f57806381b8a9d81461042757600080fd5b806329516519116101875780634464b186116101565780634464b1861461035a5780635c975abb146103c2578063665e4271146103d85780636de5e2e0146103eb57600080fd5b806329516519146102bf5780633096dfc9146102d257806333ec3860146102e5578063379607f51461034757600080fd5b806309a69f57116101c357806309a69f57146102685780631f23ab6b1461027057806323bbcd4314610290578063263df1d1146102a557600080fd5b8062276a50146101e95780630332086e14610219578063087a622f14610247575b600080fd5b6003546101fc906001600160a01b031681565b6040516001600160a01b0390911681526020015b60405180910390f35b6102396102273660046127e7565b60076020526000908152604090205481565b604051908152602001610210565b61025a6102553660046128d9565b610553565b604051610210929190612988565b600454610239565b61028361027e366004612a3f565b610755565b6040516102109190612a74565b6102a361029e366004612af1565b610a90565b005b6102ad602081565b60405160ff9091168152602001610210565b6102ad6102cd366004612b4e565b6111c1565b6102836102e0366004612a3f565b6111f5565b6103356102f33660046127e7565b60056020526000908152604090208054600182015460029092015460ff8083169361010093849004821693909280831692918104821691620100009091041686565b60405161021096959493929190612b67565b6102a3610355366004612b4e565b611499565b6103b0610368366004612b4e565b600c6020526000908152604090208054600182015460028301546003840154600485015460069095015460ff9485169593949283169391926001600160a01b03909216911686565b60405161021096959493929190612b9d565b60025460ff166040519015158152602001610210565b6102a36103e6366004612b4e565b611899565b6102396103f9366004612be3565b61199d565b610239600a5481565b6102a36119ce565b6002546101fc9061010090046001600160a01b031681565b6102396104353660046127e7565b6119e2565b6000546001600160a01b03166101fc565b6102a36104593660046128d9565b611a1e565b6102a361046c366004612b4e565b611b14565b61023961047f366004612c0f565b611b21565b6102396104923660046127e7565b60086020526000908152604090205481565b6104b76104b2366004612c2c565b611c4b565b604051610210929190612c61565b6104cd612073565b6040516102109190612d6b565b6102a36104e8366004612db2565b6120e9565b6102a36104fb366004612eb8565b612391565b61023961050e3660046127e7565b60096020526000908152604090205481565b6102a361052e366004612c0f565b6125a5565b610239610541366004612b4e565b600b6020526000908152604090205481565b606080600083516001600160401b0381111561057157610571612809565b6040519080825280602002602001820160405280156105d857816020015b6105c56040805160c08101825260008082526020820181905291810182905260608101829052608081018290529060a082015290565b81526020019060019003908161058f5790505b509050600084516001600160401b038111156105f6576105f6612809565b60405190808252806020026020018201604052801561061f578160200160208202803683370190505b50905060005b855181101561074a576005600087838151811061064457610644612f64565b60209081029190910181015160ff9081168352828201939093526040918201600020825160c08101845281548086168252610100908190048616938201939093526001820154938101939093526002810154808516606085015291820484166080840152919260a08401916201000090041660038111156106c7576106c7612915565b60038111156106d8576106d8612915565b815250508382815181106106ee576106ee612f64565b602002602001018190525061071b86828151811061070e5761070e612f64565b60200260200101516119e2565b82828151811061072d5761072d612f64565b60209081029190910101528061074281612f90565b915050610625565b509094909350915050565b60ff81166000908152600560205260409020600101546060906107b05760405162461bcd60e51b815260206004820152600e60248201526d19d85b59481b9bdd08195e1a5cdd60921b60448201526064015b60405180910390fd5b6002546040516370a0823160e01b81526001600160a01b038581166004830152600092610100900416906370a0823190602401602060405180830381865afa158015610800573d6000803e3d6000fd5b505050506040513d601f19601f820116820180604052508101906108249190612fa9565b9050600080826001600160401b0381111561084157610841612809565b60405190808252806020026020018201604052801561086a578160200160208202803683370190505b50905060005b838110156109a957600254604051632f745c5960e01b81526001600160a01b0389811660048301526024820184905260009261010090041690632f745c5990604401602060405180830381865afa1580156108cf573d6000803e3d6000fd5b505050506040513d601f19601f820116820180604052508101906108f39190612fa9565b60ff80891660009081526005602090815260409091205492935091169061091a9083612fc2565b148061094d575060ff80881660009081526005602090815260409091205461010090049091169061094b9083612fc2565b145b801561096557506000818152600b6020526040902054155b15610996578083858151811061097d5761097d612f64565b60209081029190910101528361099281612f90565b9450505b50806109a181612f90565b915050610870565b50816000036109e95760005b6040519080825280602002602001820160405280156109de578160200160208202803683370190505b509350505050610a8a565b6000826001600160401b03811115610a0357610a03612809565b604051908082528060200260200182016040528015610a2c578160200160208202803683370190505b50905060005b83811015610a8357828181518110610a4c57610a4c612f64565b6020026020010151828281518110610a6657610a66612f64565b602090810291909101015280610a7b81612f90565b915050610a32565b5093505050505b92915050565b600260015403610ae25760405162461bcd60e51b815260206004820152601f60248201527f5265656e7472616e637947756172643a207265656e7472616e742063616c6c0060448201526064016107a7565b6002600155610aef61261e565b333214610b325760405162461bcd60e51b815260206004820152601160248201527053656e646572206973206e6f7420454f4160781b60448201526064016107a7565b6000816003811115610b4657610b46612915565b03610b845760405162461bcd60e51b815260206004820152600e60248201526d1a5b9d985b1a59081c995cdd5b1d60921b60448201526064016107a7565b60ff831660009081526005602052604090206001015415801590610bbd575060ff83166000908152600560205260409020600101544211155b610c215760405162461bcd60e51b815260206004820152602f60248201527f67616d65206e6f7420657869737473206f722067616d6520616c72656164792060448201526e73746f702070726564696374696e6760881b60648201526084016107a7565b600a8054906000610c3183612f90565b909155505081516040805160e08101825260ff86168152426020820152908101836003811115610c6357610c63612915565b8152602081018390523360408201526060016000604051908082528060200260200182016040528015610ca0578160200160208202803683370190505b50815260006020918201819052600a548152600c82526040908190208351815460ff90911660ff19918216178255928401516001828101919091559184015160028201805492949193909290911690836003811115610d0157610d01612915565b02179055506060820151600382015560808201516004820180546001600160a01b0319166001600160a01b0390921691909117905560a08201518051610d5191600584019160209091019061270e565b5060c091909101516006909101805460ff191691151591909117905560005b818110156110a4576002548451339161010090046001600160a01b031690636352211e90879085908110610da657610da6612f64565b60200260200101516040518263ffffffff1660e01b8152600401610dcc91815260200190565b602060405180830381865afa158015610de9573d6000803e3d6000fd5b505050506040513d601f19601f82011682018060405250810190610e0d9190612fe4565b6001600160a01b031614610e635760405162461bcd60e51b815260206004820152601c60248201527f6d73672e73656e646572206e6f74206f776e2074686520746f6b656e0000000060448201526064016107a7565b600b6000858381518110610e7957610e79612f64565b6020026020010151815260200190815260200160002054600014610edf5760405162461bcd60e51b815260206004820152601a60248201527f746f6b656e20616c72656164792062652070726564696374656400000000000060448201526064016107a7565b6000602060ff16858381518110610ef857610ef8612f64565b6020026020010151610f0a9190612fc2565b60ff80881660009081526005602052604090205491925080831691161480610f4d575060ff86811660009081526005602052604090205461010090048116908216145b610f8f5760405162461bcd60e51b8152602060048201526013602482015272746f6b656e206e6f742067616d65207465616d60681b60448201526064016107a7565b600a54600b6000878581518110610fa857610fa8612f64565b6020026020010151815260200190815260200160002081905550600c6000600a548152602001908152602001600020600501858381518110610fec57610fec612f64565b6020908102919091018101518254600181018455600093845291909220015560025485516101009091046001600160a01b03169063dd4670649087908590811061103857611038612f64565b60200260200101516040518263ffffffff1660e01b815260040161105e91815260200190565b600060405180830381600087803b15801561107857600080fd5b505af115801561108c573d6000803e3d6000fd5b5050505050808061109c90612f90565b915050610d70565b50336000908152600d602090815260408220600a5481546001818101845592855292909320909101919091558260038111156110e2576110e2612915565b0361111d5760ff8416600090815260076020526040902054611105908290613001565b60ff85166000908152600760205260409020556111b7565b600282600381111561113157611131612915565b0361116c5760ff8416600090815260086020526040902054611154908290613001565b60ff85166000908152600860205260409020556111b7565b600382600381111561118057611180612915565b036111b75760ff84166000908152600960205260409020546111a3908290613001565b60ff85166000908152600960205260409020555b5050600180555050565b600681815481106111d157600080fd5b9060005260206000209060209182820401919006915054906101000a900460ff1681565b6060602060ff83161061123e5760405162461bcd60e51b815260206004820152601160248201527034b73b30b634b2103830b930b6b2ba32b960791b60448201526064016107a7565b6002546040516370a0823160e01b81526001600160a01b038581166004830152600092610100900416906370a0823190602401602060405180830381865afa15801561128e573d6000803e3d6000fd5b505050506040513d601f19601f820116820180604052508101906112b29190612fa9565b9050600080826001600160401b038111156112cf576112cf612809565b6040519080825280602002602001820160405280156112f8578160200160208202803683370190505b50905060005b838110156113ef57600254604051632f745c5960e01b81526001600160a01b0389811660048301526024820184905260009261010090041690632f745c5990604401602060405180830381865afa15801561135d573d6000803e3d6000fd5b505050506040513d601f19601f820116820180604052508101906113819190612fa9565b905060ff8716611392602083612fc2565b1480156113ab57506000818152600b6020526040902054155b156113dc57808385815181106113c3576113c3612f64565b6020908102919091010152836113d881612f90565b9450505b50806113e781612f90565b9150506112fe565b50816000036113ff5760006109b5565b6000826001600160401b0381111561141957611419612809565b604051908082528060200260200182016040528015611442578160200160208202803683370190505b50905060005b83811015610a835782818151811061146257611462612f64565b602002602001015182828151811061147c5761147c612f64565b60209081029190910101528061149181612f90565b915050611448565b6002600154036114eb5760405162461bcd60e51b815260206004820152601f60248201527f5265656e7472616e637947756172643a207265656e7472616e742063616c6c0060448201526064016107a7565b60026001556114f861261e565b33321461153b5760405162461bcd60e51b815260206004820152601160248201527053656e646572206973206e6f7420454f4160781b60448201526064016107a7565b6000818152600c602052604081206002015460ff16600381111561156157611561612915565b036115a25760405162461bcd60e51b81526020600482015260116024820152701c1c99591a58dd081b9bdd08195e1a5cdd607a1b60448201526064016107a7565b6000818152600c602052604090206006015460ff16156115f65760405162461bcd60e51b815260206004820152600f60248201526e185b1c9958591e4818db185a5b5959608a1b60448201526064016107a7565b6000818152600c60205260409020600401546001600160a01b0316331461165f5760405162461bcd60e51b815260206004820152601c60248201527f70726564696374206973206e6f74206f776e656420627920757365720000000060448201526064016107a7565b6000818152600c602090815260408083205460ff908116845260059092529091206002015462010000900416600381111561169c5761169c612915565b6000828152600c602052604090206002015460ff1660038111156116c2576116c2612915565b0361175d57600380546000838152600c60205260409020909101546004546001600160a01b03909216916340c10f199133916116fe9190613014565b6040516001600160e01b031960e085901b1681526001600160a01b0390921660048301526024820152604401600060405180830381600087803b15801561174457600080fd5b505af1158015611758573d6000803e3d6000fd5b505050505b6000818152600c60205260408120600601805460ff191660011790555b6000828152600c6020526040902060050154811015611891576000828152600c602052604081206005018054600b918391859081106117bb576117bb612f64565b9060005260206000200154815260200190815260200160002081905550600260019054906101000a90046001600160a01b03166001600160a01b0316636198e339600c6000858152602001908152602001600020600501838154811061182357611823612f64565b90600052602060002001546040518263ffffffff1660e01b815260040161184c91815260200190565b600060405180830381600087803b15801561186657600080fd5b505af115801561187a573d6000803e3d6000fd5b50505050808061188990612f90565b91505061177a565b505060018055565b6118a1612664565b60065481106118e25760405162461bcd60e51b815260206004820152600d60248201526c0d2dcecc2d8d2c840d2dcc8caf609b1b60448201526064016107a7565b600680546118f29060019061302b565b8154811061190257611902612f64565b90600052602060002090602091828204019190069054906101000a900460ff166006828154811061193557611935612f64565b90600052602060002090602091828204019190066101000a81548160ff021916908360ff16021790555060068054806119705761197061303e565b60019003818190600052602060002090602091828204019190066101000a81549060ff0219169055905550565b600d60205281600052604060002081815481106119b957600080fd5b90600052602060002001600091509150505481565b6119d6612664565b6119e060006126be565b565b60ff811660009081526009602090815260408083205460088352818420546007909352908320549091611a1491613001565b610a8a9190613001565b611a26612664565b60005b8151811015611b1057600060056000848481518110611a4a57611a4a612f64565b602002602001015160ff1660ff1681526020019081526020016000206001015411611aa95760405162461bcd60e51b815260206004820152600f60248201526e67616d65206e6f742065786973747360881b60448201526064016107a7565b6006828281518110611abd57611abd612f64565b6020908102919091018101518254600181018455600093845292829020918304909101805460ff928316601f9094166101000a938402929093021990921617905580611b0881612f90565b915050611a29565b5050565b611b1c612664565b600455565b60008060005b6001600160a01b0384166000908152600d6020526040902054811015611c44576001600160a01b0384166000908152600d60205260408120805483908110611b7157611b71612f64565b6000918252602080832090910154808352600c825260408084205460ff908116855260059093529092206002015491925062010000909104166003811115611bbb57611bbb612915565b6000828152600c602052604090206002015460ff166003811115611be157611be1612915565b148015611c0057506000818152600c602052604090206006015460ff16155b15611c31576004546000828152600c6020526040902060030154611c249190613014565b611c2e9084613001565b92505b5080611c3c81612f90565b915050611b27565b5092915050565b6001600160a01b0383166000908152600d60205260408120546060908284611c7460018861302b565b611c7e9190613014565b90506000611c8c8688613014565b905082821115611cd557604080516000808252602082019092528491611cc8565b611cb5612759565b815260200190600190039081611cad5790505b509450945050505061206b565b82811115611ce05750815b6000611cec838361302b565b6001600160401b03811115611d0357611d03612809565b604051908082528060200260200182016040528015611d3c57816020015b611d29612759565b815260200190600190039081611d215790505b509050825b82811015612061576001600160a01b038a166000908152600d602052604081208054600c91839185908110611d7857611d78612f64565b600091825260208083209091015483528281019390935260409182019020815160e081018352815460ff9081168252600183015494820194909452600282015490939192840191166003811115611dd157611dd1612915565b6003811115611de257611de2612915565b8152602001600382015481526020016004820160009054906101000a90046001600160a01b03166001600160a01b03166001600160a01b0316815260200160058201805480602002602001604051908101604052809291908181526020018280548015611e6e57602002820191906000526020600020905b815481526020019060010190808311611e5a575b50505091835250506006919091015460ff1615156020909101529050611e92612759565b6001600160a01b038c166000908152600d60205260409020805484908110611ebc57611ebc612f64565b600091825260208083209091015483528381015183820152835160ff908116835260058083526040808520548316818701528651831685528184528085205461010090819004841660608801528751841686528285528186206002908101548516608089015288518516875292909452938490200154919091041660a083015282015160c08201906003811115611f5557611f55612915565b90816003811115611f6857611f68612915565b905250815160ff90811660009081526005602052604090206002015460e083019162010000909104166003811115611fa257611fa2612915565b90816003811115611fb557611fb5612915565b905250606082015161010082015260e08101516003811115611fd957611fd9612915565b82604001516003811115611fef57611fef612915565b0361200d5781606001516004546120069190613014565b6101208201525b60c0820151151561014082015260a08201516101608201528084612031888661302b565b8151811061204157612041612f64565b60200260200101819052505050808061205990612f90565b915050611d41565b5092945091925050505b935093915050565b606060068054806020026020016040519081016040528092919081815260200182805480156120df57602002820191906000526020600020906000905b825461010083900a900460ff168152602060019283018181049485019490930390920291018084116120b05790505b5050505050905090565b6120f1612664565b80518451148015612103575082518451145b8015612110575081518451145b61212c5760405162461bcd60e51b81526004016107a790613054565b60005b845181101561238a5760006005600087848151811061215057612150612f64565b602002602001015160ff1660ff16815260200190815260200160002060010154116121af5760405162461bcd60e51b815260206004820152600f60248201526e67616d65206e6f742065786973747360881b60448201526064016107a7565b8281815181106121c1576121c1612f64565b6020026020010151600560008784815181106121df576121df612f64565b602002602001015160ff1660ff16815260200190815260200160002060020160016101000a81548160ff021916908360ff16021790555083818151811061222857612228612f64565b60200260200101516005600087848151811061224657612246612f64565b602002602001015160ff1660ff16815260200190815260200160002060020160006101000a81548160ff021916908360ff16021790555081818151811061228f5761228f612f64565b6020026020010151600560008784815181106122ad576122ad612f64565b60209081029190910181015160ff168252810191909152604001600020600201805462ff00001916620100008360038111156122eb576122eb612915565b0217905550600082828151811061230457612304612f64565b6020026020010151600381111561231d5761231d612915565b1461237857600685828151811061233657612336612f64565b6020908102919091018101518254600181018455600093845292829020918304909101805460ff928316601f9094166101000a93840292909302199092161790555b8061238281612f90565b91505061212f565b5050505050565b612399612664565b825184511480156123ab575081518451145b80156123b8575080518451145b6123d45760405162461bcd60e51b81526004016107a790613054565b60005b845181101561238a57602060ff168482815181106123f7576123f7612f64565b602002602001015160ff1610801561242e5750602060ff1683828151811061242157612421612f64565b602002602001015160ff16105b61244a5760405162461bcd60e51b81526004016107a790613054565b6040518060c0016040528085838151811061246757612467612f64565b602002602001015160ff16815260200184838151811061248957612489612f64565b602002602001015160ff1681526020018383815181106124ab576124ab612f64565b60200260200101518152602001600060ff168152602001600060ff168152602001600060038111156124df576124df612915565b815250600560008784815181106124f8576124f8612f64565b60209081029190910181015160ff9081168352828201939093526040918201600020845181549286015190851661ffff199384161761010091861682021782559285015160018201556060850151600282018054608088015192871694169390931794169092029290921780835560a084015191929062ff000019166201000083600381111561258a5761258a612915565b0217905550905050808061259d90612f90565b9150506123d7565b6125ad612664565b6001600160a01b0381166126125760405162461bcd60e51b815260206004820152602660248201527f4f776e61626c653a206e6577206f776e657220697320746865207a65726f206160448201526564647265737360d01b60648201526084016107a7565b61261b816126be565b50565b60025460ff16156119e05760405162461bcd60e51b815260206004820152601060248201526f14185d5cd8589b194e881c185d5cd95960821b60448201526064016107a7565b6000546001600160a01b031633146119e05760405162461bcd60e51b815260206004820181905260248201527f4f776e61626c653a2063616c6c6572206973206e6f7420746865206f776e657260448201526064016107a7565b600080546001600160a01b038381166001600160a01b0319831681178455604051919092169283917f8be0079c531659141344cd1fd0a4f28419497f9722a3daafe3b4186f6b6457e09190a35050565b828054828255906000526020600020908101928215612749579160200282015b8281111561274957825182559160200191906001019061272e565b506127559291506127bc565b5090565b6040805161018081018252600080825260208201819052918101829052606081018290526080810182905260a081018290529060c08201908152602001600081526020016000815260200160008152602001600015158152602001606081525090565b5b8082111561275557600081556001016127bd565b803560ff811681146127e257600080fd5b919050565b6000602082840312156127f957600080fd5b612802826127d1565b9392505050565b634e487b7160e01b600052604160045260246000fd5b604051601f8201601f191681016001600160401b038111828210171561284757612847612809565b604052919050565b60006001600160401b0382111561286857612868612809565b5060051b60200190565b600082601f83011261288357600080fd5b813560206128986128938361284f565b61281f565b82815260059290921b840181019181810190868411156128b757600080fd5b8286015b84811015610a83576128cc816127d1565b83529183019183016128bb565b6000602082840312156128eb57600080fd5b81356001600160401b0381111561290157600080fd5b61290d84828501612872565b949350505050565b634e487b7160e01b600052602160045260246000fd5b6004811061294957634e487b7160e01b600052602160045260246000fd5b9052565b600081518084526020808501945080840160005b8381101561297d57815187529582019590820190600101612961565b509495945050505050565b6040808252835182820181905260009190606090818501906020808901865b83811015612a0b578151805160ff9081168752848201518116858801528882015189880152878201518116888801526080808301519091169087015260a090810151906129f68188018361292b565b505060c09490940193908201906001016129a7565b50508683039087015250612a1f818761294d565b979650505050505050565b6001600160a01b038116811461261b57600080fd5b60008060408385031215612a5257600080fd5b8235612a5d81612a2a565b9150612a6b602084016127d1565b90509250929050565b602081526000612802602083018461294d565b600082601f830112612a9857600080fd5b81356020612aa86128938361284f565b82815260059290921b84018101918181019086841115612ac757600080fd5b8286015b84811015610a835780358352918301918301612acb565b8035600481106127e257600080fd5b600080600060608486031215612b0657600080fd5b612b0f846127d1565b925060208401356001600160401b03811115612b2a57600080fd5b612b3686828701612a87565b925050612b4560408501612ae2565b90509250925092565b600060208284031215612b6057600080fd5b5035919050565b60ff878116825286811660208301526040820186905284811660608301528316608082015260c08101612a1f60a083018461292b565b60ff871681526020810186905260c08101612bbb604083018761292b565b60608201949094526001600160a01b03929092166080830152151560a0909101529392505050565b60008060408385031215612bf657600080fd5b8235612c0181612a2a565b946020939093013593505050565b600060208284031215612c2157600080fd5b813561280281612a2a565b600080600060608486031215612c4157600080fd5b8335612c4c81612a2a565b95602085013595506040909401359392505050565b6000604080830185845260208281860152818651808452606093508387019150838160051b88010183890160005b83811015612d5b57605f198a840301855281518051845286810151878501528881015160ff9081168a8601528882015181168986015260808083015182169086015260a0808301519091169085015260c0808201516101809190612cf58288018261292b565b505060e080830151612d098288018261292b565b5050610100828101519086015261012080830151908601526101408083015115159086015261016091820151918501819052612d478186018361294d565b968801969450505090850190600101612c8f565b50909a9950505050505050505050565b6020808252825182820181905260009190848201906040850190845b81811015612da657835160ff1683529284019291840191600101612d87565b50909695505050505050565b60008060008060808587031215612dc857600080fd5b84356001600160401b0380821115612ddf57600080fd5b612deb88838901612872565b9550602091508187013581811115612e0257600080fd5b612e0e89828a01612872565b955050604087013581811115612e2357600080fd5b612e2f89828a01612872565b945050606087013581811115612e4457600080fd5b87019050601f81018813612e5757600080fd5b8035612e656128938261284f565b81815260059190911b8201830190838101908a831115612e8457600080fd5b928401925b82841015612ea957612e9a84612ae2565b82529284019290840190612e89565b979a9699509497505050505050565b60008060008060808587031215612ece57600080fd5b84356001600160401b0380821115612ee557600080fd5b612ef188838901612872565b95506020870135915080821115612f0757600080fd5b612f1388838901612872565b94506040870135915080821115612f2957600080fd5b612f3588838901612872565b93506060870135915080821115612f4b57600080fd5b50612f5887828801612a87565b91505092959194509250565b634e487b7160e01b600052603260045260246000fd5b634e487b7160e01b600052601160045260246000fd5b600060018201612fa257612fa2612f7a565b5060010190565b600060208284031215612fbb57600080fd5b5051919050565b600082612fdf57634e487b7160e01b600052601260045260246000fd5b500690565b600060208284031215612ff657600080fd5b815161280281612a2a565b80820180821115610a8a57610a8a612f7a565b8082028115828204841417610a8a57610a8a612f7a565b81810381811115610a8a57610a8a612f7a565b634e487b7160e01b600052603160045260246000fd5b602080825260129082015271696e76616c696420706172616d657465727360701b60408201526060019056fea264697066735822122098b94c8b94df9cec7584f3066ed288e036ef777ec48f2551c2a460082368a2b964736f6c63430008110033",
  "linkReferences": {},
  "deployedLinkReferences": {}
}