{
  "_format": "hh-sol-artifact-1",
  "contractName": "GroupNFT",
  "sourceName": "contracts/GroupNFT.sol",
  "abi": [
    {
      "inputs": [
        {
          "internalType": "string",
          "name": "name",
          "type": "string"
        },
        {
          "internalType": "string",
          "name": "symbol",
          "type": "string"
        }
      ],
      "stateMutability": "nonpayable",
      "type": "constructor"
    },
    {
      "anonymous": false,
      "inputs": [
        {
          "indexed": true,
          "internalType": "address",
          "name": "owner",
          "type": "address"
        },
        {
          "indexed": true,
          "internalType": "address",
          "name": "approved",
          "type": "address"
        },
        {
          "indexed": true,
          "internalType": "uint256",
          "name": "tokenId",
          "type": "uint256"
        }
      ],
      "name": "Approval",
      "type": "event"
    },
    {
      "anonymous": false,
      "inputs": [
        {
          "indexed": true,
          "internalType": "address",
          "name": "owner",
          "type": "address"
        },
        {
          "indexed": true,
          "internalType": "address",
          "name": "operator",
          "type": "address"
        },
        {
          "indexed": false,
          "internalType": "bool",
          "name": "approved",
          "type": "bool"
        }
      ],
      "name": "ApprovalForAll",
      "type": "event"
    },
    {
      "anonymous": false,
      "inputs": [
        {
          "indexed": true,
          "internalType": "address",
          "name": "_sender",
          "type": "address"
        },
        {
          "indexed": true,
          "internalType": "uint256",
          "name": "_tokenId",
          "type": "uint256"
        },
        {
          "indexed": true,
          "internalType": "uint256",
          "name": "_team",
          "type": "uint256"
        }
      ],
      "name": "Buy",
      "type": "event"
    },
    {
      "anonymous": false,
      "inputs": [
        {
          "indexed": true,
          "internalType": "address",
          "name": "_sender",
          "type": "address"
        },
        {
          "indexed": true,
          "internalType": "uint256",
          "name": "_tokenId",
          "type": "uint256"
        },
        {
          "indexed": true,
          "internalType": "uint256",
          "name": "_team",
          "type": "uint256"
        }
      ],
      "name": "Mint",
      "type": "event"
    },
    {
      "anonymous": false,
      "inputs": [
        {
          "indexed": true,
          "internalType": "address",
          "name": "_sender",
          "type": "address"
        },
        {
          "indexed": true,
          "internalType": "uint256",
          "name": "_tokenId",
          "type": "uint256"
        },
        {
          "indexed": true,
          "internalType": "uint256",
          "name": "_team",
          "type": "uint256"
        }
      ],
      "name": "MintByWhiteList",
      "type": "event"
    },
    {
      "anonymous": false,
      "inputs": [
        {
          "indexed": true,
          "internalType": "address",
          "name": "previousOwner",
          "type": "address"
        },
        {
          "indexed": true,
          "internalType": "address",
          "name": "newOwner",
          "type": "address"
        }
      ],
      "name": "OwnershipTransferred",
      "type": "event"
    },
    {
      "anonymous": false,
      "inputs": [
        {
          "indexed": false,
          "internalType": "address",
          "name": "account",
          "type": "address"
        }
      ],
      "name": "Paused",
      "type": "event"
    },
    {
      "anonymous": false,
      "inputs": [
        {
          "indexed": true,
          "internalType": "address",
          "name": "from",
          "type": "address"
        },
        {
          "indexed": true,
          "internalType": "address",
          "name": "to",
          "type": "address"
        },
        {
          "indexed": true,
          "internalType": "uint256",
          "name": "tokenId",
          "type": "uint256"
        }
      ],
      "name": "Transfer",
      "type": "event"
    },
    {
      "anonymous": false,
      "inputs": [
        {
          "indexed": false,
          "internalType": "address",
          "name": "account",
          "type": "address"
        }
      ],
      "name": "Unpaused",
      "type": "event"
    },
    {
      "inputs": [],
      "name": "GROUP_PREDICT_ADDRESS",
      "outputs": [
        {
          "internalType": "address",
          "name": "",
          "type": "address"
        }
      ],
      "stateMutability": "view",
      "type": "function"
    },
    {
      "inputs": [],
      "name": "MAX_PUBLIC_MINT",
      "outputs": [
        {
          "internalType": "uint256",
          "name": "",
          "type": "uint256"
        }
      ],
      "stateMutability": "view",
      "type": "function"
    },
    {
      "inputs": [],
      "name": "MAX_WHITELIST_MINT",
      "outputs": [
        {
          "internalType": "uint256",
          "name": "",
          "type": "uint256"
        }
      ],
      "stateMutability": "view",
      "type": "function"
    },
    {
      "inputs": [],
      "name": "TEAM_COUNT",
      "outputs": [
        {
          "internalType": "uint8",
          "name": "",
          "type": "uint8"
        }
      ],
      "stateMutability": "view",
      "type": "function"
    },
    {
      "inputs": [],
      "name": "WHITELIST_MINT_DURATION",
      "outputs": [
        {
          "internalType": "uint256",
          "name": "",
          "type": "uint256"
        }
      ],
      "stateMutability": "view",
      "type": "function"
    },
    {
      "inputs": [
        {
          "internalType": "uint8",
          "name": "",
          "type": "uint8"
        },
        {
          "internalType": "address",
          "name": "",
          "type": "address"
        }
      ],
      "name": "_freeCountPerPhase",
      "outputs": [
        {
          "internalType": "uint256",
          "name": "",
          "type": "uint256"
        }
      ],
      "stateMutability": "view",
      "type": "function"
    },
    {
      "inputs": [],
      "name": "_freeSupply",
      "outputs": [
        {
          "internalType": "uint256",
          "name": "",
          "type": "uint256"
        }
      ],
      "stateMutability": "view",
      "type": "function"
    },
    {
      "inputs": [],
      "name": "_freeTokenId",
      "outputs": [
        {
          "internalType": "uint256",
          "name": "",
          "type": "uint256"
        }
      ],
      "stateMutability": "view",
      "type": "function"
    },
    {
      "inputs": [],
      "name": "_freeTotalSupplyPerTeam",
      "outputs": [
        {
          "internalType": "uint256",
          "name": "",
          "type": "uint256"
        }
      ],
      "stateMutability": "view",
      "type": "function"
    },
    {
      "inputs": [],
      "name": "_phase",
      "outputs": [
        {
          "internalType": "uint8",
          "name": "",
          "type": "uint8"
        }
      ],
      "stateMutability": "view",
      "type": "function"
    },
    {
      "inputs": [],
      "name": "_price",
      "outputs": [
        {
          "internalType": "uint256",
          "name": "",
          "type": "uint256"
        }
      ],
      "stateMutability": "view",
      "type": "function"
    },
    {
      "inputs": [
        {
          "internalType": "uint8",
          "name": "",
          "type": "uint8"
        }
      ],
      "name": "_saleCount",
      "outputs": [
        {
          "internalType": "uint256",
          "name": "",
          "type": "uint256"
        }
      ],
      "stateMutability": "view",
      "type": "function"
    },
    {
      "inputs": [],
      "name": "_saleSupplyPerTeam",
      "outputs": [
        {
          "internalType": "uint256",
          "name": "",
          "type": "uint256"
        }
      ],
      "stateMutability": "view",
      "type": "function"
    },
    {
      "inputs": [],
      "name": "_startTime",
      "outputs": [
        {
          "internalType": "uint256",
          "name": "",
          "type": "uint256"
        }
      ],
      "stateMutability": "view",
      "type": "function"
    },
    {
      "inputs": [],
      "name": "_whitelistMerkleRoot",
      "outputs": [
        {
          "internalType": "bytes32",
          "name": "",
          "type": "bytes32"
        }
      ],
      "stateMutability": "view",
      "type": "function"
    },
    {
      "inputs": [
        {
          "internalType": "uint8",
          "name": "",
          "type": "uint8"
        },
        {
          "internalType": "address",
          "name": "",
          "type": "address"
        }
      ],
      "name": "_wlCountPerPhase",
      "outputs": [
        {
          "internalType": "uint256",
          "name": "",
          "type": "uint256"
        }
      ],
      "stateMutability": "view",
      "type": "function"
    },
    {
      "inputs": [
        {
          "internalType": "address",
          "name": "to",
          "type": "address"
        },
        {
          "internalType": "uint256",
          "name": "tokenId",
          "type": "uint256"
        }
      ],
      "name": "approve",
      "outputs": [],
      "stateMutability": "nonpayable",
      "type": "function"
    },
    {
      "inputs": [
        {
          "internalType": "address",
          "name": "owner",
          "type": "address"
        }
      ],
      "name": "balanceOf",
      "outputs": [
        {
          "internalType": "uint256",
          "name": "",
          "type": "uint256"
        }
      ],
      "stateMutability": "view",
      "type": "function"
    },
    {
      "inputs": [
        {
          "internalType": "uint8",
          "name": "team",
          "type": "uint8"
        }
      ],
      "name": "buy",
      "outputs": [],
      "stateMutability": "payable",
      "type": "function"
    },
    {
      "inputs": [
        {
          "internalType": "uint256",
          "name": "tokenId",
          "type": "uint256"
        }
      ],
      "name": "getApproved",
      "outputs": [
        {
          "internalType": "address",
          "name": "",
          "type": "address"
        }
      ],
      "stateMutability": "view",
      "type": "function"
    },
    {
      "inputs": [],
      "name": "getFreeLeft",
      "outputs": [
        {
          "internalType": "uint256",
          "name": "",
          "type": "uint256"
        }
      ],
      "stateMutability": "view",
      "type": "function"
    },
    {
      "inputs": [],
      "name": "getSaleInfo",
      "outputs": [
        {
          "internalType": "uint256[32]",
          "name": "list",
          "type": "uint256[32]"
        }
      ],
      "stateMutability": "view",
      "type": "function"
    },
    {
      "inputs": [
        {
          "internalType": "uint256",
          "name": "tokenId",
          "type": "uint256"
        }
      ],
      "name": "getTeam",
      "outputs": [
        {
          "internalType": "uint256",
          "name": "",
          "type": "uint256"
        }
      ],
      "stateMutability": "view",
      "type": "function"
    },
    {
      "inputs": [
        {
          "internalType": "address",
          "name": "owner",
          "type": "address"
        },
        {
          "internalType": "address",
          "name": "operator",
          "type": "address"
        }
      ],
      "name": "isApprovedForAll",
      "outputs": [
        {
          "internalType": "bool",
          "name": "",
          "type": "bool"
        }
      ],
      "stateMutability": "view",
      "type": "function"
    },
    {
      "inputs": [
        {
          "internalType": "uint256",
          "name": "tokenId",
          "type": "uint256"
        }
      ],
      "name": "lock",
      "outputs": [],
      "stateMutability": "nonpayable",
      "type": "function"
    },
    {
      "inputs": [],
      "name": "mint",
      "outputs": [],
      "stateMutability": "nonpayable",
      "type": "function"
    },
    {
      "inputs": [
        {
          "internalType": "bytes32[]",
          "name": "proof",
          "type": "bytes32[]"
        }
      ],
      "name": "mintByWhiteList",
      "outputs": [],
      "stateMutability": "nonpayable",
      "type": "function"
    },
    {
      "inputs": [],
      "name": "name",
      "outputs": [
        {
          "internalType": "string",
          "name": "",
          "type": "string"
        }
      ],
      "stateMutability": "view",
      "type": "function"
    },
    {
      "inputs": [],
      "name": "owner",
      "outputs": [
        {
          "internalType": "address",
          "name": "",
          "type": "address"
        }
      ],
      "stateMutability": "view",
      "type": "function"
    },
    {
      "inputs": [
        {
          "internalType": "uint256",
          "name": "tokenId",
          "type": "uint256"
        }
      ],
      "name": "ownerOf",
      "outputs": [
        {
          "internalType": "address",
          "name": "",
          "type": "address"
        }
      ],
      "stateMutability": "view",
      "type": "function"
    },
    {
      "inputs": [],
      "name": "paused",
      "outputs": [
        {
          "internalType": "bool",
          "name": "",
          "type": "bool"
        }
      ],
      "stateMutability": "view",
      "type": "function"
    },
    {
      "inputs": [],
      "name": "renounceOwnership",
      "outputs": [],
      "stateMutability": "nonpayable",
      "type": "function"
    },
    {
      "inputs": [
        {
          "internalType": "address",
          "name": "from",
          "type": "address"
        },
        {
          "internalType": "address",
          "name": "to",
          "type": "address"
        },
        {
          "internalType": "uint256",
          "name": "tokenId",
          "type": "uint256"
        }
      ],
      "name": "safeTransferFrom",
      "outputs": [],
      "stateMutability": "nonpayable",
      "type": "function"
    },
    {
      "inputs": [
        {
          "internalType": "address",
          "name": "from",
          "type": "address"
        },
        {
          "internalType": "address",
          "name": "to",
          "type": "address"
        },
        {
          "internalType": "uint256",
          "name": "tokenId",
          "type": "uint256"
        },
        {
          "internalType": "bytes",
          "name": "data",
          "type": "bytes"
        }
      ],
      "name": "safeTransferFrom",
      "outputs": [],
      "stateMutability": "nonpayable",
      "type": "function"
    },
    {
      "inputs": [
        {
          "internalType": "address",
          "name": "operator",
          "type": "address"
        },
        {
          "internalType": "bool",
          "name": "approved",
          "type": "bool"
        }
      ],
      "name": "setApprovalForAll",
      "outputs": [],
      "stateMutability": "nonpayable",
      "type": "function"
    },
    {
      "inputs": [
        {
          "internalType": "string",
          "name": "metadataURI",
          "type": "string"
        }
      ],
      "name": "setMetadataURI",
      "outputs": [],
      "stateMutability": "nonpayable",
      "type": "function"
    },
    {
      "inputs": [
        {
          "internalType": "uint8",
          "name": "phase",
          "type": "uint8"
        },
        {
          "internalType": "uint256",
          "name": "startTime",
          "type": "uint256"
        },
        {
          "internalType": "uint256",
          "name": "supplyPerTeam",
          "type": "uint256"
        },
        {
          "internalType": "bytes32",
          "name": "whitelistMerkleRoot",
          "type": "bytes32"
        }
      ],
      "name": "setPhase",
      "outputs": [],
      "stateMutability": "nonpayable",
      "type": "function"
    },
    {
      "inputs": [
        {
          "internalType": "address",
          "name": "addr",
          "type": "address"
        }
      ],
      "name": "setPredictContractAddress",
      "outputs": [],
      "stateMutability": "nonpayable",
      "type": "function"
    },
    {
      "inputs": [
        {
          "internalType": "uint256",
          "name": "supply",
          "type": "uint256"
        }
      ],
      "name": "setSaleSupplyPerTeam",
      "outputs": [],
      "stateMutability": "nonpayable",
      "type": "function"
    },
    {
      "inputs": [
        {
          "internalType": "bytes4",
          "name": "interfaceId",
          "type": "bytes4"
        }
      ],
      "name": "supportsInterface",
      "outputs": [
        {
          "internalType": "bool",
          "name": "",
          "type": "bool"
        }
      ],
      "stateMutability": "view",
      "type": "function"
    },
    {
      "inputs": [],
      "name": "symbol",
      "outputs": [
        {
          "internalType": "string",
          "name": "",
          "type": "string"
        }
      ],
      "stateMutability": "view",
      "type": "function"
    },
    {
      "inputs": [
        {
          "internalType": "uint256",
          "name": "index",
          "type": "uint256"
        }
      ],
      "name": "tokenByIndex",
      "outputs": [
        {
          "internalType": "uint256",
          "name": "",
          "type": "uint256"
        }
      ],
      "stateMutability": "view",
      "type": "function"
    },
    {
      "inputs": [
        {
          "internalType": "address",
          "name": "owner",
          "type": "address"
        },
        {
          "internalType": "uint256",
          "name": "index",
          "type": "uint256"
        }
      ],
      "name": "tokenOfOwnerByIndex",
      "outputs": [
        {
          "internalType": "uint256",
          "name": "",
          "type": "uint256"
        }
      ],
      "stateMutability": "view",
      "type": "function"
    },
    {
      "inputs": [
        {
          "internalType": "uint256",
          "name": "tokenId",
          "type": "uint256"
        }
      ],
      "name": "tokenURI",
      "outputs": [
        {
          "internalType": "string",
          "name": "",
          "type": "string"
        }
      ],
      "stateMutability": "view",
      "type": "function"
    },
    {
      "inputs": [],
      "name": "totalSupply",
      "outputs": [
        {
          "internalType": "uint256",
          "name": "",
          "type": "uint256"
        }
      ],
      "stateMutability": "view",
      "type": "function"
    },
    {
      "inputs": [
        {
          "internalType": "address",
          "name": "from",
          "type": "address"
        },
        {
          "internalType": "address",
          "name": "to",
          "type": "address"
        },
        {
          "internalType": "uint256",
          "name": "tokenId",
          "type": "uint256"
        }
      ],
      "name": "transferFrom",
      "outputs": [],
      "stateMutability": "nonpayable",
      "type": "function"
    },
    {
      "inputs": [
        {
          "internalType": "address",
          "name": "newOwner",
          "type": "address"
        }
      ],
      "name": "transferOwnership",
      "outputs": [],
      "stateMutability": "nonpayable",
      "type": "function"
    },
    {
      "inputs": [
        {
          "internalType": "uint256",
          "name": "tokenId",
          "type": "uint256"
        }
      ],
      "name": "unlock",
      "outputs": [],
      "stateMutability": "nonpayable",
      "type": "function"
    },
    {
      "inputs": [],
      "name": "withdraw",
      "outputs": [],
      "stateMutability": "nonpayable",
      "type": "function"
    }
  ],
  "bytecode": "0x6080604052643affdac47f600d5566b1a2bc2ec50000600e55601e600f556103c06012553480156200003057600080fd5b50604051620059593803806200595983398181016040528101906200005691906200032a565b81818160009081620000699190620005fa565b5080600190816200007b9190620005fa565b5050506200009e62000092620000c960201b60201c565b620000d160201b60201c565b6001600b819055506000600c60006101000a81548160ff0219169083151502179055505050620006e1565b600033905090565b6000600a60009054906101000a900473ffffffffffffffffffffffffffffffffffffffff16905081600a60006101000a81548173ffffffffffffffffffffffffffffffffffffffff021916908373ffffffffffffffffffffffffffffffffffffffff1602179055508173ffffffffffffffffffffffffffffffffffffffff168173ffffffffffffffffffffffffffffffffffffffff167f8be0079c531659141344cd1fd0a4f28419497f9722a3daafe3b4186f6b6457e060405160405180910390a35050565b6000604051905090565b600080fd5b600080fd5b600080fd5b600080fd5b6000601f19601f8301169050919050565b7f4e487b7100000000000000000000000000000000000000000000000000000000600052604160045260246000fd5b6200020082620001b5565b810181811067ffffffffffffffff82111715620002225762000221620001c6565b5b80604052505050565b60006200023762000197565b9050620002458282620001f5565b919050565b600067ffffffffffffffff821115620002685762000267620001c6565b5b6200027382620001b5565b9050602081019050919050565b60005b83811015620002a057808201518184015260208101905062000283565b60008484015250505050565b6000620002c3620002bd846200024a565b6200022b565b905082815260208101848484011115620002e257620002e1620001b0565b5b620002ef84828562000280565b509392505050565b600082601f8301126200030f576200030e620001ab565b5b815162000321848260208601620002ac565b91505092915050565b60008060408385031215620003445762000343620001a1565b5b600083015167ffffffffffffffff811115620003655762000364620001a6565b5b6200037385828601620002f7565b925050602083015167ffffffffffffffff811115620003975762000396620001a6565b5b620003a585828601620002f7565b9150509250929050565b600081519050919050565b7f4e487b7100000000000000000000000000000000000000000000000000000000600052602260045260246000fd5b600060028204905060018216806200040257607f821691505b602082108103620004185762000417620003ba565b5b50919050565b60008190508160005260206000209050919050565b60006020601f8301049050919050565b600082821b905092915050565b600060088302620004827fffffffffffffffffffffffffffffffffffffffffffffffffffffffffffffffff8262000443565b6200048e868362000443565b95508019841693508086168417925050509392505050565b6000819050919050565b6000819050919050565b6000620004db620004d5620004cf84620004a6565b620004b0565b620004a6565b9050919050565b6000819050919050565b620004f783620004ba565b6200050f6200050682620004e2565b84845462000450565b825550505050565b600090565b6200052662000517565b62000533818484620004ec565b505050565b5b818110156200055b576200054f6000826200051c565b60018101905062000539565b5050565b601f821115620005aa5762000574816200041e565b6200057f8462000433565b810160208510156200058f578190505b620005a76200059e8562000433565b83018262000538565b50505b505050565b600082821c905092915050565b6000620005cf60001984600802620005af565b1980831691505092915050565b6000620005ea8383620005bc565b9150826002028217905092915050565b6200060582620003af565b67ffffffffffffffff811115620006215762000620620001c6565b5b6200062d8254620003e9565b6200063a8282856200055f565b600060209050601f8311600181146200067257600084156200065d578287015190505b620006698582620005dc565b865550620006d9565b601f19841662000682866200041e565b60005b82811015620006ac5784890151825560018201915060208501945060208101905062000685565b86831015620006cc5784890151620006c8601f891682620005bc565b8355505b6001600288020188555050505b505050505050565b61526880620006f16000396000f3fe6080604052600436106102ad5760003560e01c8063715018a611610175578063a22cb465116100dc578063d0f359a111610095578063e40c5d971161006f578063e40c5d9714610aa6578063e985e9c514610acf578063f2fde38b14610b0c578063fa1acb5c14610b35576102ad565b8063d0f359a114610a29578063db83694c14610a52578063dd46706414610a7d576102ad565b8063a22cb46514610919578063b88d4fde14610942578063c08dfd3c1461096b578063c0c0ea3b14610996578063c87b56dd146109c1578063cfa08f7c146109fe576102ad565b80637f8c353e1161012e5780637f8c353e146108055780638c287475146108305780638da5cb5b1461086d57806395d89b411461089857806397301059146108c3578063a0b30390146108ee576102ad565b8063715018a6146107095780637155e1cc14610720578063750521f51461074957806377a605d91461077257806379340a4e1461079d5780637d52b301146107da576102ad565b80632f745c591161021957806356fde6ae116101d257806356fde6ae146105e75780635c975abb146106105780636198e3391461063b5780636352211e1461066457806365f13097146106a157806370a08231146106cc576102ad565b80632f745c59146104d757806332e32ae2146105145780633a7809381461053f5780633ccfd60b1461056a57806342842e0e146105815780634f6ccce7146105aa576102ad565b806314107f3c1161026b57806314107f3c146103d457806314eedf22146103f057806318160ddd1461042d578063235b6ea11461045857806323b872dd14610483578063263df1d1146104ac576102ad565b80628e0f1b146102b257806301ffc9a7146102ef57806306fdde031461032c578063081812fc14610357578063095ea7b3146103945780631249c58b146103bd575b600080fd5b3480156102be57600080fd5b506102d960048036038101906102d4919061332c565b610b60565b6040516102e69190613368565b60405180910390f35b3480156102fb57600080fd5b50610316600480360381019061031191906133db565b610b82565b6040516103239190613423565b60405180910390f35b34801561033857600080fd5b50610341610bfc565b60405161034e91906134ce565b60405180910390f35b34801561036357600080fd5b5061037e6004803603810190610379919061332c565b610c8e565b60405161038b9190613531565b60405180910390f35b3480156103a057600080fd5b506103bb60048036038101906103b69190613578565b610cd4565b005b3480156103c957600080fd5b506103d2610deb565b005b6103ee60048036038101906103e991906135f1565b61111a565b005b3480156103fc57600080fd5b506104176004803603810190610412919061361e565b611390565b6040516104249190613368565b60405180910390f35b34801561043957600080fd5b506104426113b5565b60405161044f9190613368565b60405180910390f35b34801561046457600080fd5b5061046d6113c2565b60405161047a9190613368565b60405180910390f35b34801561048f57600080fd5b506104aa60048036038101906104a5919061365e565b6113c8565b005b3480156104b857600080fd5b506104c1611428565b6040516104ce91906136c0565b60405180910390f35b3480156104e357600080fd5b506104fe60048036038101906104f99190613578565b61142d565b60405161050b9190613368565b60405180910390f35b34801561052057600080fd5b506105296114d2565b6040516105369190613368565b60405180910390f35b34801561054b57600080fd5b506105546114d8565b6040516105619190613368565b60405180910390f35b34801561057657600080fd5b5061057f6114de565b005b34801561058d57600080fd5b506105a860048036038101906105a3919061365e565b611595565b005b3480156105b657600080fd5b506105d160048036038101906105cc919061332c565b6115b5565b6040516105de9190613368565b60405180910390f35b3480156105f357600080fd5b5061060e60048036038101906106099190613740565b611626565b005b34801561061c57600080fd5b506106256119e5565b6040516106329190613423565b60405180910390f35b34801561064757600080fd5b50610662600480360381019061065d919061332c565b6119fc565b005b34801561067057600080fd5b5061068b6004803603810190610686919061332c565b611b58565b6040516106989190613531565b60405180910390f35b3480156106ad57600080fd5b506106b6611c09565b6040516106c39190613368565b60405180910390f35b3480156106d857600080fd5b506106f360048036038101906106ee919061378d565b611c0e565b6040516107009190613368565b60405180910390f35b34801561071557600080fd5b5061071e611cc5565b005b34801561072c57600080fd5b50610747600480360381019061074291906137f0565b611cd9565b005b34801561075557600080fd5b50610770600480360381019061076b9190613987565b611d24565b005b34801561077e57600080fd5b50610787611d3f565b6040516107949190613368565b60405180910390f35b3480156107a957600080fd5b506107c460048036038101906107bf91906135f1565b611d45565b6040516107d19190613368565b60405180910390f35b3480156107e657600080fd5b506107ef611d5d565b6040516107fc9190613368565b60405180910390f35b34801561081157600080fd5b5061081a611d83565b6040516108279190613531565b60405180910390f35b34801561083c57600080fd5b506108576004803603810190610852919061361e565b611da9565b6040516108649190613368565b60405180910390f35b34801561087957600080fd5b50610882611dce565b60405161088f9190613531565b60405180910390f35b3480156108a457600080fd5b506108ad611df8565b6040516108ba91906134ce565b60405180910390f35b3480156108cf57600080fd5b506108d8611e8a565b6040516108e591906136c0565b60405180910390f35b3480156108fa57600080fd5b50610903611e9d565b60405161091091906139df565b60405180910390f35b34801561092557600080fd5b50610940600480360381019061093b9190613a26565b611ea3565b005b34801561094e57600080fd5b5061096960048036038101906109649190613b07565b611eb9565b005b34801561097757600080fd5b50610980611f1b565b60405161098d9190613368565b60405180910390f35b3480156109a257600080fd5b506109ab611f20565b6040516109b89190613368565b60405180910390f35b3480156109cd57600080fd5b506109e860048036038101906109e3919061332c565b611f26565b6040516109f591906134ce565b60405180910390f35b348015610a0a57600080fd5b50610a13611f63565b604051610a209190613368565b60405180910390f35b348015610a3557600080fd5b50610a506004803603810190610a4b919061378d565b611f69565b005b348015610a5e57600080fd5b50610a67611fb5565b604051610a749190613c35565b60405180910390f35b348015610a8957600080fd5b50610aa46004803603810190610a9f919061332c565b61202c565b005b348015610ab257600080fd5b50610acd6004803603810190610ac8919061332c565b612189565b005b348015610adb57600080fd5b50610af66004803603810190610af19190613c51565b61219b565b604051610b039190613423565b60405180910390f35b348015610b1857600080fd5b50610b336004803603810190610b2e919061378d565b61222f565b005b348015610b4157600080fd5b50610b4a6122b2565b604051610b579190613368565b60405180910390f35b6000610b6b826122b8565b602060ff1682610b7b9190613cc0565b9050919050565b60007f780e9d63000000000000000000000000000000000000000000000000000000007bffffffffffffffffffffffffffffffffffffffffffffffffffffffff1916827bffffffffffffffffffffffffffffffffffffffffffffffffffffffff19161480610bf55750610bf482612303565b5b9050919050565b606060008054610c0b90613d20565b80601f0160208091040260200160405190810160405280929190818152602001828054610c3790613d20565b8015610c845780601f10610c5957610100808354040283529160200191610c84565b820191906000526020600020905b815481529060010190602001808311610c6757829003601f168201915b5050505050905090565b6000610c99826122b8565b6004600083815260200190815260200160002060009054906101000a900473ffffffffffffffffffffffffffffffffffffffff169050919050565b6000610cdf82611b58565b90508073ffffffffffffffffffffffffffffffffffffffff168373ffffffffffffffffffffffffffffffffffffffff1603610d4f576040517f08c379a0000000000000000000000000000000000000000000000000000000008152600401610d4690613dc3565b60405180910390fd5b8073ffffffffffffffffffffffffffffffffffffffff16610d6e6123e5565b73ffffffffffffffffffffffffffffffffffffffff161480610d9d5750610d9c81610d976123e5565b61219b565b5b610ddc576040517f08c379a0000000000000000000000000000000000000000000000000000000008152600401610dd390613e55565b60405180910390fd5b610de683836123ed565b505050565b6002600b5403610e30576040517f08c379a0000000000000000000000000000000000000000000000000000000008152600401610e2790613ec1565b60405180910390fd5b6002600b81905550610e406124a6565b3273ffffffffffffffffffffffffffffffffffffffff163373ffffffffffffffffffffffffffffffffffffffff1614610eae576040517f08c379a0000000000000000000000000000000000000000000000000000000008152600401610ea590613f2d565b60405180910390fd5b610e10600d54610ebe9190613f7c565b421015610f00576040517f08c379a0000000000000000000000000000000000000000000000000000000008152600401610ef790613ffc565b60405180910390fd5b602060ff16601154610f12919061401c565b6010541115610f56576040517f08c379a0000000000000000000000000000000000000000000000000000000008152600401610f4d906140aa565b60405180910390fd5b600a60156000600c60019054906101000a900460ff1660ff1660ff16815260200190815260200160002060003373ffffffffffffffffffffffffffffffffffffffff1673ffffffffffffffffffffffffffffffffffffffff1681526020019081526020016000205410610ffe576040517f08c379a0000000000000000000000000000000000000000000000000000000008152600401610ff590614116565b60405180910390fd5b6010600081548092919061101190614136565b919050555060156000600c60019054906101000a900460ff1660ff1660ff16815260200190815260200160002060003373ffffffffffffffffffffffffffffffffffffffff1673ffffffffffffffffffffffffffffffffffffffff168152602001908152602001600020600081548092919061108c90614136565b919050555061109d336012546124f0565b602060ff166012546110af9190613cc0565b60ff166012543373ffffffffffffffffffffffffffffffffffffffff167f4c209b5fc8ad50758f13e2e1088ba56a560dff690a1c6fef26394f4c03821c4f60405160405180910390a46012600081548092919061110b90614136565b91905055506001600b81905550565b6002600b540361115f576040517f08c379a000000000000000000000000000000000000000000000000000000000815260040161115690613ec1565b60405180910390fd5b6002600b8190555061116f6124a6565b3273ffffffffffffffffffffffffffffffffffffffff163373ffffffffffffffffffffffffffffffffffffffff16146111dd576040517f08c379a00000000000000000000000000000000000000000000000000000000081526004016111d490613f2d565b60405180910390fd5b602060ff168160ff1610611226576040517f08c379a000000000000000000000000000000000000000000000000000000000815260040161121d906141ca565b60405180910390fd5b600f54601360008360ff1660ff168152602001908152602001600020541115611284576040517f08c379a000000000000000000000000000000000000000000000000000000000815260040161127b906140aa565b60405180910390fd5b600e5434146112c8576040517f08c379a00000000000000000000000000000000000000000000000000000000081526004016112bf90614236565b60405180910390fd5b6000602060ff16601360008460ff1660ff168152602001908152602001600020546112f3919061401c565b8260ff166113019190613f7c565b9050601360008360ff1660ff168152602001908152602001600020600081548092919061132d90614136565b919050555061133c33826124f0565b8160ff16813373ffffffffffffffffffffffffffffffffffffffff167f1cbc5ab135991bd2b6a4b034a04aa2aa086dac1371cb9b16b8b5e2ed6b036bed60405160405180910390a4506001600b8190555050565b6015602052816000526040600020602052806000526040600020600091509150505481565b6000600880549050905090565b600e5481565b6113d96113d36123e5565b8261250e565b611418576040517f08c379a000000000000000000000000000000000000000000000000000000000815260040161140f906142c8565b60405180910390fd5b6114238383836125a3565b505050565b602081565b600061143883611c0e565b8210611479576040517f08c379a00000000000000000000000000000000000000000000000000000000081526004016114709061435a565b60405180910390fd5b600660008473ffffffffffffffffffffffffffffffffffffffff1673ffffffffffffffffffffffffffffffffffffffff168152602001908152602001600020600083815260200190815260200160002054905092915050565b60115481565b60105481565b6114e6612809565b60003373ffffffffffffffffffffffffffffffffffffffff164760405161150c906143ab565b60006040518083038185875af1925050503d8060008114611549576040519150601f19603f3d011682016040523d82523d6000602084013e61154e565b606091505b5050905080611592576040517f08c379a00000000000000000000000000000000000000000000000000000000081526004016115899061440c565b60405180910390fd5b50565b6115b083838360405180602001604052806000815250611eb9565b505050565b60006115bf6113b5565b8210611600576040517f08c379a00000000000000000000000000000000000000000000000000000000081526004016115f79061449e565b60405180910390fd5b60088281548110611614576116136144be565b5b90600052602060002001549050919050565b6002600b540361166b576040517f08c379a000000000000000000000000000000000000000000000000000000000815260040161166290613ec1565b60405180910390fd5b6002600b8190555061167b6124a6565b3273ffffffffffffffffffffffffffffffffffffffff163373ffffffffffffffffffffffffffffffffffffffff16146116e9576040517f08c379a00000000000000000000000000000000000000000000000000000000081526004016116e090613f2d565b60405180910390fd5b600d5442101561172e576040517f08c379a000000000000000000000000000000000000000000000000000000000815260040161172590613ffc565b60405180910390fd5b602060ff16601154611740919061401c565b6010541115611784576040517f08c379a000000000000000000000000000000000000000000000000000000000815260040161177b906140aa565b60405180910390fd5b600360166000600c60019054906101000a900460ff1660ff1660ff16815260200190815260200160002060003373ffffffffffffffffffffffffffffffffffffffff1673ffffffffffffffffffffffffffffffffffffffff168152602001908152602001600020541061182c576040517f08c379a000000000000000000000000000000000000000000000000000000000815260040161182390614539565b60405180910390fd5b600061183733612887565b905061188760145482858580806020026020016040519081016040528093929190818152602001838360200280828437600081840152601f19601f820116905080830192505050505050506128b7565b6118c6576040517f08c379a00000000000000000000000000000000000000000000000000000000081526004016118bd906145a5565b60405180910390fd5b601060008154809291906118d990614136565b919050555060166000600c60019054906101000a900460ff1660ff1660ff16815260200190815260200160002060003373ffffffffffffffffffffffffffffffffffffffff1673ffffffffffffffffffffffffffffffffffffffff168152602001908152602001600020600081548092919061195490614136565b9190505550611965336012546124f0565b602060ff166012546119779190613cc0565b60ff166012543373ffffffffffffffffffffffffffffffffffffffff167f05b3423d4a1222ae84b0faa0c24a27a29ed0d9dfeda378324947c98213e6797e60405160405180910390a4601260008154809291906119d390614136565b9190505550506001600b819055505050565b6000600c60009054906101000a900460ff16905090565b611a04611dce565b73ffffffffffffffffffffffffffffffffffffffff163373ffffffffffffffffffffffffffffffffffffffff161480611a8a5750601860009054906101000a900473ffffffffffffffffffffffffffffffffffffffff1673ffffffffffffffffffffffffffffffffffffffff163373ffffffffffffffffffffffffffffffffffffffff16145b611ac9576040517f08c379a0000000000000000000000000000000000000000000000000000000008152600401611ac090614637565b60405180910390fd5b6017600082815260200190815260200160002060009054906101000a900460ff16611b29576040517f08c379a0000000000000000000000000000000000000000000000000000000008152600401611b20906146a3565b60405180910390fd5b60006017600083815260200190815260200160002060006101000a81548160ff02191690831515021790555050565b6000806002600084815260200190815260200160002060009054906101000a900473ffffffffffffffffffffffffffffffffffffffff169050600073ffffffffffffffffffffffffffffffffffffffff168173ffffffffffffffffffffffffffffffffffffffff1603611c00576040517f08c379a0000000000000000000000000000000000000000000000000000000008152600401611bf79061470f565b60405180910390fd5b80915050919050565b600a81565b60008073ffffffffffffffffffffffffffffffffffffffff168273ffffffffffffffffffffffffffffffffffffffff1603611c7e576040517f08c379a0000000000000000000000000000000000000000000000000000000008152600401611c75906147a1565b60405180910390fd5b600360008373ffffffffffffffffffffffffffffffffffffffff1673ffffffffffffffffffffffffffffffffffffffff168152602001908152602001600020549050919050565b611ccd612809565b611cd760006128cd565b565b611ce1612809565b83600c60016101000a81548160ff021916908360ff16021790555082600d8190555081601154611d119190613f7c565b6011819055508060148190555050505050565b611d2c612809565b8060199081611d3b919061496d565b5050565b610e1081565b60136020528060005260406000206000915090505481565b6000601054602060ff16601154611d74919061401c565b611d7e9190614a3f565b905090565b601860009054906101000a900473ffffffffffffffffffffffffffffffffffffffff1681565b6016602052816000526040600020602052806000526040600020600091509150505481565b6000600a60009054906101000a900473ffffffffffffffffffffffffffffffffffffffff16905090565b606060018054611e0790613d20565b80601f0160208091040260200160405190810160405280929190818152602001828054611e3390613d20565b8015611e805780601f10611e5557610100808354040283529160200191611e80565b820191906000526020600020905b815481529060010190602001808311611e6357829003601f168201915b5050505050905090565b600c60019054906101000a900460ff1681565b60145481565b611eb5611eae6123e5565b8383612993565b5050565b611eca611ec46123e5565b8361250e565b611f09576040517f08c379a0000000000000000000000000000000000000000000000000000000008152600401611f00906142c8565b60405180910390fd5b611f1584848484612aff565b50505050565b600381565b60125481565b6060611f31826122b8565b6019611f3c83612b5b565b604051602001611f4d929190614b32565b6040516020818303038152906040529050919050565b600f5481565b611f71612809565b80601860006101000a81548173ffffffffffffffffffffffffffffffffffffffff021916908373ffffffffffffffffffffffffffffffffffffffff16021790555050565b611fbd6132bf565b60005b602060ff168160ff16101561202857601360008260ff1660ff16815260200190815260200160002054600f54611ff69190614a3f565b828260ff166020811061200c5761200b6144be565b5b602002018181525050808061202090614b56565b915050611fc0565b5090565b612034611dce565b73ffffffffffffffffffffffffffffffffffffffff163373ffffffffffffffffffffffffffffffffffffffff1614806120ba5750601860009054906101000a900473ffffffffffffffffffffffffffffffffffffffff1673ffffffffffffffffffffffffffffffffffffffff163373ffffffffffffffffffffffffffffffffffffffff16145b6120f9576040517f08c379a00000000000000000000000000000000000000000000000000000000081526004016120f090614637565b60405180910390fd5b6017600082815260200190815260200160002060009054906101000a900460ff161561215a576040517f08c379a000000000000000000000000000000000000000000000000000000000815260040161215190614bcb565b60405180910390fd5b60016017600083815260200190815260200160002060006101000a81548160ff02191690831515021790555050565b612191612809565b80600f8190555050565b6000600560008473ffffffffffffffffffffffffffffffffffffffff1673ffffffffffffffffffffffffffffffffffffffff16815260200190815260200160002060008373ffffffffffffffffffffffffffffffffffffffff1673ffffffffffffffffffffffffffffffffffffffff16815260200190815260200160002060009054906101000a900460ff16905092915050565b612237612809565b600073ffffffffffffffffffffffffffffffffffffffff168173ffffffffffffffffffffffffffffffffffffffff16036122a6576040517f08c379a000000000000000000000000000000000000000000000000000000000815260040161229d90614c5d565b60405180910390fd5b6122af816128cd565b50565b600d5481565b6122c181612cbb565b612300576040517f08c379a00000000000000000000000000000000000000000000000000000000081526004016122f79061470f565b60405180910390fd5b50565b60007f80ac58cd000000000000000000000000000000000000000000000000000000007bffffffffffffffffffffffffffffffffffffffffffffffffffffffff1916827bffffffffffffffffffffffffffffffffffffffffffffffffffffffff191614806123ce57507f5b5e139f000000000000000000000000000000000000000000000000000000007bffffffffffffffffffffffffffffffffffffffffffffffffffffffff1916827bffffffffffffffffffffffffffffffffffffffffffffffffffffffff1916145b806123de57506123dd82612d27565b5b9050919050565b600033905090565b816004600083815260200190815260200160002060006101000a81548173ffffffffffffffffffffffffffffffffffffffff021916908373ffffffffffffffffffffffffffffffffffffffff160217905550808273ffffffffffffffffffffffffffffffffffffffff1661246083611b58565b73ffffffffffffffffffffffffffffffffffffffff167f8c5be1e5ebec7d5bd14f71427d1e84f3dd0314c0f7b2291e5b200ac8c7c3b92560405160405180910390a45050565b6124ae6119e5565b156124ee576040517f08c379a00000000000000000000000000000000000000000000000000000000081526004016124e590614cc9565b60405180910390fd5b565b61250a828260405180602001604052806000815250612d91565b5050565b60008061251a83611b58565b90508073ffffffffffffffffffffffffffffffffffffffff168473ffffffffffffffffffffffffffffffffffffffff16148061255c575061255b818561219b565b5b8061259a57508373ffffffffffffffffffffffffffffffffffffffff1661258284610c8e565b73ffffffffffffffffffffffffffffffffffffffff16145b91505092915050565b8273ffffffffffffffffffffffffffffffffffffffff166125c382611b58565b73ffffffffffffffffffffffffffffffffffffffff1614612619576040517f08c379a000000000000000000000000000000000000000000000000000000000815260040161261090614d5b565b60405180910390fd5b600073ffffffffffffffffffffffffffffffffffffffff168273ffffffffffffffffffffffffffffffffffffffff1603612688576040517f08c379a000000000000000000000000000000000000000000000000000000000815260040161267f90614ded565b60405180910390fd5b612693838383612dec565b61269e6000826123ed565b6001600360008573ffffffffffffffffffffffffffffffffffffffff1673ffffffffffffffffffffffffffffffffffffffff16815260200190815260200160002060008282546126ee9190614a3f565b925050819055506001600360008473ffffffffffffffffffffffffffffffffffffffff1673ffffffffffffffffffffffffffffffffffffffff16815260200190815260200160002060008282546127459190613f7c565b92505081905550816002600083815260200190815260200160002060006101000a81548173ffffffffffffffffffffffffffffffffffffffff021916908373ffffffffffffffffffffffffffffffffffffffff160217905550808273ffffffffffffffffffffffffffffffffffffffff168473ffffffffffffffffffffffffffffffffffffffff167fddf252ad1be2c89b69c2b068fc378daa952ba7f163c4a11628f55a4df523b3ef60405160405180910390a4612804838383612e88565b505050565b6128116123e5565b73ffffffffffffffffffffffffffffffffffffffff1661282f611dce565b73ffffffffffffffffffffffffffffffffffffffff1614612885576040517f08c379a000000000000000000000000000000000000000000000000000000000815260040161287c90614e59565b60405180910390fd5b565b60008160405160200161289a9190614ec1565b604051602081830303815290604052805190602001209050919050565b60006128c4828585612e8d565b90509392505050565b6000600a60009054906101000a900473ffffffffffffffffffffffffffffffffffffffff16905081600a60006101000a81548173ffffffffffffffffffffffffffffffffffffffff021916908373ffffffffffffffffffffffffffffffffffffffff1602179055508173ffffffffffffffffffffffffffffffffffffffff168173ffffffffffffffffffffffffffffffffffffffff167f8be0079c531659141344cd1fd0a4f28419497f9722a3daafe3b4186f6b6457e060405160405180910390a35050565b8173ffffffffffffffffffffffffffffffffffffffff168373ffffffffffffffffffffffffffffffffffffffff1603612a01576040517f08c379a00000000000000000000000000000000000000000000000000000000081526004016129f890614f28565b60405180910390fd5b80600560008573ffffffffffffffffffffffffffffffffffffffff1673ffffffffffffffffffffffffffffffffffffffff16815260200190815260200160002060008473ffffffffffffffffffffffffffffffffffffffff1673ffffffffffffffffffffffffffffffffffffffff16815260200190815260200160002060006101000a81548160ff0219169083151502179055508173ffffffffffffffffffffffffffffffffffffffff168373ffffffffffffffffffffffffffffffffffffffff167f17307eab39ab6107e8899845ad3d59bd9653f200f220920489ca2b5937696c3183604051612af29190613423565b60405180910390a3505050565b612b0a8484846125a3565b612b1684848484612ea4565b612b55576040517f08c379a0000000000000000000000000000000000000000000000000000000008152600401612b4c90614fba565b60405180910390fd5b50505050565b606060008203612ba2576040518060400160405280600181526020017f30000000000000000000000000000000000000000000000000000000000000008152509050612cb6565b600082905060005b60008214612bd4578080612bbd90614136565b915050600a82612bcd9190614fda565b9150612baa565b60008167ffffffffffffffff811115612bf057612bef61385c565b5b6040519080825280601f01601f191660200182016040528015612c225781602001600182028036833780820191505090505b5090505b60008514612caf57600182612c3b9190614a3f565b9150600a85612c4a9190613cc0565b6030612c569190613f7c565b60f81b818381518110612c6c57612c6b6144be565b5b60200101907effffffffffffffffffffffffffffffffffffffffffffffffffffffffffffff1916908160001a905350600a85612ca89190614fda565b9450612c26565b8093505050505b919050565b60008073ffffffffffffffffffffffffffffffffffffffff166002600084815260200190815260200160002060009054906101000a900473ffffffffffffffffffffffffffffffffffffffff1673ffffffffffffffffffffffffffffffffffffffff1614159050919050565b60007f01ffc9a7000000000000000000000000000000000000000000000000000000007bffffffffffffffffffffffffffffffffffffffffffffffffffffffff1916827bffffffffffffffffffffffffffffffffffffffffffffffffffffffff1916149050919050565b612d9b838361302b565b612da86000848484612ea4565b612de7576040517f08c379a0000000000000000000000000000000000000000000000000000000008152600401612dde90614fba565b60405180910390fd5b505050565b600073ffffffffffffffffffffffffffffffffffffffff168373ffffffffffffffffffffffffffffffffffffffff160315612e83576017600082815260200190815260200160002060009054906101000a900460ff1615612e82576040517f08c379a0000000000000000000000000000000000000000000000000000000008152600401612e7990615057565b60405180910390fd5b5b505050565b505050565b600082612e9a8584613204565b1490509392505050565b6000612ec58473ffffffffffffffffffffffffffffffffffffffff1661325a565b1561301e578373ffffffffffffffffffffffffffffffffffffffff1663150b7a02612eee6123e5565b8786866040518563ffffffff1660e01b8152600401612f1094939291906150cc565b6020604051808303816000875af1925050508015612f4c57506040513d601f19601f82011682018060405250810190612f49919061512d565b60015b612fce573d8060008114612f7c576040519150601f19603f3d011682016040523d82523d6000602084013e612f81565b606091505b506000815103612fc6576040517f08c379a0000000000000000000000000000000000000000000000000000000008152600401612fbd90614fba565b60405180910390fd5b805181602001fd5b63150b7a0260e01b7bffffffffffffffffffffffffffffffffffffffffffffffffffffffff1916817bffffffffffffffffffffffffffffffffffffffffffffffffffffffff191614915050613023565b600190505b949350505050565b600073ffffffffffffffffffffffffffffffffffffffff168273ffffffffffffffffffffffffffffffffffffffff160361309a576040517f08c379a0000000000000000000000000000000000000000000000000000000008152600401613091906151a6565b60405180910390fd5b6130a381612cbb565b156130e3576040517f08c379a00000000000000000000000000000000000000000000000000000000081526004016130da90615212565b60405180910390fd5b6130ef60008383612dec565b6001600360008473ffffffffffffffffffffffffffffffffffffffff1673ffffffffffffffffffffffffffffffffffffffff168152602001908152602001600020600082825461313f9190613f7c565b92505081905550816002600083815260200190815260200160002060006101000a81548173ffffffffffffffffffffffffffffffffffffffff021916908373ffffffffffffffffffffffffffffffffffffffff160217905550808273ffffffffffffffffffffffffffffffffffffffff16600073ffffffffffffffffffffffffffffffffffffffff167fddf252ad1be2c89b69c2b068fc378daa952ba7f163c4a11628f55a4df523b3ef60405160405180910390a461320060008383612e88565b5050565b60008082905060005b845181101561324f5761323a8286838151811061322d5761322c6144be565b5b602002602001015161327d565b9150808061324790614136565b91505061320d565b508091505092915050565b6000808273ffffffffffffffffffffffffffffffffffffffff163b119050919050565b60008183106132955761329082846132a8565b6132a0565b61329f83836132a8565b5b905092915050565b600082600052816020526040600020905092915050565b604051806104000160405280602090602082028036833780820191505090505090565b6000604051905090565b600080fd5b600080fd5b6000819050919050565b613309816132f6565b811461331457600080fd5b50565b60008135905061332681613300565b92915050565b600060208284031215613342576133416132ec565b5b600061335084828501613317565b91505092915050565b613362816132f6565b82525050565b600060208201905061337d6000830184613359565b92915050565b60007fffffffff0000000000000000000000000000000000000000000000000000000082169050919050565b6133b881613383565b81146133c357600080fd5b50565b6000813590506133d5816133af565b92915050565b6000602082840312156133f1576133f06132ec565b5b60006133ff848285016133c6565b91505092915050565b60008115159050919050565b61341d81613408565b82525050565b60006020820190506134386000830184613414565b92915050565b600081519050919050565b600082825260208201905092915050565b60005b8381101561347857808201518184015260208101905061345d565b60008484015250505050565b6000601f19601f8301169050919050565b60006134a08261343e565b6134aa8185613449565b93506134ba81856020860161345a565b6134c381613484565b840191505092915050565b600060208201905081810360008301526134e88184613495565b905092915050565b600073ffffffffffffffffffffffffffffffffffffffff82169050919050565b600061351b826134f0565b9050919050565b61352b81613510565b82525050565b60006020820190506135466000830184613522565b92915050565b61355581613510565b811461356057600080fd5b50565b6000813590506135728161354c565b92915050565b6000806040838503121561358f5761358e6132ec565b5b600061359d85828601613563565b92505060206135ae85828601613317565b9150509250929050565b600060ff82169050919050565b6135ce816135b8565b81146135d957600080fd5b50565b6000813590506135eb816135c5565b92915050565b600060208284031215613607576136066132ec565b5b6000613615848285016135dc565b91505092915050565b60008060408385031215613635576136346132ec565b5b6000613643858286016135dc565b925050602061365485828601613563565b9150509250929050565b600080600060608486031215613677576136766132ec565b5b600061368586828701613563565b935050602061369686828701613563565b92505060406136a786828701613317565b9150509250925092565b6136ba816135b8565b82525050565b60006020820190506136d560008301846136b1565b92915050565b600080fd5b600080fd5b600080fd5b60008083601f840112613700576136ff6136db565b5b8235905067ffffffffffffffff81111561371d5761371c6136e0565b5b602083019150836020820283011115613739576137386136e5565b5b9250929050565b60008060208385031215613757576137566132ec565b5b600083013567ffffffffffffffff811115613775576137746132f1565b5b613781858286016136ea565b92509250509250929050565b6000602082840312156137a3576137a26132ec565b5b60006137b184828501613563565b91505092915050565b6000819050919050565b6137cd816137ba565b81146137d857600080fd5b50565b6000813590506137ea816137c4565b92915050565b6000806000806080858703121561380a576138096132ec565b5b6000613818878288016135dc565b945050602061382987828801613317565b935050604061383a87828801613317565b925050606061384b878288016137db565b91505092959194509250565b600080fd5b7f4e487b7100000000000000000000000000000000000000000000000000000000600052604160045260246000fd5b61389482613484565b810181811067ffffffffffffffff821117156138b3576138b261385c565b5b80604052505050565b60006138c66132e2565b90506138d2828261388b565b919050565b600067ffffffffffffffff8211156138f2576138f161385c565b5b6138fb82613484565b9050602081019050919050565b82818337600083830152505050565b600061392a613925846138d7565b6138bc565b90508281526020810184848401111561394657613945613857565b5b613951848285613908565b509392505050565b600082601f83011261396e5761396d6136db565b5b813561397e848260208601613917565b91505092915050565b60006020828403121561399d5761399c6132ec565b5b600082013567ffffffffffffffff8111156139bb576139ba6132f1565b5b6139c784828501613959565b91505092915050565b6139d9816137ba565b82525050565b60006020820190506139f460008301846139d0565b92915050565b613a0381613408565b8114613a0e57600080fd5b50565b600081359050613a20816139fa565b92915050565b60008060408385031215613a3d57613a3c6132ec565b5b6000613a4b85828601613563565b9250506020613a5c85828601613a11565b9150509250929050565b600067ffffffffffffffff821115613a8157613a8061385c565b5b613a8a82613484565b9050602081019050919050565b6000613aaa613aa584613a66565b6138bc565b905082815260208101848484011115613ac657613ac5613857565b5b613ad1848285613908565b509392505050565b600082601f830112613aee57613aed6136db565b5b8135613afe848260208601613a97565b91505092915050565b60008060008060808587031215613b2157613b206132ec565b5b6000613b2f87828801613563565b9450506020613b4087828801613563565b9350506040613b5187828801613317565b925050606085013567ffffffffffffffff811115613b7257613b716132f1565b5b613b7e87828801613ad9565b91505092959194509250565b600060209050919050565b600081905092915050565b6000819050919050565b613bb3816132f6565b82525050565b6000613bc58383613baa565b60208301905092915050565b6000602082019050919050565b613be781613b8a565b613bf18184613b95565b9250613bfc82613ba0565b8060005b83811015613c2d578151613c148782613bb9565b9650613c1f83613bd1565b925050600181019050613c00565b505050505050565b600061040082019050613c4b6000830184613bde565b92915050565b60008060408385031215613c6857613c676132ec565b5b6000613c7685828601613563565b9250506020613c8785828601613563565b9150509250929050565b7f4e487b7100000000000000000000000000000000000000000000000000000000600052601260045260246000fd5b6000613ccb826132f6565b9150613cd6836132f6565b925082613ce657613ce5613c91565b5b828206905092915050565b7f4e487b7100000000000000000000000000000000000000000000000000000000600052602260045260246000fd5b60006002820490506001821680613d3857607f821691505b602082108103613d4b57613d4a613cf1565b5b50919050565b7f4552433732313a20617070726f76616c20746f2063757272656e74206f776e6560008201527f7200000000000000000000000000000000000000000000000000000000000000602082015250565b6000613dad602183613449565b9150613db882613d51565b604082019050919050565b60006020820190508181036000830152613ddc81613da0565b9050919050565b7f4552433732313a20617070726f76652063616c6c6572206973206e6f7420746f60008201527f6b656e206f776e6572206e6f7220617070726f76656420666f7220616c6c0000602082015250565b6000613e3f603e83613449565b9150613e4a82613de3565b604082019050919050565b60006020820190508181036000830152613e6e81613e32565b9050919050565b7f5265656e7472616e637947756172643a207265656e7472616e742063616c6c00600082015250565b6000613eab601f83613449565b9150613eb682613e75565b602082019050919050565b60006020820190508181036000830152613eda81613e9e565b9050919050565b7f53656e646572206973206e6f7420454f41000000000000000000000000000000600082015250565b6000613f17601183613449565b9150613f2282613ee1565b602082019050919050565b60006020820190508181036000830152613f4681613f0a565b9050919050565b7f4e487b7100000000000000000000000000000000000000000000000000000000600052601160045260246000fd5b6000613f87826132f6565b9150613f92836132f6565b9250828201905080821115613faa57613fa9613f4d565b5b92915050565b7f6e6f742073746172740000000000000000000000000000000000000000000000600082015250565b6000613fe6600983613449565b9150613ff182613fb0565b602082019050919050565b6000602082019050818103600083015261401581613fd9565b9050919050565b6000614027826132f6565b9150614032836132f6565b9250828202614040816132f6565b9150828204841483151761405757614056613f4d565b5b5092915050565b7f736f6c64206f7574000000000000000000000000000000000000000000000000600082015250565b6000614094600883613449565b915061409f8261405e565b602082019050919050565b600060208201905081810360008301526140c381614087565b9050919050565b7f6d696e74206c696d697420666f72206672656500000000000000000000000000600082015250565b6000614100601383613449565b915061410b826140ca565b602082019050919050565b6000602082019050818103600083015261412f816140f3565b9050919050565b6000614141826132f6565b91507fffffffffffffffffffffffffffffffffffffffffffffffffffffffffffffffff820361417357614172613f4d565b5b600182019050919050565b7f696e76616c696420706172616d65746572000000000000000000000000000000600082015250565b60006141b4601183613449565b91506141bf8261417e565b602082019050919050565b600060208201905081810360008301526141e3816141a7565b9050919050565b7f696e76616c6964204554482062616c616e636500000000000000000000000000600082015250565b6000614220601383613449565b915061422b826141ea565b602082019050919050565b6000602082019050818103600083015261424f81614213565b9050919050565b7f4552433732313a2063616c6c6572206973206e6f7420746f6b656e206f776e6560008201527f72206e6f7220617070726f766564000000000000000000000000000000000000602082015250565b60006142b2602e83613449565b91506142bd82614256565b604082019050919050565b600060208201905081810360008301526142e1816142a5565b9050919050565b7f455243373231456e756d657261626c653a206f776e657220696e646578206f7560008201527f74206f6620626f756e6473000000000000000000000000000000000000000000602082015250565b6000614344602b83613449565b915061434f826142e8565b604082019050919050565b6000602082019050818103600083015261437381614337565b9050919050565b600081905092915050565b50565b600061439560008361437a565b91506143a082614385565b600082019050919050565b60006143b682614388565b9150819050919050565b7f4574686572207472616e73666572206661696c65640000000000000000000000600082015250565b60006143f6601583613449565b9150614401826143c0565b602082019050919050565b60006020820190508181036000830152614425816143e9565b9050919050565b7f455243373231456e756d657261626c653a20676c6f62616c20696e646578206f60008201527f7574206f6620626f756e64730000000000000000000000000000000000000000602082015250565b6000614488602c83613449565b91506144938261442c565b604082019050919050565b600060208201905081810360008301526144b78161447b565b9050919050565b7f4e487b7100000000000000000000000000000000000000000000000000000000600052603260045260246000fd5b7f6d696e74206c696d697420666f722077686974656c6973740000000000000000600082015250565b6000614523601883613449565b915061452e826144ed565b602082019050919050565b6000602082019050818103600083015261455281614516565b9050919050565b7f6261642077686974656c697374206d65726b6c652070726f6f66000000000000600082015250565b600061458f601a83613449565b915061459a82614559565b602082019050919050565b600060208201905081810360008301526145be81614582565b9050919050565b7f63616c6c6572206973206e6f74206f776e6572206f722070726564696374206360008201527f6f6e747261637400000000000000000000000000000000000000000000000000602082015250565b6000614621602783613449565b915061462c826145c5565b604082019050919050565b6000602082019050818103600083015261465081614614565b9050919050565b7f746f6b656e206973206e6f74206c6f636b656400000000000000000000000000600082015250565b600061468d601383613449565b915061469882614657565b602082019050919050565b600060208201905081810360008301526146bc81614680565b9050919050565b7f4552433732313a20696e76616c696420746f6b656e2049440000000000000000600082015250565b60006146f9601883613449565b9150614704826146c3565b602082019050919050565b60006020820190508181036000830152614728816146ec565b9050919050565b7f4552433732313a2061646472657373207a65726f206973206e6f74206120766160008201527f6c6964206f776e65720000000000000000000000000000000000000000000000602082015250565b600061478b602983613449565b91506147968261472f565b604082019050919050565b600060208201905081810360008301526147ba8161477e565b9050919050565b60008190508160005260206000209050919050565b60006020601f8301049050919050565b600082821b905092915050565b6000600883026148237fffffffffffffffffffffffffffffffffffffffffffffffffffffffffffffffff826147e6565b61482d86836147e6565b95508019841693508086168417925050509392505050565b6000819050919050565b600061486a614865614860846132f6565b614845565b6132f6565b9050919050565b6000819050919050565b6148848361484f565b61489861489082614871565b8484546147f3565b825550505050565b600090565b6148ad6148a0565b6148b881848461487b565b505050565b5b818110156148dc576148d16000826148a5565b6001810190506148be565b5050565b601f821115614921576148f2816147c1565b6148fb846147d6565b8101602085101561490a578190505b61491e614916856147d6565b8301826148bd565b50505b505050565b600082821c905092915050565b600061494460001984600802614926565b1980831691505092915050565b600061495d8383614933565b9150826002028217905092915050565b6149768261343e565b67ffffffffffffffff81111561498f5761498e61385c565b5b6149998254613d20565b6149a48282856148e0565b600060209050601f8311600181146149d757600084156149c5578287015190505b6149cf8582614951565b865550614a37565b601f1984166149e5866147c1565b60005b82811015614a0d578489015182556001820191506020850194506020810190506149e8565b86831015614a2a5784890151614a26601f891682614933565b8355505b6001600288020188555050505b505050505050565b6000614a4a826132f6565b9150614a55836132f6565b9250828203905081811115614a6d57614a6c613f4d565b5b92915050565b600081905092915050565b60008154614a8b81613d20565b614a958186614a73565b94506001821660008114614ab05760018114614ac557614af8565b60ff1983168652811515820286019350614af8565b614ace856147c1565b60005b83811015614af057815481890152600182019150602081019050614ad1565b838801955050505b50505092915050565b6000614b0c8261343e565b614b168185614a73565b9350614b2681856020860161345a565b80840191505092915050565b6000614b3e8285614a7e565b9150614b4a8284614b01565b91508190509392505050565b6000614b61826135b8565b915060ff8203614b7457614b73613f4d565b5b600182019050919050565b7f746f6b656e20616c7265616479206c6f636b6564000000000000000000000000600082015250565b6000614bb5601483613449565b9150614bc082614b7f565b602082019050919050565b60006020820190508181036000830152614be481614ba8565b9050919050565b7f4f776e61626c653a206e6577206f776e657220697320746865207a65726f206160008201527f6464726573730000000000000000000000000000000000000000000000000000602082015250565b6000614c47602683613449565b9150614c5282614beb565b604082019050919050565b60006020820190508181036000830152614c7681614c3a565b9050919050565b7f5061757361626c653a2070617573656400000000000000000000000000000000600082015250565b6000614cb3601083613449565b9150614cbe82614c7d565b602082019050919050565b60006020820190508181036000830152614ce281614ca6565b9050919050565b7f4552433732313a207472616e736665722066726f6d20696e636f72726563742060008201527f6f776e6572000000000000000000000000000000000000000000000000000000602082015250565b6000614d45602583613449565b9150614d5082614ce9565b604082019050919050565b60006020820190508181036000830152614d7481614d38565b9050919050565b7f4552433732313a207472616e7366657220746f20746865207a65726f2061646460008201527f7265737300000000000000000000000000000000000000000000000000000000602082015250565b6000614dd7602483613449565b9150614de282614d7b565b604082019050919050565b60006020820190508181036000830152614e0681614dca565b9050919050565b7f4f776e61626c653a2063616c6c6572206973206e6f7420746865206f776e6572600082015250565b6000614e43602083613449565b9150614e4e82614e0d565b602082019050919050565b60006020820190508181036000830152614e7281614e36565b9050919050565b60008160601b9050919050565b6000614e9182614e79565b9050919050565b6000614ea382614e86565b9050919050565b614ebb614eb682613510565b614e98565b82525050565b6000614ecd8284614eaa565b60148201915081905092915050565b7f4552433732313a20617070726f766520746f2063616c6c657200000000000000600082015250565b6000614f12601983613449565b9150614f1d82614edc565b602082019050919050565b60006020820190508181036000830152614f4181614f05565b9050919050565b7f4552433732313a207472616e7366657220746f206e6f6e20455243373231526560008201527f63656976657220696d706c656d656e7465720000000000000000000000000000602082015250565b6000614fa4603283613449565b9150614faf82614f48565b604082019050919050565b60006020820190508181036000830152614fd381614f97565b9050919050565b6000614fe5826132f6565b9150614ff0836132f6565b92508261500057614fff613c91565b5b828204905092915050565b7f746f6b656e206c6f636b656420696e2070726564696374696f6e000000000000600082015250565b6000615041601a83613449565b915061504c8261500b565b602082019050919050565b6000602082019050818103600083015261507081615034565b9050919050565b600081519050919050565b600082825260208201905092915050565b600061509e82615077565b6150a88185615082565b93506150b881856020860161345a565b6150c181613484565b840191505092915050565b60006080820190506150e16000830187613522565b6150ee6020830186613522565b6150fb6040830185613359565b818103606083015261510d8184615093565b905095945050505050565b600081519050615127816133af565b92915050565b600060208284031215615143576151426132ec565b5b600061515184828501615118565b91505092915050565b7f4552433732313a206d696e7420746f20746865207a65726f2061646472657373600082015250565b6000615190602083613449565b915061519b8261515a565b602082019050919050565b600060208201905081810360008301526151bf81615183565b9050919050565b7f4552433732313a20746f6b656e20616c7265616479206d696e74656400000000600082015250565b60006151fc601c83613449565b9150615207826151c6565b602082019050919050565b6000602082019050818103600083015261522b816151ef565b905091905056fea2646970667358221220a863e7e35cbc61de8d50bc39eb604b8273378454a65f1574b2731dd708b03fdb64736f6c63430008110033",
  "linkReferences": {},
  "deployedLinkReferences": {}
}