{
  "_format": "hh-sol-artifact-1",
  "contractName": "GroupNFT",
  "sourceName": "contracts/GroupNFT.sol",
  "abi": [
    {
      "inputs": [
        {
          "internalType": "string",
          "name": "name",
          "type": "string"
        },
        {
          "internalType": "string",
          "name": "symbol",
          "type": "string"
        }
      ],
      "stateMutability": "nonpayable",
      "type": "constructor"
    },
    {
      "anonymous": false,
      "inputs": [
        {
          "indexed": true,
          "internalType": "address",
          "name": "owner",
          "type": "address"
        },
        {
          "indexed": true,
          "internalType": "address",
          "name": "approved",
          "type": "address"
        },
        {
          "indexed": true,
          "internalType": "uint256",
          "name": "tokenId",
          "type": "uint256"
        }
      ],
      "name": "Approval",
      "type": "event"
    },
    {
      "anonymous": false,
      "inputs": [
        {
          "indexed": true,
          "internalType": "address",
          "name": "owner",
          "type": "address"
        },
        {
          "indexed": true,
          "internalType": "address",
          "name": "operator",
          "type": "address"
        },
        {
          "indexed": false,
          "internalType": "bool",
          "name": "approved",
          "type": "bool"
        }
      ],
      "name": "ApprovalForAll",
      "type": "event"
    },
    {
      "anonymous": false,
      "inputs": [
        {
          "indexed": true,
          "internalType": "address",
          "name": "_sender",
          "type": "address"
        },
        {
          "indexed": true,
          "internalType": "uint256",
          "name": "_tokenId",
          "type": "uint256"
        },
        {
          "indexed": true,
          "internalType": "uint256",
          "name": "_team",
          "type": "uint256"
        }
      ],
      "name": "Buy",
      "type": "event"
    },
    {
      "anonymous": false,
      "inputs": [
        {
          "indexed": true,
          "internalType": "address",
          "name": "_sender",
          "type": "address"
        },
        {
          "indexed": true,
          "internalType": "uint256",
          "name": "_tokenId",
          "type": "uint256"
        },
        {
          "indexed": true,
          "internalType": "uint256",
          "name": "_team",
          "type": "uint256"
        }
      ],
      "name": "Mint",
      "type": "event"
    },
    {
      "anonymous": false,
      "inputs": [
        {
          "indexed": true,
          "internalType": "address",
          "name": "_sender",
          "type": "address"
        },
        {
          "indexed": true,
          "internalType": "uint256",
          "name": "_tokenId",
          "type": "uint256"
        },
        {
          "indexed": true,
          "internalType": "uint256",
          "name": "_team",
          "type": "uint256"
        }
      ],
      "name": "MintByWhiteList",
      "type": "event"
    },
    {
      "anonymous": false,
      "inputs": [
        {
          "indexed": true,
          "internalType": "address",
          "name": "previousOwner",
          "type": "address"
        },
        {
          "indexed": true,
          "internalType": "address",
          "name": "newOwner",
          "type": "address"
        }
      ],
      "name": "OwnershipTransferred",
      "type": "event"
    },
    {
      "anonymous": false,
      "inputs": [
        {
          "indexed": false,
          "internalType": "address",
          "name": "account",
          "type": "address"
        }
      ],
      "name": "Paused",
      "type": "event"
    },
    {
      "anonymous": false,
      "inputs": [
        {
          "indexed": true,
          "internalType": "address",
          "name": "from",
          "type": "address"
        },
        {
          "indexed": true,
          "internalType": "address",
          "name": "to",
          "type": "address"
        },
        {
          "indexed": true,
          "internalType": "uint256",
          "name": "tokenId",
          "type": "uint256"
        }
      ],
      "name": "Transfer",
      "type": "event"
    },
    {
      "anonymous": false,
      "inputs": [
        {
          "indexed": false,
          "internalType": "address",
          "name": "account",
          "type": "address"
        }
      ],
      "name": "Unpaused",
      "type": "event"
    },
    {
      "inputs": [],
      "name": "GROUP_PREDICT_ADDRESS",
      "outputs": [
        {
          "internalType": "address",
          "name": "",
          "type": "address"
        }
      ],
      "stateMutability": "view",
      "type": "function"
    },
    {
      "inputs": [],
      "name": "MAX_PUBLIC_MINT",
      "outputs": [
        {
          "internalType": "uint256",
          "name": "",
          "type": "uint256"
        }
      ],
      "stateMutability": "view",
      "type": "function"
    },
    {
      "inputs": [],
      "name": "MAX_WHITELIST_MINT",
      "outputs": [
        {
          "internalType": "uint256",
          "name": "",
          "type": "uint256"
        }
      ],
      "stateMutability": "view",
      "type": "function"
    },
    {
      "inputs": [],
      "name": "TEAM_COUNT",
      "outputs": [
        {
          "internalType": "uint8",
          "name": "",
          "type": "uint8"
        }
      ],
      "stateMutability": "view",
      "type": "function"
    },
    {
      "inputs": [],
      "name": "WHITELIST_MINT_DURATION",
      "outputs": [
        {
          "internalType": "uint256",
          "name": "",
          "type": "uint256"
        }
      ],
      "stateMutability": "view",
      "type": "function"
    },
    {
      "inputs": [
        {
          "internalType": "uint8",
          "name": "",
          "type": "uint8"
        },
        {
          "internalType": "address",
          "name": "",
          "type": "address"
        }
      ],
      "name": "_freeCountPerPhase",
      "outputs": [
        {
          "internalType": "uint256",
          "name": "",
          "type": "uint256"
        }
      ],
      "stateMutability": "view",
      "type": "function"
    },
    {
      "inputs": [],
      "name": "_freeSupply",
      "outputs": [
        {
          "internalType": "uint256",
          "name": "",
          "type": "uint256"
        }
      ],
      "stateMutability": "view",
      "type": "function"
    },
    {
      "inputs": [],
      "name": "_freeTokenId",
      "outputs": [
        {
          "internalType": "uint256",
          "name": "",
          "type": "uint256"
        }
      ],
      "stateMutability": "view",
      "type": "function"
    },
    {
      "inputs": [],
      "name": "_freeTotalSupplyPerTeam",
      "outputs": [
        {
          "internalType": "uint256",
          "name": "",
          "type": "uint256"
        }
      ],
      "stateMutability": "view",
      "type": "function"
    },
    {
      "inputs": [],
      "name": "_phase",
      "outputs": [
        {
          "internalType": "uint8",
          "name": "",
          "type": "uint8"
        }
      ],
      "stateMutability": "view",
      "type": "function"
    },
    {
      "inputs": [],
      "name": "_price",
      "outputs": [
        {
          "internalType": "uint256",
          "name": "",
          "type": "uint256"
        }
      ],
      "stateMutability": "view",
      "type": "function"
    },
    {
      "inputs": [
        {
          "internalType": "uint8",
          "name": "",
          "type": "uint8"
        }
      ],
      "name": "_saleCount",
      "outputs": [
        {
          "internalType": "uint256",
          "name": "",
          "type": "uint256"
        }
      ],
      "stateMutability": "view",
      "type": "function"
    },
    {
      "inputs": [],
      "name": "_saleSupplyPerTeam",
      "outputs": [
        {
          "internalType": "uint256",
          "name": "",
          "type": "uint256"
        }
      ],
      "stateMutability": "view",
      "type": "function"
    },
    {
      "inputs": [],
      "name": "_startTime",
      "outputs": [
        {
          "internalType": "uint256",
          "name": "",
          "type": "uint256"
        }
      ],
      "stateMutability": "view",
      "type": "function"
    },
    {
      "inputs": [],
      "name": "_whitelistMerkleRoot",
      "outputs": [
        {
          "internalType": "bytes32",
          "name": "",
          "type": "bytes32"
        }
      ],
      "stateMutability": "view",
      "type": "function"
    },
    {
      "inputs": [
        {
          "internalType": "uint8",
          "name": "",
          "type": "uint8"
        },
        {
          "internalType": "address",
          "name": "",
          "type": "address"
        }
      ],
      "name": "_wlCountPerPhase",
      "outputs": [
        {
          "internalType": "uint256",
          "name": "",
          "type": "uint256"
        }
      ],
      "stateMutability": "view",
      "type": "function"
    },
    {
      "inputs": [
        {
          "internalType": "address",
          "name": "to",
          "type": "address"
        },
        {
          "internalType": "uint256",
          "name": "tokenId",
          "type": "uint256"
        }
      ],
      "name": "approve",
      "outputs": [],
      "stateMutability": "nonpayable",
      "type": "function"
    },
    {
      "inputs": [
        {
          "internalType": "address",
          "name": "owner",
          "type": "address"
        }
      ],
      "name": "balanceOf",
      "outputs": [
        {
          "internalType": "uint256",
          "name": "",
          "type": "uint256"
        }
      ],
      "stateMutability": "view",
      "type": "function"
    },
    {
      "inputs": [
        {
          "internalType": "uint8",
          "name": "team",
          "type": "uint8"
        }
      ],
      "name": "buy",
      "outputs": [],
      "stateMutability": "payable",
      "type": "function"
    },
    {
      "inputs": [
        {
          "internalType": "uint256",
          "name": "tokenId",
          "type": "uint256"
        }
      ],
      "name": "getApproved",
      "outputs": [
        {
          "internalType": "address",
          "name": "",
          "type": "address"
        }
      ],
      "stateMutability": "view",
      "type": "function"
    },
    {
      "inputs": [],
      "name": "getFreeLeft",
      "outputs": [
        {
          "internalType": "uint256",
          "name": "",
          "type": "uint256"
        }
      ],
      "stateMutability": "view",
      "type": "function"
    },
    {
      "inputs": [],
      "name": "getSaleInfo",
      "outputs": [
        {
          "internalType": "uint256[32]",
          "name": "list",
          "type": "uint256[32]"
        }
      ],
      "stateMutability": "view",
      "type": "function"
    },
    {
      "inputs": [
        {
          "internalType": "uint256",
          "name": "tokenId",
          "type": "uint256"
        }
      ],
      "name": "getTeam",
      "outputs": [
        {
          "internalType": "uint256",
          "name": "",
          "type": "uint256"
        }
      ],
      "stateMutability": "view",
      "type": "function"
    },
    {
      "inputs": [
        {
          "internalType": "address",
          "name": "userAddr",
          "type": "address"
        },
        {
          "internalType": "uint256",
          "name": "pageNum",
          "type": "uint256"
        },
        {
          "internalType": "uint256",
          "name": "pageSize",
          "type": "uint256"
        }
      ],
      "name": "getTokenIds",
      "outputs": [
        {
          "internalType": "uint256",
          "name": "",
          "type": "uint256"
        },
        {
          "internalType": "uint256[]",
          "name": "",
          "type": "uint256[]"
        }
      ],
      "stateMutability": "view",
      "type": "function"
    },
    {
      "inputs": [
        {
          "internalType": "address",
          "name": "userAddr",
          "type": "address"
        }
      ],
      "name": "getUserFreeLimit",
      "outputs": [
        {
          "internalType": "uint256",
          "name": "",
          "type": "uint256"
        }
      ],
      "stateMutability": "view",
      "type": "function"
    },
    {
      "inputs": [
        {
          "internalType": "address",
          "name": "userAddr",
          "type": "address"
        }
      ],
      "name": "getUserWLLimit",
      "outputs": [
        {
          "internalType": "uint256",
          "name": "",
          "type": "uint256"
        }
      ],
      "stateMutability": "view",
      "type": "function"
    },
    {
      "inputs": [
        {
          "internalType": "address",
          "name": "owner",
          "type": "address"
        },
        {
          "internalType": "address",
          "name": "operator",
          "type": "address"
        }
      ],
      "name": "isApprovedForAll",
      "outputs": [
        {
          "internalType": "bool",
          "name": "",
          "type": "bool"
        }
      ],
      "stateMutability": "view",
      "type": "function"
    },
    {
      "inputs": [
        {
          "internalType": "uint256",
          "name": "tokenId",
          "type": "uint256"
        }
      ],
      "name": "lock",
      "outputs": [],
      "stateMutability": "nonpayable",
      "type": "function"
    },
    {
      "inputs": [],
      "name": "mint",
      "outputs": [],
      "stateMutability": "nonpayable",
      "type": "function"
    },
    {
      "inputs": [
        {
          "internalType": "bytes32[]",
          "name": "proof",
          "type": "bytes32[]"
        }
      ],
      "name": "mintByWhiteList",
      "outputs": [],
      "stateMutability": "nonpayable",
      "type": "function"
    },
    {
      "inputs": [],
      "name": "name",
      "outputs": [
        {
          "internalType": "string",
          "name": "",
          "type": "string"
        }
      ],
      "stateMutability": "view",
      "type": "function"
    },
    {
      "inputs": [],
      "name": "owner",
      "outputs": [
        {
          "internalType": "address",
          "name": "",
          "type": "address"
        }
      ],
      "stateMutability": "view",
      "type": "function"
    },
    {
      "inputs": [
        {
          "internalType": "uint256",
          "name": "tokenId",
          "type": "uint256"
        }
      ],
      "name": "ownerOf",
      "outputs": [
        {
          "internalType": "address",
          "name": "",
          "type": "address"
        }
      ],
      "stateMutability": "view",
      "type": "function"
    },
    {
      "inputs": [],
      "name": "paused",
      "outputs": [
        {
          "internalType": "bool",
          "name": "",
          "type": "bool"
        }
      ],
      "stateMutability": "view",
      "type": "function"
    },
    {
      "inputs": [],
      "name": "renounceOwnership",
      "outputs": [],
      "stateMutability": "nonpayable",
      "type": "function"
    },
    {
      "inputs": [
        {
          "internalType": "address",
          "name": "from",
          "type": "address"
        },
        {
          "internalType": "address",
          "name": "to",
          "type": "address"
        },
        {
          "internalType": "uint256",
          "name": "tokenId",
          "type": "uint256"
        }
      ],
      "name": "safeTransferFrom",
      "outputs": [],
      "stateMutability": "nonpayable",
      "type": "function"
    },
    {
      "inputs": [
        {
          "internalType": "address",
          "name": "from",
          "type": "address"
        },
        {
          "internalType": "address",
          "name": "to",
          "type": "address"
        },
        {
          "internalType": "uint256",
          "name": "tokenId",
          "type": "uint256"
        },
        {
          "internalType": "bytes",
          "name": "data",
          "type": "bytes"
        }
      ],
      "name": "safeTransferFrom",
      "outputs": [],
      "stateMutability": "nonpayable",
      "type": "function"
    },
    {
      "inputs": [
        {
          "internalType": "address",
          "name": "operator",
          "type": "address"
        },
        {
          "internalType": "bool",
          "name": "approved",
          "type": "bool"
        }
      ],
      "name": "setApprovalForAll",
      "outputs": [],
      "stateMutability": "nonpayable",
      "type": "function"
    },
    {
      "inputs": [
        {
          "internalType": "string",
          "name": "metadataURI",
          "type": "string"
        }
      ],
      "name": "setMetadataURI",
      "outputs": [],
      "stateMutability": "nonpayable",
      "type": "function"
    },
    {
      "inputs": [
        {
          "internalType": "uint8",
          "name": "phase",
          "type": "uint8"
        },
        {
          "internalType": "uint256",
          "name": "startTime",
          "type": "uint256"
        },
        {
          "internalType": "uint256",
          "name": "supplyPerTeam",
          "type": "uint256"
        },
        {
          "internalType": "bytes32",
          "name": "whitelistMerkleRoot",
          "type": "bytes32"
        }
      ],
      "name": "setPhase",
      "outputs": [],
      "stateMutability": "nonpayable",
      "type": "function"
    },
    {
      "inputs": [
        {
          "internalType": "address",
          "name": "addr",
          "type": "address"
        }
      ],
      "name": "setPredictContractAddress",
      "outputs": [],
      "stateMutability": "nonpayable",
      "type": "function"
    },
    {
      "inputs": [
        {
          "internalType": "uint256",
          "name": "supply",
          "type": "uint256"
        }
      ],
      "name": "setSaleSupplyPerTeam",
      "outputs": [],
      "stateMutability": "nonpayable",
      "type": "function"
    },
    {
      "inputs": [
        {
          "internalType": "bytes4",
          "name": "interfaceId",
          "type": "bytes4"
        }
      ],
      "name": "supportsInterface",
      "outputs": [
        {
          "internalType": "bool",
          "name": "",
          "type": "bool"
        }
      ],
      "stateMutability": "view",
      "type": "function"
    },
    {
      "inputs": [],
      "name": "symbol",
      "outputs": [
        {
          "internalType": "string",
          "name": "",
          "type": "string"
        }
      ],
      "stateMutability": "view",
      "type": "function"
    },
    {
      "inputs": [
        {
          "internalType": "uint256",
          "name": "index",
          "type": "uint256"
        }
      ],
      "name": "tokenByIndex",
      "outputs": [
        {
          "internalType": "uint256",
          "name": "",
          "type": "uint256"
        }
      ],
      "stateMutability": "view",
      "type": "function"
    },
    {
      "inputs": [
        {
          "internalType": "address",
          "name": "owner",
          "type": "address"
        },
        {
          "internalType": "uint256",
          "name": "index",
          "type": "uint256"
        }
      ],
      "name": "tokenOfOwnerByIndex",
      "outputs": [
        {
          "internalType": "uint256",
          "name": "",
          "type": "uint256"
        }
      ],
      "stateMutability": "view",
      "type": "function"
    },
    {
      "inputs": [
        {
          "internalType": "uint256",
          "name": "tokenId",
          "type": "uint256"
        }
      ],
      "name": "tokenURI",
      "outputs": [
        {
          "internalType": "string",
          "name": "",
          "type": "string"
        }
      ],
      "stateMutability": "view",
      "type": "function"
    },
    {
      "inputs": [],
      "name": "totalSupply",
      "outputs": [
        {
          "internalType": "uint256",
          "name": "",
          "type": "uint256"
        }
      ],
      "stateMutability": "view",
      "type": "function"
    },
    {
      "inputs": [
        {
          "internalType": "address",
          "name": "from",
          "type": "address"
        },
        {
          "internalType": "address",
          "name": "to",
          "type": "address"
        },
        {
          "internalType": "uint256",
          "name": "tokenId",
          "type": "uint256"
        }
      ],
      "name": "transferFrom",
      "outputs": [],
      "stateMutability": "nonpayable",
      "type": "function"
    },
    {
      "inputs": [
        {
          "internalType": "address",
          "name": "newOwner",
          "type": "address"
        }
      ],
      "name": "transferOwnership",
      "outputs": [],
      "stateMutability": "nonpayable",
      "type": "function"
    },
    {
      "inputs": [
        {
          "internalType": "uint256",
          "name": "tokenId",
          "type": "uint256"
        }
      ],
      "name": "unlock",
      "outputs": [],
      "stateMutability": "nonpayable",
      "type": "function"
    },
    {
      "inputs": [],
      "name": "withdraw",
      "outputs": [],
      "stateMutability": "nonpayable",
      "type": "function"
    }
  ],
  "bytecode": "0x6080604052643affdac47f600d5566b1a2bc2ec50000600e55601e600f556103c06012553480156200003057600080fd5b50604051620062493803806200624983398181016040528101906200005691906200032a565b81818160009081620000699190620005fa565b5080600190816200007b9190620005fa565b5050506200009e62000092620000c960201b60201c565b620000d160201b60201c565b6001600b819055506000600c60006101000a81548160ff0219169083151502179055505050620006e1565b600033905090565b6000600a60009054906101000a900473ffffffffffffffffffffffffffffffffffffffff16905081600a60006101000a81548173ffffffffffffffffffffffffffffffffffffffff021916908373ffffffffffffffffffffffffffffffffffffffff1602179055508173ffffffffffffffffffffffffffffffffffffffff168173ffffffffffffffffffffffffffffffffffffffff167f8be0079c531659141344cd1fd0a4f28419497f9722a3daafe3b4186f6b6457e060405160405180910390a35050565b6000604051905090565b600080fd5b600080fd5b600080fd5b600080fd5b6000601f19601f8301169050919050565b7f4e487b7100000000000000000000000000000000000000000000000000000000600052604160045260246000fd5b6200020082620001b5565b810181811067ffffffffffffffff82111715620002225762000221620001c6565b5b80604052505050565b60006200023762000197565b9050620002458282620001f5565b919050565b600067ffffffffffffffff821115620002685762000267620001c6565b5b6200027382620001b5565b9050602081019050919050565b60005b83811015620002a057808201518184015260208101905062000283565b60008484015250505050565b6000620002c3620002bd846200024a565b6200022b565b905082815260208101848484011115620002e257620002e1620001b0565b5b620002ef84828562000280565b509392505050565b600082601f8301126200030f576200030e620001ab565b5b815162000321848260208601620002ac565b91505092915050565b60008060408385031215620003445762000343620001a1565b5b600083015167ffffffffffffffff811115620003655762000364620001a6565b5b6200037385828601620002f7565b925050602083015167ffffffffffffffff811115620003975762000396620001a6565b5b620003a585828601620002f7565b9150509250929050565b600081519050919050565b7f4e487b7100000000000000000000000000000000000000000000000000000000600052602260045260246000fd5b600060028204905060018216806200040257607f821691505b602082108103620004185762000417620003ba565b5b50919050565b60008190508160005260206000209050919050565b60006020601f8301049050919050565b600082821b905092915050565b600060088302620004827fffffffffffffffffffffffffffffffffffffffffffffffffffffffffffffffff8262000443565b6200048e868362000443565b95508019841693508086168417925050509392505050565b6000819050919050565b6000819050919050565b6000620004db620004d5620004cf84620004a6565b620004b0565b620004a6565b9050919050565b6000819050919050565b620004f783620004ba565b6200050f6200050682620004e2565b84845462000450565b825550505050565b600090565b6200052662000517565b62000533818484620004ec565b505050565b5b818110156200055b576200054f6000826200051c565b60018101905062000539565b5050565b601f821115620005aa5762000574816200041e565b6200057f8462000433565b810160208510156200058f578190505b620005a76200059e8562000433565b83018262000538565b50505b505050565b600082821c905092915050565b6000620005cf60001984600802620005af565b1980831691505092915050565b6000620005ea8383620005bc565b9150826002028217905092915050565b6200060582620003af565b67ffffffffffffffff811115620006215762000620620001c6565b5b6200062d8254620003e9565b6200063a8282856200055f565b600060209050601f8311600181146200067257600084156200065d578287015190505b620006698582620005dc565b865550620006d9565b601f19841662000682866200041e565b60005b82811015620006ac5784890151825560018201915060208501945060208101905062000685565b86831015620006cc5784890151620006c8601f891682620005bc565b8355505b6001600288020188555050505b505050505050565b615b5880620006f16000396000f3fe6080604052600436106102fe5760003560e01c80637155e1cc11610190578063bf422da5116100dc578063d9662e3311610095578063e40c5d971161006f578063e40c5d9714610baf578063e985e9c514610bd8578063f2fde38b14610c15578063fa1acb5c14610c3e576102fe565b8063d9662e3314610b1e578063db83694c14610b5b578063dd46706414610b86576102fe565b8063bf422da5146109fa578063c08dfd3c14610a37578063c0c0ea3b14610a62578063c87b56dd14610a8d578063cfa08f7c14610aca578063d0f359a114610af5576102fe565b80638c2874751161014957806397301059116101235780639730105914610952578063a0b303901461097d578063a22cb465146109a8578063b88d4fde146109d1576102fe565b80638c287475146108bf5780638da5cb5b146108fc57806395d89b4114610927576102fe565b80637155e1cc146107af578063750521f5146107d857806377a605d91461080157806379340a4e1461082c5780637d52b301146108695780637f8c353e14610894576102fe565b80632f745c591161024f57806356fde6ae116102085780636352211e116101e25780636352211e146106f357806365f130971461073057806370a082311461075b578063715018a614610798576102fe565b806356fde6ae146106765780635c975abb1461069f5780636198e339146106ca576102fe565b80632f745c591461056657806332e32ae2146105a35780633a780938146105ce5780633ccfd60b146105f957806342842e0e146106105780634f6ccce714610639576102fe565b80631249c58b116102bc57806318160ddd1161029657806318160ddd146104bc578063235b6ea1146104e757806323b872dd14610512578063263df1d11461053b576102fe565b80631249c58b1461044c57806314107f3c1461046357806314eedf221461047f576102fe565b80628e0f1b1461030357806301ffc9a714610340578063069e813d1461037d57806306fdde03146103bb578063081812fc146103e6578063095ea7b314610423575b600080fd5b34801561030f57600080fd5b5061032a60048036038101906103259190613ad3565b610c69565b6040516103379190613b0f565b60405180910390f35b34801561034c57600080fd5b5061036760048036038101906103629190613b82565b610c8b565b6040516103749190613bca565b60405180910390f35b34801561038957600080fd5b506103a4600480360381019061039f9190613c43565b610d05565b6040516103b2929190613d54565b60405180910390f35b3480156103c757600080fd5b506103d0610e85565b6040516103dd9190613e14565b60405180910390f35b3480156103f257600080fd5b5061040d60048036038101906104089190613ad3565b610f17565b60405161041a9190613e45565b60405180910390f35b34801561042f57600080fd5b5061044a60048036038101906104459190613e60565b610f5d565b005b34801561045857600080fd5b50610461611074565b005b61047d60048036038101906104789190613ed9565b6113a3565b005b34801561048b57600080fd5b506104a660048036038101906104a19190613f06565b611619565b6040516104b39190613b0f565b60405180910390f35b3480156104c857600080fd5b506104d161163e565b6040516104de9190613b0f565b60405180910390f35b3480156104f357600080fd5b506104fc61164b565b6040516105099190613b0f565b60405180910390f35b34801561051e57600080fd5b5061053960048036038101906105349190613f46565b611651565b005b34801561054757600080fd5b506105506116b1565b60405161055d9190613fa8565b60405180910390f35b34801561057257600080fd5b5061058d60048036038101906105889190613e60565b6116b6565b60405161059a9190613b0f565b60405180910390f35b3480156105af57600080fd5b506105b861175b565b6040516105c59190613b0f565b60405180910390f35b3480156105da57600080fd5b506105e3611761565b6040516105f09190613b0f565b60405180910390f35b34801561060557600080fd5b5061060e611767565b005b34801561061c57600080fd5b5061063760048036038101906106329190613f46565b61181e565b005b34801561064557600080fd5b50610660600480360381019061065b9190613ad3565b61183e565b60405161066d9190613b0f565b60405180910390f35b34801561068257600080fd5b5061069d60048036038101906106989190614028565b6118af565b005b3480156106ab57600080fd5b506106b4611c6e565b6040516106c19190613bca565b60405180910390f35b3480156106d657600080fd5b506106f160048036038101906106ec9190613ad3565b611c85565b005b3480156106ff57600080fd5b5061071a60048036038101906107159190613ad3565b611de1565b6040516107279190613e45565b60405180910390f35b34801561073c57600080fd5b50610745611e92565b6040516107529190613b0f565b60405180910390f35b34801561076757600080fd5b50610782600480360381019061077d9190614075565b611e97565b60405161078f9190613b0f565b60405180910390f35b3480156107a457600080fd5b506107ad611f4e565b005b3480156107bb57600080fd5b506107d660048036038101906107d191906140d8565b611f62565b005b3480156107e457600080fd5b506107ff60048036038101906107fa919061426f565b611fad565b005b34801561080d57600080fd5b50610816611fc8565b6040516108239190613b0f565b60405180910390f35b34801561083857600080fd5b50610853600480360381019061084e9190613ed9565b611fce565b6040516108609190613b0f565b60405180910390f35b34801561087557600080fd5b5061087e611fe6565b60405161088b9190613b0f565b60405180910390f35b3480156108a057600080fd5b506108a961200c565b6040516108b69190613e45565b60405180910390f35b3480156108cb57600080fd5b506108e660048036038101906108e19190613f06565b612032565b6040516108f39190613b0f565b60405180910390f35b34801561090857600080fd5b50610911612057565b60405161091e9190613e45565b60405180910390f35b34801561093357600080fd5b5061093c612081565b6040516109499190613e14565b60405180910390f35b34801561095e57600080fd5b50610967612113565b6040516109749190613fa8565b60405180910390f35b34801561098957600080fd5b50610992612126565b60405161099f91906142c7565b60405180910390f35b3480156109b457600080fd5b506109cf60048036038101906109ca919061430e565b61212c565b005b3480156109dd57600080fd5b506109f860048036038101906109f391906143ef565b612142565b005b348015610a0657600080fd5b50610a216004803603810190610a1c9190614075565b6121a4565b604051610a2e9190613b0f565b60405180910390f35b348015610a4357600080fd5b50610a4c61221f565b604051610a599190613b0f565b60405180910390f35b348015610a6e57600080fd5b50610a77612224565b604051610a849190613b0f565b60405180910390f35b348015610a9957600080fd5b50610ab46004803603810190610aaf9190613ad3565b61222a565b604051610ac19190613e14565b60405180910390f35b348015610ad657600080fd5b50610adf612267565b604051610aec9190613b0f565b60405180910390f35b348015610b0157600080fd5b50610b1c6004803603810190610b179190614075565b61226d565b005b348015610b2a57600080fd5b50610b456004803603810190610b409190614075565b6122b9565b604051610b529190613b0f565b60405180910390f35b348015610b6757600080fd5b50610b70612334565b604051610b7d91906144f6565b60405180910390f35b348015610b9257600080fd5b50610bad6004803603810190610ba89190613ad3565b6123ab565b005b348015610bbb57600080fd5b50610bd66004803603810190610bd19190613ad3565b612508565b005b348015610be457600080fd5b50610bff6004803603810190610bfa9190614512565b61251a565b604051610c0c9190613bca565b60405180910390f35b348015610c2157600080fd5b50610c3c6004803603810190610c379190614075565b6125ae565b005b348015610c4a57600080fd5b50610c53612631565b604051610c609190613b0f565b60405180910390f35b6000610c7482612637565b602060ff1682610c849190614581565b9050919050565b60007f780e9d63000000000000000000000000000000000000000000000000000000007bffffffffffffffffffffffffffffffffffffffffffffffffffffffff1916827bffffffffffffffffffffffffffffffffffffffffffffffffffffffff19161480610cfe5750610cfd82612682565b5b9050919050565b600060606000610d1486611e97565b9050600084600187610d2691906145e1565b610d309190614615565b905060008587610d409190614615565b905082821115610da15782600067ffffffffffffffff811115610d6657610d65614144565b5b604051908082528060200260200182016040528015610d945781602001602082028036833780820191505090505b5094509450505050610e7d565b82811115610dad578290505b60008282610dbb91906145e1565b67ffffffffffffffff811115610dd457610dd3614144565b5b604051908082528060200260200182016040528015610e025781602001602082028036833780820191505090505b509050600083905060005b8484610e1991906145e1565b811015610e70576000610e2c8c846116b6565b905080848381518110610e4257610e41614657565b5b6020026020010181815250508280610e5990614686565b935050508080610e6890614686565b915050610e0d565b5084829650965050505050505b935093915050565b606060008054610e94906146fd565b80601f0160208091040260200160405190810160405280929190818152602001828054610ec0906146fd565b8015610f0d5780601f10610ee257610100808354040283529160200191610f0d565b820191906000526020600020905b815481529060010190602001808311610ef057829003601f168201915b5050505050905090565b6000610f2282612637565b6004600083815260200190815260200160002060009054906101000a900473ffffffffffffffffffffffffffffffffffffffff169050919050565b6000610f6882611de1565b90508073ffffffffffffffffffffffffffffffffffffffff168373ffffffffffffffffffffffffffffffffffffffff1603610fd8576040517f08c379a0000000000000000000000000000000000000000000000000000000008152600401610fcf906147a0565b60405180910390fd5b8073ffffffffffffffffffffffffffffffffffffffff16610ff7612764565b73ffffffffffffffffffffffffffffffffffffffff161480611026575061102581611020612764565b61251a565b5b611065576040517f08c379a000000000000000000000000000000000000000000000000000000000815260040161105c90614832565b60405180910390fd5b61106f838361276c565b505050565b6002600b54036110b9576040517f08c379a00000000000000000000000000000000000000000000000000000000081526004016110b09061489e565b60405180910390fd5b6002600b819055506110c9612825565b3273ffffffffffffffffffffffffffffffffffffffff163373ffffffffffffffffffffffffffffffffffffffff1614611137576040517f08c379a000000000000000000000000000000000000000000000000000000000815260040161112e9061490a565b60405180910390fd5b610e10600d54611147919061492a565b421015611189576040517f08c379a0000000000000000000000000000000000000000000000000000000008152600401611180906149aa565b60405180910390fd5b602060ff1660115461119b9190614615565b60105411156111df576040517f08c379a00000000000000000000000000000000000000000000000000000000081526004016111d690614a16565b60405180910390fd5b600a60156000600c60019054906101000a900460ff1660ff1660ff16815260200190815260200160002060003373ffffffffffffffffffffffffffffffffffffffff1673ffffffffffffffffffffffffffffffffffffffff1681526020019081526020016000205410611287576040517f08c379a000000000000000000000000000000000000000000000000000000000815260040161127e90614a82565b60405180910390fd5b6010600081548092919061129a90614686565b919050555060156000600c60019054906101000a900460ff1660ff1660ff16815260200190815260200160002060003373ffffffffffffffffffffffffffffffffffffffff1673ffffffffffffffffffffffffffffffffffffffff168152602001908152602001600020600081548092919061131590614686565b91905055506113263360125461286f565b602060ff166012546113389190614581565b60ff166012543373ffffffffffffffffffffffffffffffffffffffff167f4c209b5fc8ad50758f13e2e1088ba56a560dff690a1c6fef26394f4c03821c4f60405160405180910390a46012600081548092919061139490614686565b91905055506001600b81905550565b6002600b54036113e8576040517f08c379a00000000000000000000000000000000000000000000000000000000081526004016113df9061489e565b60405180910390fd5b6002600b819055506113f8612825565b3273ffffffffffffffffffffffffffffffffffffffff163373ffffffffffffffffffffffffffffffffffffffff1614611466576040517f08c379a000000000000000000000000000000000000000000000000000000000815260040161145d9061490a565b60405180910390fd5b602060ff168160ff16106114af576040517f08c379a00000000000000000000000000000000000000000000000000000000081526004016114a690614aee565b60405180910390fd5b600f54601360008360ff1660ff16815260200190815260200160002054111561150d576040517f08c379a000000000000000000000000000000000000000000000000000000000815260040161150490614a16565b60405180910390fd5b600e543414611551576040517f08c379a000000000000000000000000000000000000000000000000000000000815260040161154890614b5a565b60405180910390fd5b6000602060ff16601360008460ff1660ff1681526020019081526020016000205461157c9190614615565b8260ff1661158a919061492a565b9050601360008360ff1660ff16815260200190815260200160002060008154809291906115b690614686565b91905055506115c5338261286f565b8160ff16813373ffffffffffffffffffffffffffffffffffffffff167f1cbc5ab135991bd2b6a4b034a04aa2aa086dac1371cb9b16b8b5e2ed6b036bed60405160405180910390a4506001600b8190555050565b6015602052816000526040600020602052806000526040600020600091509150505481565b6000600880549050905090565b600e5481565b61166261165c612764565b8261288d565b6116a1576040517f08c379a000000000000000000000000000000000000000000000000000000000815260040161169890614bec565b60405180910390fd5b6116ac838383612922565b505050565b602081565b60006116c183611e97565b8210611702576040517f08c379a00000000000000000000000000000000000000000000000000000000081526004016116f990614c7e565b60405180910390fd5b600660008473ffffffffffffffffffffffffffffffffffffffff1673ffffffffffffffffffffffffffffffffffffffff168152602001908152602001600020600083815260200190815260200160002054905092915050565b60115481565b60105481565b61176f612b88565b60003373ffffffffffffffffffffffffffffffffffffffff164760405161179590614ccf565b60006040518083038185875af1925050503d80600081146117d2576040519150601f19603f3d011682016040523d82523d6000602084013e6117d7565b606091505b505090508061181b576040517f08c379a000000000000000000000000000000000000000000000000000000000815260040161181290614d30565b60405180910390fd5b50565b61183983838360405180602001604052806000815250612142565b505050565b600061184861163e565b8210611889576040517f08c379a000000000000000000000000000000000000000000000000000000000815260040161188090614dc2565b60405180910390fd5b6008828154811061189d5761189c614657565b5b90600052602060002001549050919050565b6002600b54036118f4576040517f08c379a00000000000000000000000000000000000000000000000000000000081526004016118eb9061489e565b60405180910390fd5b6002600b81905550611904612825565b3273ffffffffffffffffffffffffffffffffffffffff163373ffffffffffffffffffffffffffffffffffffffff1614611972576040517f08c379a00000000000000000000000000000000000000000000000000000000081526004016119699061490a565b60405180910390fd5b600d544210156119b7576040517f08c379a00000000000000000000000000000000000000000000000000000000081526004016119ae906149aa565b60405180910390fd5b602060ff166011546119c99190614615565b6010541115611a0d576040517f08c379a0000000000000000000000000000000000000000000000000000000008152600401611a0490614a16565b60405180910390fd5b600360166000600c60019054906101000a900460ff1660ff1660ff16815260200190815260200160002060003373ffffffffffffffffffffffffffffffffffffffff1673ffffffffffffffffffffffffffffffffffffffff1681526020019081526020016000205410611ab5576040517f08c379a0000000000000000000000000000000000000000000000000000000008152600401611aac90614e2e565b60405180910390fd5b6000611ac033612c06565b9050611b1060145482858580806020026020016040519081016040528093929190818152602001838360200280828437600081840152601f19601f82011690508083019250505050505050612c36565b611b4f576040517f08c379a0000000000000000000000000000000000000000000000000000000008152600401611b4690614e9a565b60405180910390fd5b60106000815480929190611b6290614686565b919050555060166000600c60019054906101000a900460ff1660ff1660ff16815260200190815260200160002060003373ffffffffffffffffffffffffffffffffffffffff1673ffffffffffffffffffffffffffffffffffffffff1681526020019081526020016000206000815480929190611bdd90614686565b9190505550611bee3360125461286f565b602060ff16601254611c009190614581565b60ff166012543373ffffffffffffffffffffffffffffffffffffffff167f05b3423d4a1222ae84b0faa0c24a27a29ed0d9dfeda378324947c98213e6797e60405160405180910390a460126000815480929190611c5c90614686565b9190505550506001600b819055505050565b6000600c60009054906101000a900460ff16905090565b611c8d612057565b73ffffffffffffffffffffffffffffffffffffffff163373ffffffffffffffffffffffffffffffffffffffff161480611d135750601860009054906101000a900473ffffffffffffffffffffffffffffffffffffffff1673ffffffffffffffffffffffffffffffffffffffff163373ffffffffffffffffffffffffffffffffffffffff16145b611d52576040517f08c379a0000000000000000000000000000000000000000000000000000000008152600401611d4990614f2c565b60405180910390fd5b6017600082815260200190815260200160002060009054906101000a900460ff16611db2576040517f08c379a0000000000000000000000000000000000000000000000000000000008152600401611da990614f98565b60405180910390fd5b60006017600083815260200190815260200160002060006101000a81548160ff02191690831515021790555050565b6000806002600084815260200190815260200160002060009054906101000a900473ffffffffffffffffffffffffffffffffffffffff169050600073ffffffffffffffffffffffffffffffffffffffff168173ffffffffffffffffffffffffffffffffffffffff1603611e89576040517f08c379a0000000000000000000000000000000000000000000000000000000008152600401611e8090615004565b60405180910390fd5b80915050919050565b600a81565b60008073ffffffffffffffffffffffffffffffffffffffff168273ffffffffffffffffffffffffffffffffffffffff1603611f07576040517f08c379a0000000000000000000000000000000000000000000000000000000008152600401611efe90615096565b60405180910390fd5b600360008373ffffffffffffffffffffffffffffffffffffffff1673ffffffffffffffffffffffffffffffffffffffff168152602001908152602001600020549050919050565b611f56612b88565b611f606000612c4c565b565b611f6a612b88565b83600c60016101000a81548160ff021916908360ff16021790555082600d8190555081601154611f9a919061492a565b6011819055508060148190555050505050565b611fb5612b88565b8060199081611fc49190615262565b5050565b610e1081565b60136020528060005260406000206000915090505481565b6000601054602060ff16601154611ffd9190614615565b61200791906145e1565b905090565b601860009054906101000a900473ffffffffffffffffffffffffffffffffffffffff1681565b6016602052816000526040600020602052806000526040600020600091509150505481565b6000600a60009054906101000a900473ffffffffffffffffffffffffffffffffffffffff16905090565b606060018054612090906146fd565b80601f01602080910402602001604051908101604052809291908181526020018280546120bc906146fd565b80156121095780601f106120de57610100808354040283529160200191612109565b820191906000526020600020905b8154815290600101906020018083116120ec57829003601f168201915b5050505050905090565b600c60019054906101000a900460ff1681565b60145481565b61213e612137612764565b8383612d12565b5050565b61215361214d612764565b8361288d565b612192576040517f08c379a000000000000000000000000000000000000000000000000000000000815260040161218990614bec565b60405180910390fd5b61219e84848484612e7e565b50505050565b600060156000600c60019054906101000a900460ff1660ff1660ff16815260200190815260200160002060008373ffffffffffffffffffffffffffffffffffffffff1673ffffffffffffffffffffffffffffffffffffffff16815260200190815260200160002054600a61221891906145e1565b9050919050565b600381565b60125481565b606061223582612637565b601961224083612eda565b6040516020016122519291906153f3565b6040516020818303038152906040529050919050565b600f5481565b612275612b88565b80601860006101000a81548173ffffffffffffffffffffffffffffffffffffffff021916908373ffffffffffffffffffffffffffffffffffffffff16021790555050565b600060166000600c60019054906101000a900460ff1660ff1660ff16815260200190815260200160002060008373ffffffffffffffffffffffffffffffffffffffff1673ffffffffffffffffffffffffffffffffffffffff16815260200190815260200160002054600361232d91906145e1565b9050919050565b61233c613a66565b60005b602060ff168160ff1610156123a757601360008260ff1660ff16815260200190815260200160002054600f5461237591906145e1565b828260ff166020811061238b5761238a614657565b5b602002018181525050808061239f90615417565b91505061233f565b5090565b6123b3612057565b73ffffffffffffffffffffffffffffffffffffffff163373ffffffffffffffffffffffffffffffffffffffff1614806124395750601860009054906101000a900473ffffffffffffffffffffffffffffffffffffffff1673ffffffffffffffffffffffffffffffffffffffff163373ffffffffffffffffffffffffffffffffffffffff16145b612478576040517f08c379a000000000000000000000000000000000000000000000000000000000815260040161246f90614f2c565b60405180910390fd5b6017600082815260200190815260200160002060009054906101000a900460ff16156124d9576040517f08c379a00000000000000000000000000000000000000000000000000000000081526004016124d09061548c565b60405180910390fd5b60016017600083815260200190815260200160002060006101000a81548160ff02191690831515021790555050565b612510612b88565b80600f8190555050565b6000600560008473ffffffffffffffffffffffffffffffffffffffff1673ffffffffffffffffffffffffffffffffffffffff16815260200190815260200160002060008373ffffffffffffffffffffffffffffffffffffffff1673ffffffffffffffffffffffffffffffffffffffff16815260200190815260200160002060009054906101000a900460ff16905092915050565b6125b6612b88565b600073ffffffffffffffffffffffffffffffffffffffff168173ffffffffffffffffffffffffffffffffffffffff1603612625576040517f08c379a000000000000000000000000000000000000000000000000000000000815260040161261c9061551e565b60405180910390fd5b61262e81612c4c565b50565b600d5481565b6126408161303a565b61267f576040517f08c379a000000000000000000000000000000000000000000000000000000000815260040161267690615004565b60405180910390fd5b50565b60007f80ac58cd000000000000000000000000000000000000000000000000000000007bffffffffffffffffffffffffffffffffffffffffffffffffffffffff1916827bffffffffffffffffffffffffffffffffffffffffffffffffffffffff1916148061274d57507f5b5e139f000000000000000000000000000000000000000000000000000000007bffffffffffffffffffffffffffffffffffffffffffffffffffffffff1916827bffffffffffffffffffffffffffffffffffffffffffffffffffffffff1916145b8061275d575061275c826130a6565b5b9050919050565b600033905090565b816004600083815260200190815260200160002060006101000a81548173ffffffffffffffffffffffffffffffffffffffff021916908373ffffffffffffffffffffffffffffffffffffffff160217905550808273ffffffffffffffffffffffffffffffffffffffff166127df83611de1565b73ffffffffffffffffffffffffffffffffffffffff167f8c5be1e5ebec7d5bd14f71427d1e84f3dd0314c0f7b2291e5b200ac8c7c3b92560405160405180910390a45050565b61282d611c6e565b1561286d576040517f08c379a00000000000000000000000000000000000000000000000000000000081526004016128649061558a565b60405180910390fd5b565b612889828260405180602001604052806000815250613110565b5050565b60008061289983611de1565b90508073ffffffffffffffffffffffffffffffffffffffff168473ffffffffffffffffffffffffffffffffffffffff1614806128db57506128da818561251a565b5b8061291957508373ffffffffffffffffffffffffffffffffffffffff1661290184610f17565b73ffffffffffffffffffffffffffffffffffffffff16145b91505092915050565b8273ffffffffffffffffffffffffffffffffffffffff1661294282611de1565b73ffffffffffffffffffffffffffffffffffffffff1614612998576040517f08c379a000000000000000000000000000000000000000000000000000000000815260040161298f9061561c565b60405180910390fd5b600073ffffffffffffffffffffffffffffffffffffffff168273ffffffffffffffffffffffffffffffffffffffff1603612a07576040517f08c379a00000000000000000000000000000000000000000000000000000000081526004016129fe906156ae565b60405180910390fd5b612a1283838361316b565b612a1d60008261276c565b6001600360008573ffffffffffffffffffffffffffffffffffffffff1673ffffffffffffffffffffffffffffffffffffffff1681526020019081526020016000206000828254612a6d91906145e1565b925050819055506001600360008473ffffffffffffffffffffffffffffffffffffffff1673ffffffffffffffffffffffffffffffffffffffff1681526020019081526020016000206000828254612ac4919061492a565b92505081905550816002600083815260200190815260200160002060006101000a81548173ffffffffffffffffffffffffffffffffffffffff021916908373ffffffffffffffffffffffffffffffffffffffff160217905550808273ffffffffffffffffffffffffffffffffffffffff168473ffffffffffffffffffffffffffffffffffffffff167fddf252ad1be2c89b69c2b068fc378daa952ba7f163c4a11628f55a4df523b3ef60405160405180910390a4612b83838383613212565b505050565b612b90612764565b73ffffffffffffffffffffffffffffffffffffffff16612bae612057565b73ffffffffffffffffffffffffffffffffffffffff1614612c04576040517f08c379a0000000000000000000000000000000000000000000000000000000008152600401612bfb9061571a565b60405180910390fd5b565b600081604051602001612c199190615782565b604051602081830303815290604052805190602001209050919050565b6000612c43828585613217565b90509392505050565b6000600a60009054906101000a900473ffffffffffffffffffffffffffffffffffffffff16905081600a60006101000a81548173ffffffffffffffffffffffffffffffffffffffff021916908373ffffffffffffffffffffffffffffffffffffffff1602179055508173ffffffffffffffffffffffffffffffffffffffff168173ffffffffffffffffffffffffffffffffffffffff167f8be0079c531659141344cd1fd0a4f28419497f9722a3daafe3b4186f6b6457e060405160405180910390a35050565b8173ffffffffffffffffffffffffffffffffffffffff168373ffffffffffffffffffffffffffffffffffffffff1603612d80576040517f08c379a0000000000000000000000000000000000000000000000000000000008152600401612d77906157e9565b60405180910390fd5b80600560008573ffffffffffffffffffffffffffffffffffffffff1673ffffffffffffffffffffffffffffffffffffffff16815260200190815260200160002060008473ffffffffffffffffffffffffffffffffffffffff1673ffffffffffffffffffffffffffffffffffffffff16815260200190815260200160002060006101000a81548160ff0219169083151502179055508173ffffffffffffffffffffffffffffffffffffffff168373ffffffffffffffffffffffffffffffffffffffff167f17307eab39ab6107e8899845ad3d59bd9653f200f220920489ca2b5937696c3183604051612e719190613bca565b60405180910390a3505050565b612e89848484612922565b612e958484848461322e565b612ed4576040517f08c379a0000000000000000000000000000000000000000000000000000000008152600401612ecb9061587b565b60405180910390fd5b50505050565b606060008203612f21576040518060400160405280600181526020017f30000000000000000000000000000000000000000000000000000000000000008152509050613035565b600082905060005b60008214612f53578080612f3c90614686565b915050600a82612f4c919061589b565b9150612f29565b60008167ffffffffffffffff811115612f6f57612f6e614144565b5b6040519080825280601f01601f191660200182016040528015612fa15781602001600182028036833780820191505090505b5090505b6000851461302e57600182612fba91906145e1565b9150600a85612fc99190614581565b6030612fd5919061492a565b60f81b818381518110612feb57612fea614657565b5b60200101907effffffffffffffffffffffffffffffffffffffffffffffffffffffffffffff1916908160001a905350600a85613027919061589b565b9450612fa5565b8093505050505b919050565b60008073ffffffffffffffffffffffffffffffffffffffff166002600084815260200190815260200160002060009054906101000a900473ffffffffffffffffffffffffffffffffffffffff1673ffffffffffffffffffffffffffffffffffffffff1614159050919050565b60007f01ffc9a7000000000000000000000000000000000000000000000000000000007bffffffffffffffffffffffffffffffffffffffffffffffffffffffff1916827bffffffffffffffffffffffffffffffffffffffffffffffffffffffff1916149050919050565b61311a83836133b5565b613127600084848461322e565b613166576040517f08c379a000000000000000000000000000000000000000000000000000000000815260040161315d9061587b565b60405180910390fd5b505050565b61317683838361358e565b600073ffffffffffffffffffffffffffffffffffffffff168373ffffffffffffffffffffffffffffffffffffffff16031561320d576017600082815260200190815260200160002060009054906101000a900460ff161561320c576040517f08c379a000000000000000000000000000000000000000000000000000000000815260040161320390615918565b60405180910390fd5b5b505050565b505050565b60008261322485846136a0565b1490509392505050565b600061324f8473ffffffffffffffffffffffffffffffffffffffff166136f6565b156133a8578373ffffffffffffffffffffffffffffffffffffffff1663150b7a02613278612764565b8786866040518563ffffffff1660e01b815260040161329a949392919061598d565b6020604051808303816000875af19250505080156132d657506040513d601f19601f820116820180604052508101906132d391906159ee565b60015b613358573d8060008114613306576040519150601f19603f3d011682016040523d82523d6000602084013e61330b565b606091505b506000815103613350576040517f08c379a00000000000000000000000000000000000000000000000000000000081526004016133479061587b565b60405180910390fd5b805181602001fd5b63150b7a0260e01b7bffffffffffffffffffffffffffffffffffffffffffffffffffffffff1916817bffffffffffffffffffffffffffffffffffffffffffffffffffffffff1916149150506133ad565b600190505b949350505050565b600073ffffffffffffffffffffffffffffffffffffffff168273ffffffffffffffffffffffffffffffffffffffff1603613424576040517f08c379a000000000000000000000000000000000000000000000000000000000815260040161341b90615a67565b60405180910390fd5b61342d8161303a565b1561346d576040517f08c379a000000000000000000000000000000000000000000000000000000000815260040161346490615ad3565b60405180910390fd5b6134796000838361316b565b6001600360008473ffffffffffffffffffffffffffffffffffffffff1673ffffffffffffffffffffffffffffffffffffffff16815260200190815260200160002060008282546134c9919061492a565b92505081905550816002600083815260200190815260200160002060006101000a81548173ffffffffffffffffffffffffffffffffffffffff021916908373ffffffffffffffffffffffffffffffffffffffff160217905550808273ffffffffffffffffffffffffffffffffffffffff16600073ffffffffffffffffffffffffffffffffffffffff167fddf252ad1be2c89b69c2b068fc378daa952ba7f163c4a11628f55a4df523b3ef60405160405180910390a461358a60008383613212565b5050565b613599838383613719565b600073ffffffffffffffffffffffffffffffffffffffff168373ffffffffffffffffffffffffffffffffffffffff16036135db576135d68161371e565b61361a565b8173ffffffffffffffffffffffffffffffffffffffff168373ffffffffffffffffffffffffffffffffffffffff1614613619576136188382613767565b5b5b600073ffffffffffffffffffffffffffffffffffffffff168273ffffffffffffffffffffffffffffffffffffffff160361365c57613657816138d4565b61369b565b8273ffffffffffffffffffffffffffffffffffffffff168273ffffffffffffffffffffffffffffffffffffffff161461369a5761369982826139a5565b5b5b505050565b60008082905060005b84518110156136eb576136d6828683815181106136c9576136c8614657565b5b6020026020010151613a24565b915080806136e390614686565b9150506136a9565b508091505092915050565b6000808273ffffffffffffffffffffffffffffffffffffffff163b119050919050565b505050565b6008805490506009600083815260200190815260200160002081905550600881908060018154018082558091505060019003906000526020600020016000909190919091505550565b6000600161377484611e97565b61377e91906145e1565b9050600060076000848152602001908152602001600020549050818114613863576000600660008673ffffffffffffffffffffffffffffffffffffffff1673ffffffffffffffffffffffffffffffffffffffff168152602001908152602001600020600084815260200190815260200160002054905080600660008773ffffffffffffffffffffffffffffffffffffffff1673ffffffffffffffffffffffffffffffffffffffff168152602001908152602001600020600084815260200190815260200160002081905550816007600083815260200190815260200160002081905550505b6007600084815260200190815260200160002060009055600660008573ffffffffffffffffffffffffffffffffffffffff1673ffffffffffffffffffffffffffffffffffffffff16815260200190815260200160002060008381526020019081526020016000206000905550505050565b600060016008805490506138e891906145e1565b905060006009600084815260200190815260200160002054905060006008838154811061391857613917614657565b5b90600052602060002001549050806008838154811061393a57613939614657565b5b90600052602060002001819055508160096000838152602001908152602001600020819055506009600085815260200190815260200160002060009055600880548061398957613988615af3565b5b6001900381819060005260206000200160009055905550505050565b60006139b083611e97565b905081600660008573ffffffffffffffffffffffffffffffffffffffff1673ffffffffffffffffffffffffffffffffffffffff168152602001908152602001600020600083815260200190815260200160002081905550806007600084815260200190815260200160002081905550505050565b6000818310613a3c57613a378284613a4f565b613a47565b613a468383613a4f565b5b905092915050565b600082600052816020526040600020905092915050565b604051806104000160405280602090602082028036833780820191505090505090565b6000604051905090565b600080fd5b600080fd5b6000819050919050565b613ab081613a9d565b8114613abb57600080fd5b50565b600081359050613acd81613aa7565b92915050565b600060208284031215613ae957613ae8613a93565b5b6000613af784828501613abe565b91505092915050565b613b0981613a9d565b82525050565b6000602082019050613b246000830184613b00565b92915050565b60007fffffffff0000000000000000000000000000000000000000000000000000000082169050919050565b613b5f81613b2a565b8114613b6a57600080fd5b50565b600081359050613b7c81613b56565b92915050565b600060208284031215613b9857613b97613a93565b5b6000613ba684828501613b6d565b91505092915050565b60008115159050919050565b613bc481613baf565b82525050565b6000602082019050613bdf6000830184613bbb565b92915050565b600073ffffffffffffffffffffffffffffffffffffffff82169050919050565b6000613c1082613be5565b9050919050565b613c2081613c05565b8114613c2b57600080fd5b50565b600081359050613c3d81613c17565b92915050565b600080600060608486031215613c5c57613c5b613a93565b5b6000613c6a86828701613c2e565b9350506020613c7b86828701613abe565b9250506040613c8c86828701613abe565b9150509250925092565b600081519050919050565b600082825260208201905092915050565b6000819050602082019050919050565b613ccb81613a9d565b82525050565b6000613cdd8383613cc2565b60208301905092915050565b6000602082019050919050565b6000613d0182613c96565b613d0b8185613ca1565b9350613d1683613cb2565b8060005b83811015613d47578151613d2e8882613cd1565b9750613d3983613ce9565b925050600181019050613d1a565b5085935050505092915050565b6000604082019050613d696000830185613b00565b8181036020830152613d7b8184613cf6565b90509392505050565b600081519050919050565b600082825260208201905092915050565b60005b83811015613dbe578082015181840152602081019050613da3565b60008484015250505050565b6000601f19601f8301169050919050565b6000613de682613d84565b613df08185613d8f565b9350613e00818560208601613da0565b613e0981613dca565b840191505092915050565b60006020820190508181036000830152613e2e8184613ddb565b905092915050565b613e3f81613c05565b82525050565b6000602082019050613e5a6000830184613e36565b92915050565b60008060408385031215613e7757613e76613a93565b5b6000613e8585828601613c2e565b9250506020613e9685828601613abe565b9150509250929050565b600060ff82169050919050565b613eb681613ea0565b8114613ec157600080fd5b50565b600081359050613ed381613ead565b92915050565b600060208284031215613eef57613eee613a93565b5b6000613efd84828501613ec4565b91505092915050565b60008060408385031215613f1d57613f1c613a93565b5b6000613f2b85828601613ec4565b9250506020613f3c85828601613c2e565b9150509250929050565b600080600060608486031215613f5f57613f5e613a93565b5b6000613f6d86828701613c2e565b9350506020613f7e86828701613c2e565b9250506040613f8f86828701613abe565b9150509250925092565b613fa281613ea0565b82525050565b6000602082019050613fbd6000830184613f99565b92915050565b600080fd5b600080fd5b600080fd5b60008083601f840112613fe857613fe7613fc3565b5b8235905067ffffffffffffffff81111561400557614004613fc8565b5b60208301915083602082028301111561402157614020613fcd565b5b9250929050565b6000806020838503121561403f5761403e613a93565b5b600083013567ffffffffffffffff81111561405d5761405c613a98565b5b61406985828601613fd2565b92509250509250929050565b60006020828403121561408b5761408a613a93565b5b600061409984828501613c2e565b91505092915050565b6000819050919050565b6140b5816140a2565b81146140c057600080fd5b50565b6000813590506140d2816140ac565b92915050565b600080600080608085870312156140f2576140f1613a93565b5b600061410087828801613ec4565b945050602061411187828801613abe565b935050604061412287828801613abe565b9250506060614133878288016140c3565b91505092959194509250565b600080fd5b7f4e487b7100000000000000000000000000000000000000000000000000000000600052604160045260246000fd5b61417c82613dca565b810181811067ffffffffffffffff8211171561419b5761419a614144565b5b80604052505050565b60006141ae613a89565b90506141ba8282614173565b919050565b600067ffffffffffffffff8211156141da576141d9614144565b5b6141e382613dca565b9050602081019050919050565b82818337600083830152505050565b600061421261420d846141bf565b6141a4565b90508281526020810184848401111561422e5761422d61413f565b5b6142398482856141f0565b509392505050565b600082601f83011261425657614255613fc3565b5b81356142668482602086016141ff565b91505092915050565b60006020828403121561428557614284613a93565b5b600082013567ffffffffffffffff8111156142a3576142a2613a98565b5b6142af84828501614241565b91505092915050565b6142c1816140a2565b82525050565b60006020820190506142dc60008301846142b8565b92915050565b6142eb81613baf565b81146142f657600080fd5b50565b600081359050614308816142e2565b92915050565b6000806040838503121561432557614324613a93565b5b600061433385828601613c2e565b9250506020614344858286016142f9565b9150509250929050565b600067ffffffffffffffff82111561436957614368614144565b5b61437282613dca565b9050602081019050919050565b600061439261438d8461434e565b6141a4565b9050828152602081018484840111156143ae576143ad61413f565b5b6143b98482856141f0565b509392505050565b600082601f8301126143d6576143d5613fc3565b5b81356143e684826020860161437f565b91505092915050565b6000806000806080858703121561440957614408613a93565b5b600061441787828801613c2e565b945050602061442887828801613c2e565b935050604061443987828801613abe565b925050606085013567ffffffffffffffff81111561445a57614459613a98565b5b614466878288016143c1565b91505092959194509250565b600060209050919050565b600081905092915050565b6000819050919050565b6000602082019050919050565b6144a881614472565b6144b2818461447d565b92506144bd82614488565b8060005b838110156144ee5781516144d58782613cd1565b96506144e083614492565b9250506001810190506144c1565b505050505050565b60006104008201905061450c600083018461449f565b92915050565b6000806040838503121561452957614528613a93565b5b600061453785828601613c2e565b925050602061454885828601613c2e565b9150509250929050565b7f4e487b7100000000000000000000000000000000000000000000000000000000600052601260045260246000fd5b600061458c82613a9d565b915061459783613a9d565b9250826145a7576145a6614552565b5b828206905092915050565b7f4e487b7100000000000000000000000000000000000000000000000000000000600052601160045260246000fd5b60006145ec82613a9d565b91506145f783613a9d565b925082820390508181111561460f5761460e6145b2565b5b92915050565b600061462082613a9d565b915061462b83613a9d565b925082820261463981613a9d565b915082820484148315176146505761464f6145b2565b5b5092915050565b7f4e487b7100000000000000000000000000000000000000000000000000000000600052603260045260246000fd5b600061469182613a9d565b91507fffffffffffffffffffffffffffffffffffffffffffffffffffffffffffffffff82036146c3576146c26145b2565b5b600182019050919050565b7f4e487b7100000000000000000000000000000000000000000000000000000000600052602260045260246000fd5b6000600282049050600182168061471557607f821691505b602082108103614728576147276146ce565b5b50919050565b7f4552433732313a20617070726f76616c20746f2063757272656e74206f776e6560008201527f7200000000000000000000000000000000000000000000000000000000000000602082015250565b600061478a602183613d8f565b91506147958261472e565b604082019050919050565b600060208201905081810360008301526147b98161477d565b9050919050565b7f4552433732313a20617070726f76652063616c6c6572206973206e6f7420746f60008201527f6b656e206f776e6572206e6f7220617070726f76656420666f7220616c6c0000602082015250565b600061481c603e83613d8f565b9150614827826147c0565b604082019050919050565b6000602082019050818103600083015261484b8161480f565b9050919050565b7f5265656e7472616e637947756172643a207265656e7472616e742063616c6c00600082015250565b6000614888601f83613d8f565b915061489382614852565b602082019050919050565b600060208201905081810360008301526148b78161487b565b9050919050565b7f53656e646572206973206e6f7420454f41000000000000000000000000000000600082015250565b60006148f4601183613d8f565b91506148ff826148be565b602082019050919050565b60006020820190508181036000830152614923816148e7565b9050919050565b600061493582613a9d565b915061494083613a9d565b9250828201905080821115614958576149576145b2565b5b92915050565b7f6e6f742073746172740000000000000000000000000000000000000000000000600082015250565b6000614994600983613d8f565b915061499f8261495e565b602082019050919050565b600060208201905081810360008301526149c381614987565b9050919050565b7f736f6c64206f7574000000000000000000000000000000000000000000000000600082015250565b6000614a00600883613d8f565b9150614a0b826149ca565b602082019050919050565b60006020820190508181036000830152614a2f816149f3565b9050919050565b7f6d696e74206c696d697420666f72206672656500000000000000000000000000600082015250565b6000614a6c601383613d8f565b9150614a7782614a36565b602082019050919050565b60006020820190508181036000830152614a9b81614a5f565b9050919050565b7f696e76616c696420706172616d65746572000000000000000000000000000000600082015250565b6000614ad8601183613d8f565b9150614ae382614aa2565b602082019050919050565b60006020820190508181036000830152614b0781614acb565b9050919050565b7f696e76616c6964204554482062616c616e636500000000000000000000000000600082015250565b6000614b44601383613d8f565b9150614b4f82614b0e565b602082019050919050565b60006020820190508181036000830152614b7381614b37565b9050919050565b7f4552433732313a2063616c6c6572206973206e6f7420746f6b656e206f776e6560008201527f72206e6f7220617070726f766564000000000000000000000000000000000000602082015250565b6000614bd6602e83613d8f565b9150614be182614b7a565b604082019050919050565b60006020820190508181036000830152614c0581614bc9565b9050919050565b7f455243373231456e756d657261626c653a206f776e657220696e646578206f7560008201527f74206f6620626f756e6473000000000000000000000000000000000000000000602082015250565b6000614c68602b83613d8f565b9150614c7382614c0c565b604082019050919050565b60006020820190508181036000830152614c9781614c5b565b9050919050565b600081905092915050565b50565b6000614cb9600083614c9e565b9150614cc482614ca9565b600082019050919050565b6000614cda82614cac565b9150819050919050565b7f4574686572207472616e73666572206661696c65640000000000000000000000600082015250565b6000614d1a601583613d8f565b9150614d2582614ce4565b602082019050919050565b60006020820190508181036000830152614d4981614d0d565b9050919050565b7f455243373231456e756d657261626c653a20676c6f62616c20696e646578206f60008201527f7574206f6620626f756e64730000000000000000000000000000000000000000602082015250565b6000614dac602c83613d8f565b9150614db782614d50565b604082019050919050565b60006020820190508181036000830152614ddb81614d9f565b9050919050565b7f6d696e74206c696d697420666f722077686974656c6973740000000000000000600082015250565b6000614e18601883613d8f565b9150614e2382614de2565b602082019050919050565b60006020820190508181036000830152614e4781614e0b565b9050919050565b7f6261642077686974656c697374206d65726b6c652070726f6f66000000000000600082015250565b6000614e84601a83613d8f565b9150614e8f82614e4e565b602082019050919050565b60006020820190508181036000830152614eb381614e77565b9050919050565b7f63616c6c6572206973206e6f74206f776e6572206f722070726564696374206360008201527f6f6e747261637400000000000000000000000000000000000000000000000000602082015250565b6000614f16602783613d8f565b9150614f2182614eba565b604082019050919050565b60006020820190508181036000830152614f4581614f09565b9050919050565b7f746f6b656e206973206e6f74206c6f636b656400000000000000000000000000600082015250565b6000614f82601383613d8f565b9150614f8d82614f4c565b602082019050919050565b60006020820190508181036000830152614fb181614f75565b9050919050565b7f4552433732313a20696e76616c696420746f6b656e2049440000000000000000600082015250565b6000614fee601883613d8f565b9150614ff982614fb8565b602082019050919050565b6000602082019050818103600083015261501d81614fe1565b9050919050565b7f4552433732313a2061646472657373207a65726f206973206e6f74206120766160008201527f6c6964206f776e65720000000000000000000000000000000000000000000000602082015250565b6000615080602983613d8f565b915061508b82615024565b604082019050919050565b600060208201905081810360008301526150af81615073565b9050919050565b60008190508160005260206000209050919050565b60006020601f8301049050919050565b600082821b905092915050565b6000600883026151187fffffffffffffffffffffffffffffffffffffffffffffffffffffffffffffffff826150db565b61512286836150db565b95508019841693508086168417925050509392505050565b6000819050919050565b600061515f61515a61515584613a9d565b61513a565b613a9d565b9050919050565b6000819050919050565b61517983615144565b61518d61518582615166565b8484546150e8565b825550505050565b600090565b6151a2615195565b6151ad818484615170565b505050565b5b818110156151d1576151c660008261519a565b6001810190506151b3565b5050565b601f821115615216576151e7816150b6565b6151f0846150cb565b810160208510156151ff578190505b61521361520b856150cb565b8301826151b2565b50505b505050565b600082821c905092915050565b60006152396000198460080261521b565b1980831691505092915050565b60006152528383615228565b9150826002028217905092915050565b61526b82613d84565b67ffffffffffffffff81111561528457615283614144565b5b61528e82546146fd565b6152998282856151d5565b600060209050601f8311600181146152cc57600084156152ba578287015190505b6152c48582615246565b86555061532c565b601f1984166152da866150b6565b60005b82811015615302578489015182556001820191506020850194506020810190506152dd565b8683101561531f578489015161531b601f891682615228565b8355505b6001600288020188555050505b505050505050565b600081905092915050565b6000815461534c816146fd565b6153568186615334565b945060018216600081146153715760018114615386576153b9565b60ff19831686528115158202860193506153b9565b61538f856150b6565b60005b838110156153b157815481890152600182019150602081019050615392565b838801955050505b50505092915050565b60006153cd82613d84565b6153d78185615334565b93506153e7818560208601613da0565b80840191505092915050565b60006153ff828561533f565b915061540b82846153c2565b91508190509392505050565b600061542282613ea0565b915060ff8203615435576154346145b2565b5b600182019050919050565b7f746f6b656e20616c7265616479206c6f636b6564000000000000000000000000600082015250565b6000615476601483613d8f565b915061548182615440565b602082019050919050565b600060208201905081810360008301526154a581615469565b9050919050565b7f4f776e61626c653a206e6577206f776e657220697320746865207a65726f206160008201527f6464726573730000000000000000000000000000000000000000000000000000602082015250565b6000615508602683613d8f565b9150615513826154ac565b604082019050919050565b60006020820190508181036000830152615537816154fb565b9050919050565b7f5061757361626c653a2070617573656400000000000000000000000000000000600082015250565b6000615574601083613d8f565b915061557f8261553e565b602082019050919050565b600060208201905081810360008301526155a381615567565b9050919050565b7f4552433732313a207472616e736665722066726f6d20696e636f72726563742060008201527f6f776e6572000000000000000000000000000000000000000000000000000000602082015250565b6000615606602583613d8f565b9150615611826155aa565b604082019050919050565b60006020820190508181036000830152615635816155f9565b9050919050565b7f4552433732313a207472616e7366657220746f20746865207a65726f2061646460008201527f7265737300000000000000000000000000000000000000000000000000000000602082015250565b6000615698602483613d8f565b91506156a38261563c565b604082019050919050565b600060208201905081810360008301526156c78161568b565b9050919050565b7f4f776e61626c653a2063616c6c6572206973206e6f7420746865206f776e6572600082015250565b6000615704602083613d8f565b915061570f826156ce565b602082019050919050565b60006020820190508181036000830152615733816156f7565b9050919050565b60008160601b9050919050565b60006157528261573a565b9050919050565b600061576482615747565b9050919050565b61577c61577782613c05565b615759565b82525050565b600061578e828461576b565b60148201915081905092915050565b7f4552433732313a20617070726f766520746f2063616c6c657200000000000000600082015250565b60006157d3601983613d8f565b91506157de8261579d565b602082019050919050565b60006020820190508181036000830152615802816157c6565b9050919050565b7f4552433732313a207472616e7366657220746f206e6f6e20455243373231526560008201527f63656976657220696d706c656d656e7465720000000000000000000000000000602082015250565b6000615865603283613d8f565b915061587082615809565b604082019050919050565b6000602082019050818103600083015261589481615858565b9050919050565b60006158a682613a9d565b91506158b183613a9d565b9250826158c1576158c0614552565b5b828204905092915050565b7f746f6b656e206c6f636b656420696e2070726564696374696f6e000000000000600082015250565b6000615902601a83613d8f565b915061590d826158cc565b602082019050919050565b60006020820190508181036000830152615931816158f5565b9050919050565b600081519050919050565b600082825260208201905092915050565b600061595f82615938565b6159698185615943565b9350615979818560208601613da0565b61598281613dca565b840191505092915050565b60006080820190506159a26000830187613e36565b6159af6020830186613e36565b6159bc6040830185613b00565b81810360608301526159ce8184615954565b905095945050505050565b6000815190506159e881613b56565b92915050565b600060208284031215615a0457615a03613a93565b5b6000615a12848285016159d9565b91505092915050565b7f4552433732313a206d696e7420746f20746865207a65726f2061646472657373600082015250565b6000615a51602083613d8f565b9150615a5c82615a1b565b602082019050919050565b60006020820190508181036000830152615a8081615a44565b9050919050565b7f4552433732313a20746f6b656e20616c7265616479206d696e74656400000000600082015250565b6000615abd601c83613d8f565b9150615ac882615a87565b602082019050919050565b60006020820190508181036000830152615aec81615ab0565b9050919050565b7f4e487b7100000000000000000000000000000000000000000000000000000000600052603160045260246000fdfea26469706673582212206a5f104c627612f9cee83d216da349dec1dfc16390f2f11de4ce3e6f7039b58e64736f6c63430008110033",
  "linkReferences": {},
  "deployedLinkReferences": {}
}