{
  "_format": "hh-sol-artifact-1",
  "contractName": "GroupPredict",
  "sourceName": "contracts/GroupPredict.sol",
  "abi": [
    {
      "inputs": [
        {
          "internalType": "contract IGroupNFT",
          "name": "nft",
          "type": "address"
        },
        {
          "internalType": "contract ERC20PresetMinterPauser",
          "name": "token",
          "type": "address"
        },
        {
          "internalType": "uint256",
          "name": "rewardAmt",
          "type": "uint256"
        }
      ],
      "stateMutability": "nonpayable",
      "type": "constructor"
    },
    {
      "anonymous": false,
      "inputs": [
        {
          "indexed": true,
          "internalType": "address",
          "name": "previousOwner",
          "type": "address"
        },
        {
          "indexed": true,
          "internalType": "address",
          "name": "newOwner",
          "type": "address"
        }
      ],
      "name": "OwnershipTransferred",
      "type": "event"
    },
    {
      "anonymous": false,
      "inputs": [
        {
          "indexed": false,
          "internalType": "address",
          "name": "account",
          "type": "address"
        }
      ],
      "name": "Paused",
      "type": "event"
    },
    {
      "anonymous": false,
      "inputs": [
        {
          "indexed": false,
          "internalType": "address",
          "name": "account",
          "type": "address"
        }
      ],
      "name": "Unpaused",
      "type": "event"
    },
    {
      "inputs": [],
      "name": "GroupNFT",
      "outputs": [
        {
          "internalType": "contract IGroupNFT",
          "name": "",
          "type": "address"
        }
      ],
      "stateMutability": "view",
      "type": "function"
    },
    {
      "inputs": [],
      "name": "NFTBToken",
      "outputs": [
        {
          "internalType": "contract ERC20PresetMinterPauser",
          "name": "",
          "type": "address"
        }
      ],
      "stateMutability": "view",
      "type": "function"
    },
    {
      "inputs": [],
      "name": "TEAM_COUNT",
      "outputs": [
        {
          "internalType": "uint8",
          "name": "",
          "type": "uint8"
        }
      ],
      "stateMutability": "view",
      "type": "function"
    },
    {
      "inputs": [
        {
          "internalType": "uint8",
          "name": "",
          "type": "uint8"
        }
      ],
      "name": "_gameDrawPredictCount",
      "outputs": [
        {
          "internalType": "uint256",
          "name": "",
          "type": "uint256"
        }
      ],
      "stateMutability": "view",
      "type": "function"
    },
    {
      "inputs": [
        {
          "internalType": "uint8",
          "name": "",
          "type": "uint8"
        }
      ],
      "name": "_gameLosePredictCount",
      "outputs": [
        {
          "internalType": "uint256",
          "name": "",
          "type": "uint256"
        }
      ],
      "stateMutability": "view",
      "type": "function"
    },
    {
      "inputs": [
        {
          "internalType": "uint8",
          "name": "",
          "type": "uint8"
        }
      ],
      "name": "_gameWinPredictCount",
      "outputs": [
        {
          "internalType": "uint256",
          "name": "",
          "type": "uint256"
        }
      ],
      "stateMutability": "view",
      "type": "function"
    },
    {
      "inputs": [
        {
          "internalType": "uint8",
          "name": "",
          "type": "uint8"
        }
      ],
      "name": "_games",
      "outputs": [
        {
          "internalType": "uint8",
          "name": "homeTeam",
          "type": "uint8"
        },
        {
          "internalType": "uint8",
          "name": "awayTeam",
          "type": "uint8"
        },
        {
          "internalType": "uint256",
          "name": "deadline",
          "type": "uint256"
        },
        {
          "internalType": "uint8",
          "name": "homeScore",
          "type": "uint8"
        },
        {
          "internalType": "uint8",
          "name": "awayScore",
          "type": "uint8"
        },
        {
          "internalType": "enum GroupPredict.GameResult",
          "name": "result",
          "type": "uint8"
        }
      ],
      "stateMutability": "view",
      "type": "function"
    },
    {
      "inputs": [],
      "name": "_predictId",
      "outputs": [
        {
          "internalType": "uint256",
          "name": "",
          "type": "uint256"
        }
      ],
      "stateMutability": "view",
      "type": "function"
    },
    {
      "inputs": [
        {
          "internalType": "uint256",
          "name": "",
          "type": "uint256"
        }
      ],
      "name": "_predictInfos",
      "outputs": [
        {
          "internalType": "uint8",
          "name": "gameId",
          "type": "uint8"
        },
        {
          "internalType": "uint256",
          "name": "time",
          "type": "uint256"
        },
        {
          "internalType": "enum GroupPredict.GameResult",
          "name": "result",
          "type": "uint8"
        },
        {
          "internalType": "uint256",
          "name": "count",
          "type": "uint256"
        },
        {
          "internalType": "address",
          "name": "userAddr",
          "type": "address"
        },
        {
          "internalType": "bool",
          "name": "isClaimed",
          "type": "bool"
        }
      ],
      "stateMutability": "view",
      "type": "function"
    },
    {
      "inputs": [
        {
          "internalType": "uint256",
          "name": "",
          "type": "uint256"
        }
      ],
      "name": "_tokenPredictInfos",
      "outputs": [
        {
          "internalType": "uint256",
          "name": "",
          "type": "uint256"
        }
      ],
      "stateMutability": "view",
      "type": "function"
    },
    {
      "inputs": [
        {
          "internalType": "address",
          "name": "",
          "type": "address"
        },
        {
          "internalType": "uint256",
          "name": "",
          "type": "uint256"
        }
      ],
      "name": "_userPredicts",
      "outputs": [
        {
          "internalType": "uint256",
          "name": "",
          "type": "uint256"
        }
      ],
      "stateMutability": "view",
      "type": "function"
    },
    {
      "inputs": [
        {
          "internalType": "uint256",
          "name": "predictId",
          "type": "uint256"
        }
      ],
      "name": "claim",
      "outputs": [],
      "stateMutability": "nonpayable",
      "type": "function"
    },
    {
      "inputs": [
        {
          "internalType": "uint8[]",
          "name": "gameIds",
          "type": "uint8[]"
        }
      ],
      "name": "getGameByIds",
      "outputs": [
        {
          "components": [
            {
              "internalType": "uint8",
              "name": "homeTeam",
              "type": "uint8"
            },
            {
              "internalType": "uint8",
              "name": "awayTeam",
              "type": "uint8"
            },
            {
              "internalType": "uint256",
              "name": "deadline",
              "type": "uint256"
            },
            {
              "internalType": "uint8",
              "name": "homeScore",
              "type": "uint8"
            },
            {
              "internalType": "uint8",
              "name": "awayScore",
              "type": "uint8"
            },
            {
              "internalType": "enum GroupPredict.GameResult",
              "name": "result",
              "type": "uint8"
            }
          ],
          "internalType": "struct GroupPredict.Game[]",
          "name": "",
          "type": "tuple[]"
        }
      ],
      "stateMutability": "view",
      "type": "function"
    },
    {
      "inputs": [
        {
          "internalType": "address",
          "name": "userAddr",
          "type": "address"
        },
        {
          "internalType": "uint256",
          "name": "pageNum",
          "type": "uint256"
        },
        {
          "internalType": "uint256",
          "name": "pageSize",
          "type": "uint256"
        }
      ],
      "name": "getPredictsByUser",
      "outputs": [
        {
          "internalType": "uint256",
          "name": "",
          "type": "uint256"
        },
        {
          "components": [
            {
              "internalType": "uint256",
              "name": "id",
              "type": "uint256"
            },
            {
              "internalType": "uint256",
              "name": "time",
              "type": "uint256"
            },
            {
              "internalType": "uint8",
              "name": "homeTeamId",
              "type": "uint8"
            },
            {
              "internalType": "uint8",
              "name": "awayTeamId",
              "type": "uint8"
            },
            {
              "internalType": "uint8",
              "name": "homeScore",
              "type": "uint8"
            },
            {
              "internalType": "uint8",
              "name": "awayScore",
              "type": "uint8"
            },
            {
              "internalType": "enum GroupPredict.GameResult",
              "name": "result",
              "type": "uint8"
            },
            {
              "internalType": "uint256",
              "name": "count",
              "type": "uint256"
            },
            {
              "internalType": "uint256",
              "name": "reward",
              "type": "uint256"
            },
            {
              "internalType": "bool",
              "name": "isClaimed",
              "type": "bool"
            }
          ],
          "internalType": "struct GroupPredict.PredictResult[]",
          "name": "",
          "type": "tuple[]"
        }
      ],
      "stateMutability": "view",
      "type": "function"
    },
    {
      "inputs": [],
      "name": "getRewardAmount",
      "outputs": [
        {
          "internalType": "uint256",
          "name": "",
          "type": "uint256"
        }
      ],
      "stateMutability": "view",
      "type": "function"
    },
    {
      "inputs": [
        {
          "internalType": "uint8",
          "name": "gameId",
          "type": "uint8"
        }
      ],
      "name": "getTotalPredictCountByGame",
      "outputs": [
        {
          "internalType": "uint256",
          "name": "",
          "type": "uint256"
        }
      ],
      "stateMutability": "view",
      "type": "function"
    },
    {
      "inputs": [
        {
          "internalType": "address",
          "name": "userAddr",
          "type": "address"
        },
        {
          "internalType": "uint8",
          "name": "gameId",
          "type": "uint8"
        }
      ],
      "name": "getUserNFTByGameAndNotPredicted",
      "outputs": [
        {
          "internalType": "uint256[]",
          "name": "",
          "type": "uint256[]"
        }
      ],
      "stateMutability": "view",
      "type": "function"
    },
    {
      "inputs": [
        {
          "internalType": "address",
          "name": "userAddr",
          "type": "address"
        },
        {
          "internalType": "uint8",
          "name": "team",
          "type": "uint8"
        }
      ],
      "name": "getUserNFTByTeamAndNotPredicted",
      "outputs": [
        {
          "internalType": "uint256[]",
          "name": "",
          "type": "uint256[]"
        }
      ],
      "stateMutability": "view",
      "type": "function"
    },
    {
      "inputs": [],
      "name": "owner",
      "outputs": [
        {
          "internalType": "address",
          "name": "",
          "type": "address"
        }
      ],
      "stateMutability": "view",
      "type": "function"
    },
    {
      "inputs": [],
      "name": "paused",
      "outputs": [
        {
          "internalType": "bool",
          "name": "",
          "type": "bool"
        }
      ],
      "stateMutability": "view",
      "type": "function"
    },
    {
      "inputs": [
        {
          "internalType": "uint8",
          "name": "gameId",
          "type": "uint8"
        },
        {
          "internalType": "uint256[]",
          "name": "homeTeamTokenIds",
          "type": "uint256[]"
        },
        {
          "internalType": "uint256[]",
          "name": "awayTeamTokenIds",
          "type": "uint256[]"
        },
        {
          "internalType": "enum GroupPredict.GameResult",
          "name": "result",
          "type": "uint8"
        }
      ],
      "name": "predict",
      "outputs": [],
      "stateMutability": "nonpayable",
      "type": "function"
    },
    {
      "inputs": [],
      "name": "renounceOwnership",
      "outputs": [],
      "stateMutability": "nonpayable",
      "type": "function"
    },
    {
      "inputs": [
        {
          "internalType": "uint8[]",
          "name": "ids",
          "type": "uint8[]"
        },
        {
          "internalType": "uint8[]",
          "name": "homeTeams",
          "type": "uint8[]"
        },
        {
          "internalType": "uint8[]",
          "name": "awayTeams",
          "type": "uint8[]"
        },
        {
          "internalType": "uint256[]",
          "name": "deadlines",
          "type": "uint256[]"
        }
      ],
      "name": "setGames",
      "outputs": [],
      "stateMutability": "nonpayable",
      "type": "function"
    },
    {
      "inputs": [
        {
          "internalType": "uint8[]",
          "name": "ids",
          "type": "uint8[]"
        },
        {
          "internalType": "uint8[]",
          "name": "homeScores",
          "type": "uint8[]"
        },
        {
          "internalType": "uint8[]",
          "name": "awayScores",
          "type": "uint8[]"
        },
        {
          "internalType": "enum GroupPredict.GameResult[]",
          "name": "results",
          "type": "uint8[]"
        }
      ],
      "name": "setResults",
      "outputs": [],
      "stateMutability": "nonpayable",
      "type": "function"
    },
    {
      "inputs": [
        {
          "internalType": "address",
          "name": "newOwner",
          "type": "address"
        }
      ],
      "name": "transferOwnership",
      "outputs": [],
      "stateMutability": "nonpayable",
      "type": "function"
    }
  ],
  "bytecode": "0x60806040523480156200001157600080fd5b5060405162002d7738038062002d778339810160408190526200003491620000ee565b6200003f3362000085565b60018055600280546001600160a81b0319166101006001600160a01b0395861602179055600380546001600160a01b031916929093169190911790915560045562000136565b600080546001600160a01b038381166001600160a01b0319831681178455604051919092169283917f8be0079c531659141344cd1fd0a4f28419497f9722a3daafe3b4186f6b6457e09190a35050565b6001600160a01b0381168114620000eb57600080fd5b50565b6000806000606084860312156200010457600080fd5b83516200011181620000d5565b60208501519093506200012481620000d5565b80925050604084015190509250925092565b612c3180620001466000396000f3fe608060405234801561001057600080fd5b50600436106101725760003560e01c80636e6fd356116100de578063cf9d035211610097578063ef343f5011610071578063ef343f5014610406578063f2fde38b14610426578063f3d2dee614610439578063fe59165c1461044c57600080fd5b8063cf9d0352146103bf578063e3fac264146103e0578063e7a2bba0146103f357600080fd5b80636e6fd35614610352578063715018a61461035b57806379b00b6e1461036357806381b8a9d81461037b5780638da5cb5b1461038e578063c258038a1461039f57600080fd5b80633096dfc9116101305780633096dfc91461023757806333ec38601461024a578063379607f5146102ac5780634464b186146102c15780635c975abb146103295780636de5e2e01461033f57600080fd5b8062276a50146101775780630332086e146101a7578063087a622f146101d557806309a69f57146101f55780631f23ab6b146101fd578063263df1d11461021d575b600080fd5b60035461018a906001600160a01b031681565b6040516001600160a01b0390911681526020015b60405180910390f35b6101c76101b53660046123e9565b60066020526000908152604090205481565b60405190815260200161019e565b6101e86101e33660046124dd565b61046c565b60405161019e9190612552565b6004546101c7565b61021061020b3660046125f7565b6105e5565b60405161019e919061262c565b610225602081565b60405160ff909116815260200161019e565b6102106102453660046125f7565b610922565b61029a6102583660046123e9565b60056020526000908152604090208054600182015460029092015460ff8083169361010093849004821693909280831692918104821691620100009091041686565b60405161019e96959493929190612670565b6102bf6102ba3660046126b1565b610bc8565b005b6103176102cf3660046126b1565b600b6020526000908152604090208054600182015460028301546003840154600485015460069095015460ff9485169593949283169391926001600160a01b03909216911686565b60405161019e969594939291906126ca565b60025460ff16604051901515815260200161019e565b6101c761034d366004612710565b610fc8565b6101c760095481565b6102bf610ff9565b60025461018a9061010090046001600160a01b031681565b6101c76103893660046123e9565b61100d565b6000546001600160a01b031661018a565b6101c76103ad3660046123e9565b60076020526000908152604090205481565b6103d26103cd36600461273c565b611049565b60405161019e929190612771565b6102bf6103ee366004612844565b61141a565b6102bf6104013660046129a6565b61163a565b6101c76104143660046123e9565b60086020526000908152604090205481565b6102bf610434366004612a53565b61184e565b6102bf610447366004612a70565b6118c7565b6101c761045a3660046126b1565b600a6020526000908152604090205481565b60606000825167ffffffffffffffff81111561048a5761048a61240b565b6040519080825280602002602001820160405280156104f157816020015b6104de6040805160c08101825260008082526020820181905291810182905260608101829052608081018290529060a082015290565b8152602001906001900390816104a85790505b50905060005b83518110156105de576005600085838151811061051657610516612af5565b60209081029190910181015160ff9081168352828201939093526040918201600020825160c08101845281548086168252610100908190048616938201939093526001820154938101939093526002810154808516606085015291820484166080840152919260a08401916201000090041660038111156105995761059961251a565b60038111156105aa576105aa61251a565b815250508282815181106105c0576105c0612af5565b602002602001018190525080806105d690612b21565b9150506104f7565b5092915050565b60ff81166000908152600560205260409020600101546060906106405760405162461bcd60e51b815260206004820152600e60248201526d19d85b59481b9bdd08195e1a5cdd60921b60448201526064015b60405180910390fd5b6002546040516370a0823160e01b81526001600160a01b038581166004830152600092610100900416906370a0823190602401602060405180830381865afa158015610690573d6000803e3d6000fd5b505050506040513d601f19601f820116820180604052508101906106b49190612b3a565b90506000808267ffffffffffffffff8111156106d2576106d261240b565b6040519080825280602002602001820160405280156106fb578160200160208202803683370190505b50905060005b8381101561083a57600254604051632f745c5960e01b81526001600160a01b0389811660048301526024820184905260009261010090041690632f745c5990604401602060405180830381865afa158015610760573d6000803e3d6000fd5b505050506040513d601f19601f820116820180604052508101906107849190612b3a565b60ff8089166000908152600560209081526040909120549293509116906107ab9083612b53565b14806107de575060ff8088166000908152600560209081526040909120546101009004909116906107dc9083612b53565b145b80156107f657506000818152600a6020526040902054155b15610827578083858151811061080e5761080e612af5565b60209081029190910101528361082381612b21565b9450505b508061083281612b21565b915050610701565b508160000361087a5760005b60405190808252806020026020018201604052801561086f578160200160208202803683370190505b50935050505061091c565b60008267ffffffffffffffff8111156108955761089561240b565b6040519080825280602002602001820160405280156108be578160200160208202803683370190505b50905060005b83811015610915578281815181106108de576108de612af5565b60200260200101518282815181106108f8576108f8612af5565b60209081029190910101528061090d81612b21565b9150506108c4565b5093505050505b92915050565b6060602060ff83161061096b5760405162461bcd60e51b815260206004820152601160248201527034b73b30b634b2103830b930b6b2ba32b960791b6044820152606401610637565b6002546040516370a0823160e01b81526001600160a01b038581166004830152600092610100900416906370a0823190602401602060405180830381865afa1580156109bb573d6000803e3d6000fd5b505050506040513d601f19601f820116820180604052508101906109df9190612b3a565b90506000808267ffffffffffffffff8111156109fd576109fd61240b565b604051908082528060200260200182016040528015610a26578160200160208202803683370190505b50905060005b83811015610b1d57600254604051632f745c5960e01b81526001600160a01b0389811660048301526024820184905260009261010090041690632f745c5990604401602060405180830381865afa158015610a8b573d6000803e3d6000fd5b505050506040513d601f19601f82011682018060405250810190610aaf9190612b3a565b905060ff8716610ac0602083612b53565b148015610ad957506000818152600a6020526040902054155b15610b0a5780838581518110610af157610af1612af5565b602090810291909101015283610b0681612b21565b9450505b5080610b1581612b21565b915050610a2c565b5081600003610b2d576000610846565b60008267ffffffffffffffff811115610b4857610b4861240b565b604051908082528060200260200182016040528015610b71578160200160208202803683370190505b50905060005b8381101561091557828181518110610b9157610b91612af5565b6020026020010151828281518110610bab57610bab612af5565b602090810291909101015280610bc081612b21565b915050610b77565b600260015403610c1a5760405162461bcd60e51b815260206004820152601f60248201527f5265656e7472616e637947756172643a207265656e7472616e742063616c6c006044820152606401610637565b6002600155610c2761222e565b333214610c6a5760405162461bcd60e51b815260206004820152601160248201527053656e646572206973206e6f7420454f4160781b6044820152606401610637565b6000818152600b602052604081206002015460ff166003811115610c9057610c9061251a565b03610cd15760405162461bcd60e51b81526020600482015260116024820152701c1c99591a58dd081b9bdd08195e1a5cdd607a1b6044820152606401610637565b6000818152600b602052604090206006015460ff1615610d255760405162461bcd60e51b815260206004820152600f60248201526e185b1c9958591e4818db185a5b5959608a1b6044820152606401610637565b6000818152600b60205260409020600401546001600160a01b03163314610d8e5760405162461bcd60e51b815260206004820152601c60248201527f70726564696374206973206e6f74206f776e65642062792075736572000000006044820152606401610637565b6000818152600b602090815260408083205460ff9081168452600590925290912060020154620100009004166003811115610dcb57610dcb61251a565b6000828152600b602052604090206002015460ff166003811115610df157610df161251a565b03610e8c57600380546000838152600b60205260409020909101546004546001600160a01b03909216916340c10f19913391610e2d9190612b75565b6040516001600160e01b031960e085901b1681526001600160a01b0390921660048301526024820152604401600060405180830381600087803b158015610e7357600080fd5b505af1158015610e87573d6000803e3d6000fd5b505050505b6000818152600b60205260408120600601805460ff191660011790555b6000828152600b6020526040902060050154811015610fc0576000828152600b602052604081206005018054600a91839185908110610eea57610eea612af5565b9060005260206000200154815260200190815260200160002081905550600260019054906101000a90046001600160a01b03166001600160a01b0316636198e339600b60008581526020019081526020016000206005018381548110610f5257610f52612af5565b90600052602060002001546040518263ffffffff1660e01b8152600401610f7b91815260200190565b600060405180830381600087803b158015610f9557600080fd5b505af1158015610fa9573d6000803e3d6000fd5b505050508080610fb890612b21565b915050610ea9565b505060018055565b600c6020528160005260406000208181548110610fe457600080fd5b90600052602060002001600091509150505481565b611001612274565b61100b60006122ce565b565b60ff81166000908152600860209081526040808320546007835281842054600690935290832054909161103f91612b8c565b61091c9190612b8c565b6001600160a01b0383166000908152600c60205260408120546060908284611072600188612b9f565b61107c9190612b75565b9050600061108a8688612b75565b9050828211156110d3576040805160008082526020820190925284916110c6565b6110b361231e565b8152602001906001900390816110ab5790505b5094509450505050611412565b828111156110de5750815b60006110ea8383612b9f565b67ffffffffffffffff8111156111025761110261240b565b60405190808252806020026020018201604052801561113b57816020015b61112861231e565b8152602001906001900390816111205790505b509050825b82811015611408576001600160a01b038a166000908152600c602052604081208054600b9183918590811061117757611177612af5565b600091825260208083209091015483528281019390935260409182019020815160e081018352815460ff90811682526001830154948201949094526002820154909391928401911660038111156111d0576111d061251a565b60038111156111e1576111e161251a565b8152602001600382015481526020016004820160009054906101000a90046001600160a01b03166001600160a01b03166001600160a01b031681526020016005820180548060200260200160405190810160405280929190818152602001828054801561126d57602002820191906000526020600020905b815481526020019060010190808311611259575b50505091835250506006919091015460ff161515602090910152905061129161231e565b6001600160a01b038c166000908152600c602052604090208054849081106112bb576112bb612af5565b600091825260208083209091015483528381015183820152835160ff908116835260058083526040808520548316818701528651831685528184528085205461010090819004841660608801528751841686528285528186206002908101548516608089015288518516875283865282872081015491909104841660a08801528751841686529190935291909220015460c0830191620100009091041660038111156113695761136961251a565b9081600381111561137c5761137c61251a565b905250606082015160e082015260008160c0015160038111156113a1576113a161251a565b146113bf5781606001516004546113b89190612b75565b6101008201525b60c0820151151561012082015280846113d88886612b9f565b815181106113e8576113e8612af5565b60200260200101819052505050808061140090612b21565b915050611140565b5092945091925050505b935093915050565b611422612274565b80518451148015611434575082518451145b8015611441575081518451145b61145d5760405162461bcd60e51b815260040161063790612bb2565b60005b84518110156116335760006005600087848151811061148157611481612af5565b602002602001015160ff1660ff16815260200190815260200160002060010154116114e05760405162461bcd60e51b815260206004820152600f60248201526e67616d65206e6f742065786973747360881b6044820152606401610637565b8281815181106114f2576114f2612af5565b60200260200101516005600087848151811061151057611510612af5565b602002602001015160ff1660ff16815260200190815260200160002060020160016101000a81548160ff021916908360ff16021790555083818151811061155957611559612af5565b60200260200101516005600087848151811061157757611577612af5565b602002602001015160ff1660ff16815260200190815260200160002060020160006101000a81548160ff021916908360ff1602179055508181815181106115c0576115c0612af5565b6020026020010151600560008784815181106115de576115de612af5565b60209081029190910181015160ff168252810191909152604001600020600201805462ff000019166201000083600381111561161c5761161c61251a565b02179055508061162b81612b21565b915050611460565b5050505050565b611642612274565b82518451148015611654575081518451145b8015611661575080518451145b61167d5760405162461bcd60e51b815260040161063790612bb2565b60005b845181101561163357602060ff168482815181106116a0576116a0612af5565b602002602001015160ff161080156116d75750602060ff168382815181106116ca576116ca612af5565b602002602001015160ff16105b6116f35760405162461bcd60e51b815260040161063790612bb2565b6040518060c0016040528085838151811061171057611710612af5565b602002602001015160ff16815260200184838151811061173257611732612af5565b602002602001015160ff16815260200183838151811061175457611754612af5565b60200260200101518152602001600060ff168152602001600060ff168152602001600060038111156117885761178861251a565b815250600560008784815181106117a1576117a1612af5565b60209081029190910181015160ff9081168352828201939093526040918201600020845181549286015190851661ffff199384161761010091861682021782559285015160018201556060850151600282018054608088015192871694169390931794169092029290921780835560a084015191929062ff00001916620100008360038111156118335761183361251a565b0217905550905050808061184690612b21565b915050611680565b611856612274565b6001600160a01b0381166118bb5760405162461bcd60e51b815260206004820152602660248201527f4f776e61626c653a206e6577206f776e657220697320746865207a65726f206160448201526564647265737360d01b6064820152608401610637565b6118c4816122ce565b50565b6002600154036119195760405162461bcd60e51b815260206004820152601f60248201527f5265656e7472616e637947756172643a207265656e7472616e742063616c6c006044820152606401610637565b600260015561192661222e565b3332146119695760405162461bcd60e51b815260206004820152601160248201527053656e646572206973206e6f7420454f4160781b6044820152606401610637565b815183511461198a5760405162461bcd60e51b815260040161063790612bb2565b600081600381111561199e5761199e61251a565b036119dc5760405162461bcd60e51b815260206004820152600e60248201526d1a5b9d985b1a59081c995cdd5b1d60921b6044820152606401610637565b60ff841660009081526005602052604090206001015415801590611a15575060ff84166000908152600560205260409020600101544211155b611a795760405162461bcd60e51b815260206004820152602f60248201527f67616d65206e6f7420657869737473206f722067616d6520616c72656164792060448201526e73746f702070726564696374696e6760881b6064820152608401610637565b60098054906000611a8983612b21565b909155505082516040805160e08101825260ff87168152426020820152908101836003811115611abb57611abb61251a565b8152602081018390523360408201526060016000604051908082528060200260200182016040528015611af8578160200160208202803683370190505b508152600060209182018190526009548152600b82526040908190208351815460ff90911660ff19918216178255928401516001828101919091559184015160028201805492949193909290911690836003811115611b5957611b5961251a565b02179055506060820151600382015560808201516004820180546001600160a01b0319166001600160a01b0390921691909117905560a08201518051611ba9916005840191602090910190612373565b5060c091909101516006909101805460ff191691151591909117905560005b81811015612110576002548551339161010090046001600160a01b031690636352211e90889085908110611bfe57611bfe612af5565b60200260200101516040518263ffffffff1660e01b8152600401611c2491815260200190565b602060405180830381865afa158015611c41573d6000803e3d6000fd5b505050506040513d601f19601f82011682018060405250810190611c659190612bde565b6001600160a01b0316148015611d1657506002548451339161010090046001600160a01b031690636352211e90879085908110611ca457611ca4612af5565b60200260200101516040518263ffffffff1660e01b8152600401611cca91815260200190565b602060405180830381865afa158015611ce7573d6000803e3d6000fd5b505050506040513d601f19601f82011682018060405250810190611d0b9190612bde565b6001600160a01b0316145b611d625760405162461bcd60e51b815260206004820152601c60248201527f6d73672e73656e646572206e6f74206f776e2074686520746f6b656e000000006044820152606401610637565b600a6000868381518110611d7857611d78612af5565b60200260200101518152602001908152602001600020546000148015611dca5750600a6000858381518110611daf57611daf612af5565b60200260200101518152602001908152602001600020546000145b611e165760405162461bcd60e51b815260206004820152601a60248201527f746f6b656e20616c7265616479206265207072656469637465640000000000006044820152606401610637565b6000602060ff16868381518110611e2f57611e2f612af5565b6020026020010151611e419190612b53565b90506000602060ff16868481518110611e5c57611e5c612af5565b6020026020010151611e6e9190612b53565b60ff808a166000908152600560205260409020549192508381169116148015611eb2575060ff88811660009081526005602052604090205461010090048116908216145b611ef45760405162461bcd60e51b8152602060048201526013602482015272746f6b656e206e6f742067616d65207465616d60681b6044820152606401610637565b600954600a6000898681518110611f0d57611f0d612af5565b6020026020010151815260200190815260200160002081905550600954600a6000888681518110611f4057611f40612af5565b6020026020010151815260200190815260200160002081905550600b60006009548152602001908152602001600020600501878481518110611f8457611f84612af5565b6020908102919091018101518254600181018455600093845282842001556009548252600b9052604090208651600590910190879085908110611fc957611fc9612af5565b6020908102919091018101518254600181018455600093845291909220015560025487516101009091046001600160a01b03169063dd4670649089908690811061201557612015612af5565b60200260200101516040518263ffffffff1660e01b815260040161203b91815260200190565b600060405180830381600087803b15801561205557600080fd5b505af1158015612069573d6000803e3d6000fd5b50505050600260019054906101000a90046001600160a01b03166001600160a01b031663dd4670648785815181106120a3576120a3612af5565b60200260200101516040518263ffffffff1660e01b81526004016120c991815260200190565b600060405180830381600087803b1580156120e357600080fd5b505af11580156120f7573d6000803e3d6000fd5b505050505050808061210890612b21565b915050611bc8565b50336000908152600c602090815260408220600954815460018181018455928552929093209091019190915582600381111561214e5761214e61251a565b036121895760ff8516600090815260066020526040902054612171908290612b8c565b60ff8616600090815260066020526040902055612223565b600282600381111561219d5761219d61251a565b036121d85760ff85166000908152600760205260409020546121c0908290612b8c565b60ff8616600090815260076020526040902055612223565b60038260038111156121ec576121ec61251a565b036122235760ff851660009081526008602052604090205461220f908290612b8c565b60ff86166000908152600860205260409020555b505060018055505050565b60025460ff161561100b5760405162461bcd60e51b815260206004820152601060248201526f14185d5cd8589b194e881c185d5cd95960821b6044820152606401610637565b6000546001600160a01b0316331461100b5760405162461bcd60e51b815260206004820181905260248201527f4f776e61626c653a2063616c6c6572206973206e6f7420746865206f776e65726044820152606401610637565b600080546001600160a01b038381166001600160a01b0319831681178455604051919092169283917f8be0079c531659141344cd1fd0a4f28419497f9722a3daafe3b4186f6b6457e09190a35050565b6040805161014081018252600080825260208201819052918101829052606081018290526080810182905260a081018290529060c0820190815260200160008152602001600081526020016000151581525090565b8280548282559060005260206000209081019282156123ae579160200282015b828111156123ae578251825591602001919060010190612393565b506123ba9291506123be565b5090565b5b808211156123ba57600081556001016123bf565b803560ff811681146123e457600080fd5b919050565b6000602082840312156123fb57600080fd5b612404826123d3565b9392505050565b634e487b7160e01b600052604160045260246000fd5b604051601f8201601f1916810167ffffffffffffffff8111828210171561244a5761244a61240b565b604052919050565b600067ffffffffffffffff82111561246c5761246c61240b565b5060051b60200190565b600082601f83011261248757600080fd5b8135602061249c61249783612452565b612421565b82815260059290921b840181019181810190868411156124bb57600080fd5b8286015b84811015610915576124d0816123d3565b83529183019183016124bf565b6000602082840312156124ef57600080fd5b813567ffffffffffffffff81111561250657600080fd5b61251284828501612476565b949350505050565b634e487b7160e01b600052602160045260246000fd5b6004811061254e57634e487b7160e01b600052602160045260246000fd5b9052565b602080825282518282018190526000919060409081850190868401855b828110156125d5578151805160ff90811686528782015181168887015286820151878701526060808301518216908701526080808301519091169086015260a090810151906125c081870183612530565b505060c093909301929085019060010161256f565b5091979650505050505050565b6001600160a01b03811681146118c457600080fd5b6000806040838503121561260a57600080fd5b8235612615816125e2565b9150612623602084016123d3565b90509250929050565b6020808252825182820181905260009190848201906040850190845b8181101561266457835183529284019291840191600101612648565b50909695505050505050565b60ff878116825286811660208301526040820186905284811660608301528316608082015260c081016126a660a0830184612530565b979650505050505050565b6000602082840312156126c357600080fd5b5035919050565b60ff871681526020810186905260c081016126e86040830187612530565b60608201949094526001600160a01b03929092166080830152151560a0909101529392505050565b6000806040838503121561272357600080fd5b823561272e816125e2565b946020939093013593505050565b60008060006060848603121561275157600080fd5b833561275c816125e2565b95602085013595506040909401359392505050565b600060408083018584526020828186015281865180845260609350838701915082880160005b828110156128265781518051855285810151868601528781015160ff908116898701528782015181168887015260808083015182169087015260a0808301519091169086015260c0808201516127ef82880182612530565b505060e081810151908601526101008082015190860152610120908101511515908501526101409093019290840190600101612797565b50919998505050505050505050565b8035600481106123e457600080fd5b6000806000806080858703121561285a57600080fd5b843567ffffffffffffffff8082111561287257600080fd5b61287e88838901612476565b955060209150818701358181111561289557600080fd5b6128a189828a01612476565b9550506040870135818111156128b657600080fd5b6128c289828a01612476565b9450506060870135818111156128d757600080fd5b87019050601f810188136128ea57600080fd5b80356128f861249782612452565b81815260059190911b8201830190838101908a83111561291757600080fd5b928401925b8284101561293c5761292d84612835565b8252928401929084019061291c565b979a9699509497505050505050565b600082601f83011261295c57600080fd5b8135602061296c61249783612452565b82815260059290921b8401810191818101908684111561298b57600080fd5b8286015b84811015610915578035835291830191830161298f565b600080600080608085870312156129bc57600080fd5b843567ffffffffffffffff808211156129d457600080fd5b6129e088838901612476565b955060208701359150808211156129f657600080fd5b612a0288838901612476565b94506040870135915080821115612a1857600080fd5b612a2488838901612476565b93506060870135915080821115612a3a57600080fd5b50612a478782880161294b565b91505092959194509250565b600060208284031215612a6557600080fd5b8135612404816125e2565b60008060008060808587031215612a8657600080fd5b612a8f856123d3565b9350602085013567ffffffffffffffff80821115612aac57600080fd5b612ab88883890161294b565b94506040870135915080821115612ace57600080fd5b50612adb8782880161294b565b925050612aea60608601612835565b905092959194509250565b634e487b7160e01b600052603260045260246000fd5b634e487b7160e01b600052601160045260246000fd5b600060018201612b3357612b33612b0b565b5060010190565b600060208284031215612b4c57600080fd5b5051919050565b600082612b7057634e487b7160e01b600052601260045260246000fd5b500690565b808202811582820484141761091c5761091c612b0b565b8082018082111561091c5761091c612b0b565b8181038181111561091c5761091c612b0b565b602080825260129082015271696e76616c696420706172616d657465727360701b604082015260600190565b600060208284031215612bf057600080fd5b8151612404816125e256fea2646970667358221220204b4b0eb3fe4dddfccedc6cca00c6d10708d21a863c19d2b4a0dde31a79728664736f6c63430008110033",
  "linkReferences": {},
  "deployedLinkReferences": {}
}