{
  "_format": "hh-sol-artifact-1",
  "contractName": "GroupNFT",
  "sourceName": "contracts/GroupNFT.sol",
  "abi": [
    {
      "inputs": [
        {
          "internalType": "string",
          "name": "name",
          "type": "string"
        },
        {
          "internalType": "string",
          "name": "symbol",
          "type": "string"
        }
      ],
      "stateMutability": "nonpayable",
      "type": "constructor"
    },
    {
      "anonymous": false,
      "inputs": [
        {
          "indexed": true,
          "internalType": "address",
          "name": "owner",
          "type": "address"
        },
        {
          "indexed": true,
          "internalType": "address",
          "name": "approved",
          "type": "address"
        },
        {
          "indexed": true,
          "internalType": "uint256",
          "name": "tokenId",
          "type": "uint256"
        }
      ],
      "name": "Approval",
      "type": "event"
    },
    {
      "anonymous": false,
      "inputs": [
        {
          "indexed": true,
          "internalType": "address",
          "name": "owner",
          "type": "address"
        },
        {
          "indexed": true,
          "internalType": "address",
          "name": "operator",
          "type": "address"
        },
        {
          "indexed": false,
          "internalType": "bool",
          "name": "approved",
          "type": "bool"
        }
      ],
      "name": "ApprovalForAll",
      "type": "event"
    },
    {
      "anonymous": false,
      "inputs": [
        {
          "indexed": true,
          "internalType": "address",
          "name": "_sender",
          "type": "address"
        },
        {
          "indexed": true,
          "internalType": "uint256",
          "name": "_tokenId",
          "type": "uint256"
        },
        {
          "indexed": true,
          "internalType": "uint256",
          "name": "_team",
          "type": "uint256"
        }
      ],
      "name": "Buy",
      "type": "event"
    },
    {
      "anonymous": false,
      "inputs": [
        {
          "indexed": true,
          "internalType": "address",
          "name": "_sender",
          "type": "address"
        },
        {
          "indexed": true,
          "internalType": "uint256",
          "name": "_tokenId",
          "type": "uint256"
        },
        {
          "indexed": true,
          "internalType": "uint256",
          "name": "_team",
          "type": "uint256"
        }
      ],
      "name": "Mint",
      "type": "event"
    },
    {
      "anonymous": false,
      "inputs": [
        {
          "indexed": true,
          "internalType": "address",
          "name": "previousOwner",
          "type": "address"
        },
        {
          "indexed": true,
          "internalType": "address",
          "name": "newOwner",
          "type": "address"
        }
      ],
      "name": "OwnershipTransferred",
      "type": "event"
    },
    {
      "anonymous": false,
      "inputs": [
        {
          "indexed": false,
          "internalType": "address",
          "name": "account",
          "type": "address"
        }
      ],
      "name": "Paused",
      "type": "event"
    },
    {
      "anonymous": false,
      "inputs": [
        {
          "indexed": true,
          "internalType": "address",
          "name": "from",
          "type": "address"
        },
        {
          "indexed": true,
          "internalType": "address",
          "name": "to",
          "type": "address"
        },
        {
          "indexed": true,
          "internalType": "uint256",
          "name": "tokenId",
          "type": "uint256"
        }
      ],
      "name": "Transfer",
      "type": "event"
    },
    {
      "anonymous": false,
      "inputs": [
        {
          "indexed": false,
          "internalType": "address",
          "name": "account",
          "type": "address"
        }
      ],
      "name": "Unpaused",
      "type": "event"
    },
    {
      "inputs": [
        {
          "internalType": "uint8",
          "name": "",
          "type": "uint8"
        }
      ],
      "name": "_freeCountPerPhase",
      "outputs": [
        {
          "internalType": "uint256",
          "name": "",
          "type": "uint256"
        }
      ],
      "stateMutability": "view",
      "type": "function"
    },
    {
      "inputs": [],
      "name": "_freeSupplyPerPhase",
      "outputs": [
        {
          "internalType": "uint256",
          "name": "",
          "type": "uint256"
        }
      ],
      "stateMutability": "view",
      "type": "function"
    },
    {
      "inputs": [],
      "name": "_freeSupplyPerTeam",
      "outputs": [
        {
          "internalType": "uint256",
          "name": "",
          "type": "uint256"
        }
      ],
      "stateMutability": "view",
      "type": "function"
    },
    {
      "inputs": [],
      "name": "_freeTokenId",
      "outputs": [
        {
          "internalType": "uint256",
          "name": "",
          "type": "uint256"
        }
      ],
      "stateMutability": "view",
      "type": "function"
    },
    {
      "inputs": [],
      "name": "_phase",
      "outputs": [
        {
          "internalType": "uint8",
          "name": "",
          "type": "uint8"
        }
      ],
      "stateMutability": "view",
      "type": "function"
    },
    {
      "inputs": [],
      "name": "_price",
      "outputs": [
        {
          "internalType": "uint256",
          "name": "",
          "type": "uint256"
        }
      ],
      "stateMutability": "view",
      "type": "function"
    },
    {
      "inputs": [
        {
          "internalType": "uint8",
          "name": "",
          "type": "uint8"
        }
      ],
      "name": "_saleCount",
      "outputs": [
        {
          "internalType": "uint256",
          "name": "",
          "type": "uint256"
        }
      ],
      "stateMutability": "view",
      "type": "function"
    },
    {
      "inputs": [],
      "name": "_saleSupplyPerTeam",
      "outputs": [
        {
          "internalType": "uint256",
          "name": "",
          "type": "uint256"
        }
      ],
      "stateMutability": "view",
      "type": "function"
    },
    {
      "inputs": [],
      "name": "_saleTokenId",
      "outputs": [
        {
          "internalType": "uint256",
          "name": "",
          "type": "uint256"
        }
      ],
      "stateMutability": "view",
      "type": "function"
    },
    {
      "inputs": [
        {
          "internalType": "uint256",
          "name": "",
          "type": "uint256"
        }
      ],
      "name": "_teams",
      "outputs": [
        {
          "internalType": "uint8",
          "name": "",
          "type": "uint8"
        }
      ],
      "stateMutability": "view",
      "type": "function"
    },
    {
      "inputs": [
        {
          "internalType": "address",
          "name": "to",
          "type": "address"
        },
        {
          "internalType": "uint256",
          "name": "tokenId",
          "type": "uint256"
        }
      ],
      "name": "approve",
      "outputs": [],
      "stateMutability": "nonpayable",
      "type": "function"
    },
    {
      "inputs": [
        {
          "internalType": "address",
          "name": "owner",
          "type": "address"
        }
      ],
      "name": "balanceOf",
      "outputs": [
        {
          "internalType": "uint256",
          "name": "",
          "type": "uint256"
        }
      ],
      "stateMutability": "view",
      "type": "function"
    },
    {
      "inputs": [
        {
          "internalType": "uint8",
          "name": "team",
          "type": "uint8"
        }
      ],
      "name": "buy",
      "outputs": [],
      "stateMutability": "payable",
      "type": "function"
    },
    {
      "inputs": [],
      "name": "contractURI",
      "outputs": [
        {
          "internalType": "string",
          "name": "",
          "type": "string"
        }
      ],
      "stateMutability": "view",
      "type": "function"
    },
    {
      "inputs": [
        {
          "internalType": "uint256",
          "name": "tokenId",
          "type": "uint256"
        }
      ],
      "name": "getApproved",
      "outputs": [
        {
          "internalType": "address",
          "name": "",
          "type": "address"
        }
      ],
      "stateMutability": "view",
      "type": "function"
    },
    {
      "inputs": [],
      "name": "getFreeLeft",
      "outputs": [
        {
          "internalType": "uint256",
          "name": "",
          "type": "uint256"
        }
      ],
      "stateMutability": "view",
      "type": "function"
    },
    {
      "inputs": [],
      "name": "getSaleInfo",
      "outputs": [
        {
          "internalType": "uint256[32]",
          "name": "list",
          "type": "uint256[32]"
        }
      ],
      "stateMutability": "view",
      "type": "function"
    },
    {
      "inputs": [
        {
          "internalType": "address",
          "name": "owner",
          "type": "address"
        },
        {
          "internalType": "address",
          "name": "operator",
          "type": "address"
        }
      ],
      "name": "isApprovedForAll",
      "outputs": [
        {
          "internalType": "bool",
          "name": "",
          "type": "bool"
        }
      ],
      "stateMutability": "view",
      "type": "function"
    },
    {
      "inputs": [],
      "name": "mint",
      "outputs": [],
      "stateMutability": "nonpayable",
      "type": "function"
    },
    {
      "inputs": [],
      "name": "name",
      "outputs": [
        {
          "internalType": "string",
          "name": "",
          "type": "string"
        }
      ],
      "stateMutability": "view",
      "type": "function"
    },
    {
      "inputs": [],
      "name": "owner",
      "outputs": [
        {
          "internalType": "address",
          "name": "",
          "type": "address"
        }
      ],
      "stateMutability": "view",
      "type": "function"
    },
    {
      "inputs": [
        {
          "internalType": "uint256",
          "name": "tokenId",
          "type": "uint256"
        }
      ],
      "name": "ownerOf",
      "outputs": [
        {
          "internalType": "address",
          "name": "",
          "type": "address"
        }
      ],
      "stateMutability": "view",
      "type": "function"
    },
    {
      "inputs": [],
      "name": "paused",
      "outputs": [
        {
          "internalType": "bool",
          "name": "",
          "type": "bool"
        }
      ],
      "stateMutability": "view",
      "type": "function"
    },
    {
      "inputs": [],
      "name": "renounceOwnership",
      "outputs": [],
      "stateMutability": "nonpayable",
      "type": "function"
    },
    {
      "inputs": [
        {
          "internalType": "address",
          "name": "from",
          "type": "address"
        },
        {
          "internalType": "address",
          "name": "to",
          "type": "address"
        },
        {
          "internalType": "uint256",
          "name": "tokenId",
          "type": "uint256"
        }
      ],
      "name": "safeTransferFrom",
      "outputs": [],
      "stateMutability": "nonpayable",
      "type": "function"
    },
    {
      "inputs": [
        {
          "internalType": "address",
          "name": "from",
          "type": "address"
        },
        {
          "internalType": "address",
          "name": "to",
          "type": "address"
        },
        {
          "internalType": "uint256",
          "name": "tokenId",
          "type": "uint256"
        },
        {
          "internalType": "bytes",
          "name": "data",
          "type": "bytes"
        }
      ],
      "name": "safeTransferFrom",
      "outputs": [],
      "stateMutability": "nonpayable",
      "type": "function"
    },
    {
      "inputs": [
        {
          "internalType": "address",
          "name": "operator",
          "type": "address"
        },
        {
          "internalType": "bool",
          "name": "approved",
          "type": "bool"
        }
      ],
      "name": "setApprovalForAll",
      "outputs": [],
      "stateMutability": "nonpayable",
      "type": "function"
    },
    {
      "inputs": [
        {
          "internalType": "uint256",
          "name": "supply",
          "type": "uint256"
        }
      ],
      "name": "setFreeSupplyPerTeam",
      "outputs": [],
      "stateMutability": "nonpayable",
      "type": "function"
    },
    {
      "inputs": [
        {
          "internalType": "string",
          "name": "metadataURI",
          "type": "string"
        }
      ],
      "name": "setMetadataURI",
      "outputs": [],
      "stateMutability": "nonpayable",
      "type": "function"
    },
    {
      "inputs": [
        {
          "internalType": "uint8",
          "name": "phase",
          "type": "uint8"
        }
      ],
      "name": "setPhase",
      "outputs": [],
      "stateMutability": "nonpayable",
      "type": "function"
    },
    {
      "inputs": [
        {
          "internalType": "uint256",
          "name": "supply",
          "type": "uint256"
        }
      ],
      "name": "setSaleSupplyPerTeam",
      "outputs": [],
      "stateMutability": "nonpayable",
      "type": "function"
    },
    {
      "inputs": [
        {
          "internalType": "bytes4",
          "name": "interfaceId",
          "type": "bytes4"
        }
      ],
      "name": "supportsInterface",
      "outputs": [
        {
          "internalType": "bool",
          "name": "",
          "type": "bool"
        }
      ],
      "stateMutability": "view",
      "type": "function"
    },
    {
      "inputs": [],
      "name": "symbol",
      "outputs": [
        {
          "internalType": "string",
          "name": "",
          "type": "string"
        }
      ],
      "stateMutability": "view",
      "type": "function"
    },
    {
      "inputs": [
        {
          "internalType": "uint256",
          "name": "index",
          "type": "uint256"
        }
      ],
      "name": "tokenByIndex",
      "outputs": [
        {
          "internalType": "uint256",
          "name": "",
          "type": "uint256"
        }
      ],
      "stateMutability": "view",
      "type": "function"
    },
    {
      "inputs": [
        {
          "internalType": "address",
          "name": "owner",
          "type": "address"
        },
        {
          "internalType": "uint256",
          "name": "index",
          "type": "uint256"
        }
      ],
      "name": "tokenOfOwnerByIndex",
      "outputs": [
        {
          "internalType": "uint256",
          "name": "",
          "type": "uint256"
        }
      ],
      "stateMutability": "view",
      "type": "function"
    },
    {
      "inputs": [
        {
          "internalType": "uint256",
          "name": "_tokenId",
          "type": "uint256"
        }
      ],
      "name": "tokenURI",
      "outputs": [
        {
          "internalType": "string",
          "name": "",
          "type": "string"
        }
      ],
      "stateMutability": "view",
      "type": "function"
    },
    {
      "inputs": [],
      "name": "totalSupply",
      "outputs": [
        {
          "internalType": "uint256",
          "name": "",
          "type": "uint256"
        }
      ],
      "stateMutability": "view",
      "type": "function"
    },
    {
      "inputs": [
        {
          "internalType": "address",
          "name": "from",
          "type": "address"
        },
        {
          "internalType": "address",
          "name": "to",
          "type": "address"
        },
        {
          "internalType": "uint256",
          "name": "tokenId",
          "type": "uint256"
        }
      ],
      "name": "transferFrom",
      "outputs": [],
      "stateMutability": "nonpayable",
      "type": "function"
    },
    {
      "inputs": [
        {
          "internalType": "address",
          "name": "newOwner",
          "type": "address"
        }
      ],
      "name": "transferOwnership",
      "outputs": [],
      "stateMutability": "nonpayable",
      "type": "function"
    },
    {
      "inputs": [],
      "name": "withdraw",
      "outputs": [],
      "stateMutability": "nonpayable",
      "type": "function"
    }
  ],
  "bytecode": "0x6080604052601e600d55605a600e556000601060006101000a81548160ff021916908360ff1602179055506001601060016101000a81548160ff021916908360ff1602179055506002601060026101000a81548160ff021916908360ff16021790555066b1a2bc2ec5000060115560006012556103c06013556000601860006101000a81548160ff021916908315150217905550348015620000a057600080fd5b5060405162005265380380620052658339818101604052810190620000c691906200039a565b81818160009081620000d991906200066a565b508060019081620000eb91906200066a565b5050506200010e620001026200013960201b60201c565b6200014160201b60201c565b6001600b819055506000600c60006101000a81548160ff021916908315150217905550505062000751565b600033905090565b6000600a60009054906101000a900473ffffffffffffffffffffffffffffffffffffffff16905081600a60006101000a81548173ffffffffffffffffffffffffffffffffffffffff021916908373ffffffffffffffffffffffffffffffffffffffff1602179055508173ffffffffffffffffffffffffffffffffffffffff168173ffffffffffffffffffffffffffffffffffffffff167f8be0079c531659141344cd1fd0a4f28419497f9722a3daafe3b4186f6b6457e060405160405180910390a35050565b6000604051905090565b600080fd5b600080fd5b600080fd5b600080fd5b6000601f19601f8301169050919050565b7f4e487b7100000000000000000000000000000000000000000000000000000000600052604160045260246000fd5b620002708262000225565b810181811067ffffffffffffffff8211171562000292576200029162000236565b5b80604052505050565b6000620002a762000207565b9050620002b5828262000265565b919050565b600067ffffffffffffffff821115620002d857620002d762000236565b5b620002e38262000225565b9050602081019050919050565b60005b8381101562000310578082015181840152602081019050620002f3565b60008484015250505050565b6000620003336200032d84620002ba565b6200029b565b90508281526020810184848401111562000352576200035162000220565b5b6200035f848285620002f0565b509392505050565b600082601f8301126200037f576200037e6200021b565b5b8151620003918482602086016200031c565b91505092915050565b60008060408385031215620003b457620003b362000211565b5b600083015167ffffffffffffffff811115620003d557620003d462000216565b5b620003e38582860162000367565b925050602083015167ffffffffffffffff81111562000407576200040662000216565b5b620004158582860162000367565b9150509250929050565b600081519050919050565b7f4e487b7100000000000000000000000000000000000000000000000000000000600052602260045260246000fd5b600060028204905060018216806200047257607f821691505b6020821081036200048857620004876200042a565b5b50919050565b60008190508160005260206000209050919050565b60006020601f8301049050919050565b600082821b905092915050565b600060088302620004f27fffffffffffffffffffffffffffffffffffffffffffffffffffffffffffffffff82620004b3565b620004fe8683620004b3565b95508019841693508086168417925050509392505050565b6000819050919050565b6000819050919050565b60006200054b620005456200053f8462000516565b62000520565b62000516565b9050919050565b6000819050919050565b62000567836200052a565b6200057f620005768262000552565b848454620004c0565b825550505050565b600090565b6200059662000587565b620005a38184846200055c565b505050565b5b81811015620005cb57620005bf6000826200058c565b600181019050620005a9565b5050565b601f8211156200061a57620005e4816200048e565b620005ef84620004a3565b81016020851015620005ff578190505b620006176200060e85620004a3565b830182620005a8565b50505b505050565b600082821c905092915050565b60006200063f600019846008026200061f565b1980831691505092915050565b60006200065a83836200062c565b9150826002028217905092915050565b62000675826200041f565b67ffffffffffffffff81111562000691576200069062000236565b5b6200069d825462000459565b620006aa828285620005cf565b600060209050601f831160018114620006e25760008415620006cd578287015190505b620006d985826200064c565b86555062000749565b601f198416620006f2866200048e565b60005b828110156200071c57848901518255600182019150602085019450602081019050620006f5565b868310156200073c578489015162000738601f8916826200062c565b8355505b6001600288020188555050505b505050505050565b614b0480620007616000396000f3fe60806040526004361061023b5760003560e01c8063750521f51161012e578063c0c0ea3b116100ab578063e50639ad1161006f578063e50639ad14610878578063e8a3d485146108a3578063e985e9c5146108ce578063f16452291461090b578063f2fde38b146109365761023b565b8063c0c0ea3b14610791578063c87b56dd146107bc578063cfa08f7c146107f9578063db83694c14610824578063e40c5d971461084f5761023b565b806395d89b41116100f257806395d89b41146106c057806397301059146106eb578063a22cb46514610716578063b88d4fde1461073f578063c03afb59146107685761023b565b8063750521f5146105c7578063762d4216146105f057806379340a4e1461062d5780637d52b3011461066a5780638da5cb5b146106955761023b565b80632f88a47e116101bc5780635c975abb116101805780635c975abb146104e05780636352211e1461050b5780636a8a6d9f1461054857806370a0823114610573578063715018a6146105b05761023b565b80632f88a47e146103fd5780633ccfd60b1461042657806342842e0e1461043d5780634f6ccce7146104665780635b3830f3146104a35761023b565b806314107f3c1161020357806314107f3c1461032557806318160ddd14610341578063235b6ea11461036c57806323b872dd146103975780632f745c59146103c05761023b565b806301ffc9a71461024057806306fdde031461027d578063081812fc146102a8578063095ea7b3146102e55780631249c58b1461030e575b600080fd5b34801561024c57600080fd5b5061026760048036038101906102629190612e1f565b61095f565b6040516102749190612e67565b60405180910390f35b34801561028957600080fd5b506102926109d9565b60405161029f9190612f12565b60405180910390f35b3480156102b457600080fd5b506102cf60048036038101906102ca9190612f6a565b610a6b565b6040516102dc9190612fd8565b60405180910390f35b3480156102f157600080fd5b5061030c6004803603810190610307919061301f565b610ab1565b005b34801561031a57600080fd5b50610323610bc8565b005b61033f600480360381019061033a9190613098565b610edc565b005b34801561034d57600080fd5b506103566111b5565b60405161036391906130d4565b60405180910390f35b34801561037857600080fd5b506103816111c2565b60405161038e91906130d4565b60405180910390f35b3480156103a357600080fd5b506103be60048036038101906103b991906130ef565b6111c8565b005b3480156103cc57600080fd5b506103e760048036038101906103e2919061301f565b611228565b6040516103f491906130d4565b60405180910390f35b34801561040957600080fd5b50610424600480360381019061041f9190612f6a565b6112cd565b005b34801561043257600080fd5b5061043b6112df565b005b34801561044957600080fd5b50610464600480360381019061045f91906130ef565b611396565b005b34801561047257600080fd5b5061048d60048036038101906104889190612f6a565b6113b6565b60405161049a91906130d4565b60405180910390f35b3480156104af57600080fd5b506104ca60048036038101906104c59190612f6a565b611427565b6040516104d79190613151565b60405180910390f35b3480156104ec57600080fd5b506104f5611447565b6040516105029190612e67565b60405180910390f35b34801561051757600080fd5b50610532600480360381019061052d9190612f6a565b61145e565b60405161053f9190612fd8565b60405180910390f35b34801561055457600080fd5b5061055d61150f565b60405161056a91906130d4565b60405180910390f35b34801561057f57600080fd5b5061059a6004803603810190610595919061316c565b611515565b6040516105a791906130d4565b60405180910390f35b3480156105bc57600080fd5b506105c56115cc565b005b3480156105d357600080fd5b506105ee60048036038101906105e991906132ce565b6115e0565b005b3480156105fc57600080fd5b5061061760048036038101906106129190613098565b6115fb565b60405161062491906130d4565b60405180910390f35b34801561063957600080fd5b50610654600480360381019061064f9190613098565b611613565b60405161066191906130d4565b60405180910390f35b34801561067657600080fd5b5061067f61162b565b60405161068c91906130d4565b60405180910390f35b3480156106a157600080fd5b506106aa611651565b6040516106b79190612fd8565b60405180910390f35b3480156106cc57600080fd5b506106d561167b565b6040516106e29190612f12565b60405180910390f35b3480156106f757600080fd5b5061070061170d565b60405161070d9190613151565b60405180910390f35b34801561072257600080fd5b5061073d60048036038101906107389190613343565b611720565b005b34801561074b57600080fd5b5061076660048036038101906107619190613424565b611736565b005b34801561077457600080fd5b5061078f600480360381019061078a9190613098565b611798565b005b34801561079d57600080fd5b506107a6611808565b6040516107b391906130d4565b60405180910390f35b3480156107c857600080fd5b506107e360048036038101906107de9190612f6a565b61180e565b6040516107f09190612f12565b60405180910390f35b34801561080557600080fd5b5061080e6118c7565b60405161081b91906130d4565b60405180910390f35b34801561083057600080fd5b506108396118cd565b6040516108469190613552565b60405180910390f35b34801561085b57600080fd5b5061087660048036038101906108719190612f6a565b611944565b005b34801561088457600080fd5b5061088d611956565b60405161089a91906130d4565b60405180910390f35b3480156108af57600080fd5b506108b861195c565b6040516108c59190612f12565b60405180910390f35b3480156108da57600080fd5b506108f560048036038101906108f0919061356e565b611984565b6040516109029190612e67565b60405180910390f35b34801561091757600080fd5b50610920611a18565b60405161092d91906130d4565b60405180910390f35b34801561094257600080fd5b5061095d6004803603810190610958919061316c565b611a1e565b005b60007f780e9d63000000000000000000000000000000000000000000000000000000007bffffffffffffffffffffffffffffffffffffffffffffffffffffffff1916827bffffffffffffffffffffffffffffffffffffffffffffffffffffffff191614806109d257506109d182611aa1565b5b9050919050565b6060600080546109e8906135dd565b80601f0160208091040260200160405190810160405280929190818152602001828054610a14906135dd565b8015610a615780601f10610a3657610100808354040283529160200191610a61565b820191906000526020600020905b815481529060010190602001808311610a4457829003601f168201915b5050505050905090565b6000610a7682611b83565b6004600083815260200190815260200160002060009054906101000a900473ffffffffffffffffffffffffffffffffffffffff169050919050565b6000610abc8261145e565b90508073ffffffffffffffffffffffffffffffffffffffff168373ffffffffffffffffffffffffffffffffffffffff1603610b2c576040517f08c379a0000000000000000000000000000000000000000000000000000000008152600401610b2390613680565b60405180910390fd5b8073ffffffffffffffffffffffffffffffffffffffff16610b4b611bce565b73ffffffffffffffffffffffffffffffffffffffff161480610b7a5750610b7981610b74611bce565b611984565b5b610bb9576040517f08c379a0000000000000000000000000000000000000000000000000000000008152600401610bb090613712565b60405180910390fd5b610bc38383611bd6565b505050565b6002600b5403610c0d576040517f08c379a0000000000000000000000000000000000000000000000000000000008152600401610c049061377e565b60405180910390fd5b6002600b81905550610c1d611c8f565b3273ffffffffffffffffffffffffffffffffffffffff163373ffffffffffffffffffffffffffffffffffffffff1614610c8b576040517f08c379a0000000000000000000000000000000000000000000000000000000008152600401610c82906137ea565b60405180910390fd5b6000602060ff16600e54610c9f9190613839565b905080600f541115610ce6576040517f08c379a0000000000000000000000000000000000000000000000000000000008152600401610cdd906138c7565b60405180910390fd5b42601454610cf491906138e7565b6014819055506000610d12600f5483610d0d919061391b565b611cd9565b905060008060005b602060ff168160ff161015610daa5783601660008360ff1660ff16815260200190815260200160002054600e54610d51919061391b565b1115610d635780925060019150610daa565b601660008260ff1660ff16815260200190815260200160002054600e54610d8a919061391b565b84610d95919061391b565b93508080610da29061394f565b915050610d1a565b5080610deb576040517f08c379a0000000000000000000000000000000000000000000000000000000008152600401610de2906139c4565b60405180910390fd5b601660008360ff1660ff1681526020019081526020016000206000815480929190610e15906139e4565b9190505550600f6000815480929190610e2d906139e4565b91905055508160176000601354815260200190815260200160002060006101000a81548160ff021916908360ff160217905550610e6c33601354611d35565b8160ff166013543373ffffffffffffffffffffffffffffffffffffffff167f4c209b5fc8ad50758f13e2e1088ba56a560dff690a1c6fef26394f4c03821c4f60405160405180910390a460136000815480929190610ec9906139e4565b9190505550505050506001600b81905550565b6002600b5403610f21576040517f08c379a0000000000000000000000000000000000000000000000000000000008152600401610f189061377e565b60405180910390fd5b6002600b81905550610f31611c8f565b3273ffffffffffffffffffffffffffffffffffffffff163373ffffffffffffffffffffffffffffffffffffffff1614610f9f576040517f08c379a0000000000000000000000000000000000000000000000000000000008152600401610f96906137ea565b60405180910390fd5b602060ff168160ff1610610fe8576040517f08c379a0000000000000000000000000000000000000000000000000000000008152600401610fdf90613a78565b60405180910390fd5b602060ff16600d54610ffa9190613839565b6012541061103d576040517f08c379a0000000000000000000000000000000000000000000000000000000008152600401611034906138c7565b60405180910390fd5b600d54601560008360ff1660ff16815260200190815260200160002054111561109b576040517f08c379a000000000000000000000000000000000000000000000000000000000815260040161109290613ae4565b60405180910390fd5b60115434146110df576040517f08c379a00000000000000000000000000000000000000000000000000000000081526004016110d690613b50565b60405180910390fd5b8060176000601254815260200190815260200160002060006101000a81548160ff021916908360ff160217905550601560008260ff1660ff1681526020019081526020016000206000815480929190611137906139e4565b919050555061114833601254611d35565b8060ff166012543373ffffffffffffffffffffffffffffffffffffffff167f1cbc5ab135991bd2b6a4b034a04aa2aa086dac1371cb9b16b8b5e2ed6b036bed60405160405180910390a4601260008154809291906111a5906139e4565b91905055506001600b8190555050565b6000600880549050905090565b60115481565b6111d96111d3611bce565b82611d53565b611218576040517f08c379a000000000000000000000000000000000000000000000000000000000815260040161120f90613be2565b60405180910390fd5b611223838383611de8565b505050565b600061123383611515565b8210611274576040517f08c379a000000000000000000000000000000000000000000000000000000000815260040161126b90613c74565b60405180910390fd5b600660008473ffffffffffffffffffffffffffffffffffffffff1673ffffffffffffffffffffffffffffffffffffffff168152602001908152602001600020600083815260200190815260200160002054905092915050565b6112d561204e565b80600e8190555050565b6112e761204e565b60003373ffffffffffffffffffffffffffffffffffffffff164760405161130d90613cc5565b60006040518083038185875af1925050503d806000811461134a576040519150601f19603f3d011682016040523d82523d6000602084013e61134f565b606091505b5050905080611393576040517f08c379a000000000000000000000000000000000000000000000000000000000815260040161138a90613d26565b60405180910390fd5b50565b6113b183838360405180602001604052806000815250611736565b505050565b60006113c06111b5565b8210611401576040517f08c379a00000000000000000000000000000000000000000000000000000000081526004016113f890613db8565b60405180910390fd5b6008828154811061141557611414613dd8565b5b90600052602060002001549050919050565b60176020528060005260406000206000915054906101000a900460ff1681565b6000600c60009054906101000a900460ff16905090565b6000806002600084815260200190815260200160002060009054906101000a900473ffffffffffffffffffffffffffffffffffffffff169050600073ffffffffffffffffffffffffffffffffffffffff168173ffffffffffffffffffffffffffffffffffffffff1603611506576040517f08c379a00000000000000000000000000000000000000000000000000000000081526004016114fd90613e53565b60405180910390fd5b80915050919050565b60125481565b60008073ffffffffffffffffffffffffffffffffffffffff168273ffffffffffffffffffffffffffffffffffffffff1603611585576040517f08c379a000000000000000000000000000000000000000000000000000000000815260040161157c90613ee5565b60405180910390fd5b600360008373ffffffffffffffffffffffffffffffffffffffff1673ffffffffffffffffffffffffffffffffffffffff168152602001908152602001600020549050919050565b6115d461204e565b6115de60006120cc565b565b6115e861204e565b80601990816115f791906140b1565b5050565b60166020528060005260406000206000915090505481565b60156020528060005260406000206000915090505481565b6000600f54602060ff16600e546116429190613839565b61164c919061391b565b905090565b6000600a60009054906101000a900473ffffffffffffffffffffffffffffffffffffffff16905090565b60606001805461168a906135dd565b80601f01602080910402602001604051908101604052809291908181526020018280546116b6906135dd565b80156117035780601f106116d857610100808354040283529160200191611703565b820191906000526020600020905b8154815290600101906020018083116116e657829003601f168201915b5050505050905090565b601060039054906101000a900460ff1681565b61173261172b611bce565b8383612192565b5050565b611747611741611bce565b83611d53565b611786576040517f08c379a000000000000000000000000000000000000000000000000000000000815260040161177d90613be2565b60405180910390fd5b611792848484846122fe565b50505050565b6117a061204e565b80601060036101000a81548160ff021916908360ff160217905550600060148190555060005b60208160ff161015611804576000601660008360ff1660ff1681526020019081526020016000208190555080806117fc9061394f565b9150506117c6565b5050565b60135481565b60606118198261235a565b611858576040517f08c379a000000000000000000000000000000000000000000000000000000000815260040161184f906141f5565b60405180910390fd5b601860009054906101000a900460ff1661189457601960405160200161187e91906142ef565b60405160208183030381529060405290506118c2565b601961189f836123c6565b6040516020016118b0929190614342565b60405160208183030381529060405290505b919050565b600d5481565b6118d5612d90565b60005b602060ff168160ff16101561194057601560008260ff1660ff16815260200190815260200160002054600d5461190e919061391b565b828260ff166020811061192457611923613dd8565b5b60200201818152505080806119389061394f565b9150506118d8565b5090565b61194c61204e565b80600d8190555050565b600f5481565b6060601960405160200161197091906143b2565b604051602081830303815290604052905090565b6000600560008473ffffffffffffffffffffffffffffffffffffffff1673ffffffffffffffffffffffffffffffffffffffff16815260200190815260200160002060008373ffffffffffffffffffffffffffffffffffffffff1673ffffffffffffffffffffffffffffffffffffffff16815260200190815260200160002060009054906101000a900460ff16905092915050565b600e5481565b611a2661204e565b600073ffffffffffffffffffffffffffffffffffffffff168173ffffffffffffffffffffffffffffffffffffffff1603611a95576040517f08c379a0000000000000000000000000000000000000000000000000000000008152600401611a8c90614446565b60405180910390fd5b611a9e816120cc565b50565b60007f80ac58cd000000000000000000000000000000000000000000000000000000007bffffffffffffffffffffffffffffffffffffffffffffffffffffffff1916827bffffffffffffffffffffffffffffffffffffffffffffffffffffffff19161480611b6c57507f5b5e139f000000000000000000000000000000000000000000000000000000007bffffffffffffffffffffffffffffffffffffffffffffffffffffffff1916827bffffffffffffffffffffffffffffffffffffffffffffffffffffffff1916145b80611b7c5750611b7b82612526565b5b9050919050565b611b8c8161235a565b611bcb576040517f08c379a0000000000000000000000000000000000000000000000000000000008152600401611bc290613e53565b60405180910390fd5b50565b600033905090565b816004600083815260200190815260200160002060006101000a81548173ffffffffffffffffffffffffffffffffffffffff021916908373ffffffffffffffffffffffffffffffffffffffff160217905550808273ffffffffffffffffffffffffffffffffffffffff16611c498361145e565b73ffffffffffffffffffffffffffffffffffffffff167f8c5be1e5ebec7d5bd14f71427d1e84f3dd0314c0f7b2291e5b200ac8c7c3b92560405160405180910390a45050565b611c97611447565b15611cd7576040517f08c379a0000000000000000000000000000000000000000000000000000000008152600401611cce906144b2565b60405180910390fd5b565b600081600143611ce9919061391b565b4042611cf3611bce565b44601454604051602001611d0b959493929190614566565b6040516020818303038152906040528051906020012060001c611d2e91906145f4565b9050919050565b611d4f828260405180602001604052806000815250612590565b5050565b600080611d5f8361145e565b90508073ffffffffffffffffffffffffffffffffffffffff168473ffffffffffffffffffffffffffffffffffffffff161480611da15750611da08185611984565b5b80611ddf57508373ffffffffffffffffffffffffffffffffffffffff16611dc784610a6b565b73ffffffffffffffffffffffffffffffffffffffff16145b91505092915050565b8273ffffffffffffffffffffffffffffffffffffffff16611e088261145e565b73ffffffffffffffffffffffffffffffffffffffff1614611e5e576040517f08c379a0000000000000000000000000000000000000000000000000000000008152600401611e5590614697565b60405180910390fd5b600073ffffffffffffffffffffffffffffffffffffffff168273ffffffffffffffffffffffffffffffffffffffff1603611ecd576040517f08c379a0000000000000000000000000000000000000000000000000000000008152600401611ec490614729565b60405180910390fd5b611ed88383836125eb565b611ee3600082611bd6565b6001600360008573ffffffffffffffffffffffffffffffffffffffff1673ffffffffffffffffffffffffffffffffffffffff1681526020019081526020016000206000828254611f33919061391b565b925050819055506001600360008473ffffffffffffffffffffffffffffffffffffffff1673ffffffffffffffffffffffffffffffffffffffff1681526020019081526020016000206000828254611f8a91906138e7565b92505081905550816002600083815260200190815260200160002060006101000a81548173ffffffffffffffffffffffffffffffffffffffff021916908373ffffffffffffffffffffffffffffffffffffffff160217905550808273ffffffffffffffffffffffffffffffffffffffff168473ffffffffffffffffffffffffffffffffffffffff167fddf252ad1be2c89b69c2b068fc378daa952ba7f163c4a11628f55a4df523b3ef60405160405180910390a46120498383836126fd565b505050565b612056611bce565b73ffffffffffffffffffffffffffffffffffffffff16612074611651565b73ffffffffffffffffffffffffffffffffffffffff16146120ca576040517f08c379a00000000000000000000000000000000000000000000000000000000081526004016120c190614795565b60405180910390fd5b565b6000600a60009054906101000a900473ffffffffffffffffffffffffffffffffffffffff16905081600a60006101000a81548173ffffffffffffffffffffffffffffffffffffffff021916908373ffffffffffffffffffffffffffffffffffffffff1602179055508173ffffffffffffffffffffffffffffffffffffffff168173ffffffffffffffffffffffffffffffffffffffff167f8be0079c531659141344cd1fd0a4f28419497f9722a3daafe3b4186f6b6457e060405160405180910390a35050565b8173ffffffffffffffffffffffffffffffffffffffff168373ffffffffffffffffffffffffffffffffffffffff1603612200576040517f08c379a00000000000000000000000000000000000000000000000000000000081526004016121f790614801565b60405180910390fd5b80600560008573ffffffffffffffffffffffffffffffffffffffff1673ffffffffffffffffffffffffffffffffffffffff16815260200190815260200160002060008473ffffffffffffffffffffffffffffffffffffffff1673ffffffffffffffffffffffffffffffffffffffff16815260200190815260200160002060006101000a81548160ff0219169083151502179055508173ffffffffffffffffffffffffffffffffffffffff168373ffffffffffffffffffffffffffffffffffffffff167f17307eab39ab6107e8899845ad3d59bd9653f200f220920489ca2b5937696c31836040516122f19190612e67565b60405180910390a3505050565b612309848484611de8565b61231584848484612702565b612354576040517f08c379a000000000000000000000000000000000000000000000000000000000815260040161234b90614893565b60405180910390fd5b50505050565b60008073ffffffffffffffffffffffffffffffffffffffff166002600084815260200190815260200160002060009054906101000a900473ffffffffffffffffffffffffffffffffffffffff1673ffffffffffffffffffffffffffffffffffffffff1614159050919050565b60606000820361240d576040518060400160405280600181526020017f30000000000000000000000000000000000000000000000000000000000000008152509050612521565b600082905060005b6000821461243f578080612428906139e4565b915050600a8261243891906148b3565b9150612415565b60008167ffffffffffffffff81111561245b5761245a6131a3565b5b6040519080825280601f01601f19166020018201604052801561248d5781602001600182028036833780820191505090505b5090505b6000851461251a576001826124a6919061391b565b9150600a856124b591906145f4565b60306124c191906138e7565b60f81b8183815181106124d7576124d6613dd8565b5b60200101907effffffffffffffffffffffffffffffffffffffffffffffffffffffffffffff1916908160001a905350600a8561251391906148b3565b9450612491565b8093505050505b919050565b60007f01ffc9a7000000000000000000000000000000000000000000000000000000007bffffffffffffffffffffffffffffffffffffffffffffffffffffffff1916827bffffffffffffffffffffffffffffffffffffffffffffffffffffffff1916149050919050565b61259a8383612889565b6125a76000848484612702565b6125e6576040517f08c379a00000000000000000000000000000000000000000000000000000000081526004016125dd90614893565b60405180910390fd5b505050565b6125f6838383612a62565b600073ffffffffffffffffffffffffffffffffffffffff168373ffffffffffffffffffffffffffffffffffffffff16036126385761263381612a67565b612677565b8173ffffffffffffffffffffffffffffffffffffffff168373ffffffffffffffffffffffffffffffffffffffff1614612676576126758382612ab0565b5b5b600073ffffffffffffffffffffffffffffffffffffffff168273ffffffffffffffffffffffffffffffffffffffff16036126b9576126b481612c1d565b6126f8565b8273ffffffffffffffffffffffffffffffffffffffff168273ffffffffffffffffffffffffffffffffffffffff16146126f7576126f68282612cee565b5b5b505050565b505050565b60006127238473ffffffffffffffffffffffffffffffffffffffff16612d6d565b1561287c578373ffffffffffffffffffffffffffffffffffffffff1663150b7a0261274c611bce565b8786866040518563ffffffff1660e01b815260040161276e9493929190614939565b6020604051808303816000875af19250505080156127aa57506040513d601f19601f820116820180604052508101906127a7919061499a565b60015b61282c573d80600081146127da576040519150601f19603f3d011682016040523d82523d6000602084013e6127df565b606091505b506000815103612824576040517f08c379a000000000000000000000000000000000000000000000000000000000815260040161281b90614893565b60405180910390fd5b805181602001fd5b63150b7a0260e01b7bffffffffffffffffffffffffffffffffffffffffffffffffffffffff1916817bffffffffffffffffffffffffffffffffffffffffffffffffffffffff191614915050612881565b600190505b949350505050565b600073ffffffffffffffffffffffffffffffffffffffff168273ffffffffffffffffffffffffffffffffffffffff16036128f8576040517f08c379a00000000000000000000000000000000000000000000000000000000081526004016128ef90614a13565b60405180910390fd5b6129018161235a565b15612941576040517f08c379a000000000000000000000000000000000000000000000000000000000815260040161293890614a7f565b60405180910390fd5b61294d600083836125eb565b6001600360008473ffffffffffffffffffffffffffffffffffffffff1673ffffffffffffffffffffffffffffffffffffffff168152602001908152602001600020600082825461299d91906138e7565b92505081905550816002600083815260200190815260200160002060006101000a81548173ffffffffffffffffffffffffffffffffffffffff021916908373ffffffffffffffffffffffffffffffffffffffff160217905550808273ffffffffffffffffffffffffffffffffffffffff16600073ffffffffffffffffffffffffffffffffffffffff167fddf252ad1be2c89b69c2b068fc378daa952ba7f163c4a11628f55a4df523b3ef60405160405180910390a4612a5e600083836126fd565b5050565b505050565b6008805490506009600083815260200190815260200160002081905550600881908060018154018082558091505060019003906000526020600020016000909190919091505550565b60006001612abd84611515565b612ac7919061391b565b9050600060076000848152602001908152602001600020549050818114612bac576000600660008673ffffffffffffffffffffffffffffffffffffffff1673ffffffffffffffffffffffffffffffffffffffff168152602001908152602001600020600084815260200190815260200160002054905080600660008773ffffffffffffffffffffffffffffffffffffffff1673ffffffffffffffffffffffffffffffffffffffff168152602001908152602001600020600084815260200190815260200160002081905550816007600083815260200190815260200160002081905550505b6007600084815260200190815260200160002060009055600660008573ffffffffffffffffffffffffffffffffffffffff1673ffffffffffffffffffffffffffffffffffffffff16815260200190815260200160002060008381526020019081526020016000206000905550505050565b60006001600880549050612c31919061391b565b9050600060096000848152602001908152602001600020549050600060088381548110612c6157612c60613dd8565b5b906000526020600020015490508060088381548110612c8357612c82613dd8565b5b906000526020600020018190555081600960008381526020019081526020016000208190555060096000858152602001908152602001600020600090556008805480612cd257612cd1614a9f565b5b6001900381819060005260206000200160009055905550505050565b6000612cf983611515565b905081600660008573ffffffffffffffffffffffffffffffffffffffff1673ffffffffffffffffffffffffffffffffffffffff168152602001908152602001600020600083815260200190815260200160002081905550806007600084815260200190815260200160002081905550505050565b6000808273ffffffffffffffffffffffffffffffffffffffff163b119050919050565b604051806104000160405280602090602082028036833780820191505090505090565b6000604051905090565b600080fd5b600080fd5b60007fffffffff0000000000000000000000000000000000000000000000000000000082169050919050565b612dfc81612dc7565b8114612e0757600080fd5b50565b600081359050612e1981612df3565b92915050565b600060208284031215612e3557612e34612dbd565b5b6000612e4384828501612e0a565b91505092915050565b60008115159050919050565b612e6181612e4c565b82525050565b6000602082019050612e7c6000830184612e58565b92915050565b600081519050919050565b600082825260208201905092915050565b60005b83811015612ebc578082015181840152602081019050612ea1565b60008484015250505050565b6000601f19601f8301169050919050565b6000612ee482612e82565b612eee8185612e8d565b9350612efe818560208601612e9e565b612f0781612ec8565b840191505092915050565b60006020820190508181036000830152612f2c8184612ed9565b905092915050565b6000819050919050565b612f4781612f34565b8114612f5257600080fd5b50565b600081359050612f6481612f3e565b92915050565b600060208284031215612f8057612f7f612dbd565b5b6000612f8e84828501612f55565b91505092915050565b600073ffffffffffffffffffffffffffffffffffffffff82169050919050565b6000612fc282612f97565b9050919050565b612fd281612fb7565b82525050565b6000602082019050612fed6000830184612fc9565b92915050565b612ffc81612fb7565b811461300757600080fd5b50565b60008135905061301981612ff3565b92915050565b6000806040838503121561303657613035612dbd565b5b60006130448582860161300a565b925050602061305585828601612f55565b9150509250929050565b600060ff82169050919050565b6130758161305f565b811461308057600080fd5b50565b6000813590506130928161306c565b92915050565b6000602082840312156130ae576130ad612dbd565b5b60006130bc84828501613083565b91505092915050565b6130ce81612f34565b82525050565b60006020820190506130e960008301846130c5565b92915050565b60008060006060848603121561310857613107612dbd565b5b60006131168682870161300a565b93505060206131278682870161300a565b925050604061313886828701612f55565b9150509250925092565b61314b8161305f565b82525050565b60006020820190506131666000830184613142565b92915050565b60006020828403121561318257613181612dbd565b5b60006131908482850161300a565b91505092915050565b600080fd5b600080fd5b7f4e487b7100000000000000000000000000000000000000000000000000000000600052604160045260246000fd5b6131db82612ec8565b810181811067ffffffffffffffff821117156131fa576131f96131a3565b5b80604052505050565b600061320d612db3565b905061321982826131d2565b919050565b600067ffffffffffffffff821115613239576132386131a3565b5b61324282612ec8565b9050602081019050919050565b82818337600083830152505050565b600061327161326c8461321e565b613203565b90508281526020810184848401111561328d5761328c61319e565b5b61329884828561324f565b509392505050565b600082601f8301126132b5576132b4613199565b5b81356132c584826020860161325e565b91505092915050565b6000602082840312156132e4576132e3612dbd565b5b600082013567ffffffffffffffff81111561330257613301612dc2565b5b61330e848285016132a0565b91505092915050565b61332081612e4c565b811461332b57600080fd5b50565b60008135905061333d81613317565b92915050565b6000806040838503121561335a57613359612dbd565b5b60006133688582860161300a565b92505060206133798582860161332e565b9150509250929050565b600067ffffffffffffffff82111561339e5761339d6131a3565b5b6133a782612ec8565b9050602081019050919050565b60006133c76133c284613383565b613203565b9050828152602081018484840111156133e3576133e261319e565b5b6133ee84828561324f565b509392505050565b600082601f83011261340b5761340a613199565b5b813561341b8482602086016133b4565b91505092915050565b6000806000806080858703121561343e5761343d612dbd565b5b600061344c8782880161300a565b945050602061345d8782880161300a565b935050604061346e87828801612f55565b925050606085013567ffffffffffffffff81111561348f5761348e612dc2565b5b61349b878288016133f6565b91505092959194509250565b600060209050919050565b600081905092915050565b6000819050919050565b6134d081612f34565b82525050565b60006134e283836134c7565b60208301905092915050565b6000602082019050919050565b613504816134a7565b61350e81846134b2565b9250613519826134bd565b8060005b8381101561354a57815161353187826134d6565b965061353c836134ee565b92505060018101905061351d565b505050505050565b60006104008201905061356860008301846134fb565b92915050565b6000806040838503121561358557613584612dbd565b5b60006135938582860161300a565b92505060206135a48582860161300a565b9150509250929050565b7f4e487b7100000000000000000000000000000000000000000000000000000000600052602260045260246000fd5b600060028204905060018216806135f557607f821691505b602082108103613608576136076135ae565b5b50919050565b7f4552433732313a20617070726f76616c20746f2063757272656e74206f776e6560008201527f7200000000000000000000000000000000000000000000000000000000000000602082015250565b600061366a602183612e8d565b91506136758261360e565b604082019050919050565b600060208201905081810360008301526136998161365d565b9050919050565b7f4552433732313a20617070726f76652063616c6c6572206973206e6f7420746f60008201527f6b656e206f776e6572206e6f7220617070726f76656420666f7220616c6c0000602082015250565b60006136fc603e83612e8d565b9150613707826136a0565b604082019050919050565b6000602082019050818103600083015261372b816136ef565b9050919050565b7f5265656e7472616e637947756172643a207265656e7472616e742063616c6c00600082015250565b6000613768601f83612e8d565b915061377382613732565b602082019050919050565b600060208201905081810360008301526137978161375b565b9050919050565b7f53656e646572206973206e6f7420454f41000000000000000000000000000000600082015250565b60006137d4601183612e8d565b91506137df8261379e565b602082019050919050565b60006020820190508181036000830152613803816137c7565b9050919050565b7f4e487b7100000000000000000000000000000000000000000000000000000000600052601160045260246000fd5b600061384482612f34565b915061384f83612f34565b925082820261385d81612f34565b915082820484148315176138745761387361380a565b5b5092915050565b7f736f6c64206f7574000000000000000000000000000000000000000000000000600082015250565b60006138b1600883612e8d565b91506138bc8261387b565b602082019050919050565b600060208201905081810360008301526138e0816138a4565b9050919050565b60006138f282612f34565b91506138fd83612f34565b92508282019050808211156139155761391461380a565b5b92915050565b600061392682612f34565b915061393183612f34565b92508282039050818111156139495761394861380a565b5b92915050565b600061395a8261305f565b915060ff820361396d5761396c61380a565b5b600182019050919050565b7f63616e206e6f742066696e64207465616d000000000000000000000000000000600082015250565b60006139ae601183612e8d565b91506139b982613978565b602082019050919050565b600060208201905081810360008301526139dd816139a1565b9050919050565b60006139ef82612f34565b91507fffffffffffffffffffffffffffffffffffffffffffffffffffffffffffffffff8203613a2157613a2061380a565b5b600182019050919050565b7f696e76616c696420706172616d65746572000000000000000000000000000000600082015250565b6000613a62601183612e8d565b9150613a6d82613a2c565b602082019050919050565b60006020820190508181036000830152613a9181613a55565b9050919050565b7f4e4654206f66207465616d20697320736f6c64206f7574000000000000000000600082015250565b6000613ace601783612e8d565b9150613ad982613a98565b602082019050919050565b60006020820190508181036000830152613afd81613ac1565b9050919050565b7f696e76616c6964204554482062616c616e636500000000000000000000000000600082015250565b6000613b3a601383612e8d565b9150613b4582613b04565b602082019050919050565b60006020820190508181036000830152613b6981613b2d565b9050919050565b7f4552433732313a2063616c6c6572206973206e6f7420746f6b656e206f776e6560008201527f72206e6f7220617070726f766564000000000000000000000000000000000000602082015250565b6000613bcc602e83612e8d565b9150613bd782613b70565b604082019050919050565b60006020820190508181036000830152613bfb81613bbf565b9050919050565b7f455243373231456e756d657261626c653a206f776e657220696e646578206f7560008201527f74206f6620626f756e6473000000000000000000000000000000000000000000602082015250565b6000613c5e602b83612e8d565b9150613c6982613c02565b604082019050919050565b60006020820190508181036000830152613c8d81613c51565b9050919050565b600081905092915050565b50565b6000613caf600083613c94565b9150613cba82613c9f565b600082019050919050565b6000613cd082613ca2565b9150819050919050565b7f4574686572207472616e73666572206661696c65640000000000000000000000600082015250565b6000613d10601583612e8d565b9150613d1b82613cda565b602082019050919050565b60006020820190508181036000830152613d3f81613d03565b9050919050565b7f455243373231456e756d657261626c653a20676c6f62616c20696e646578206f60008201527f7574206f6620626f756e64730000000000000000000000000000000000000000602082015250565b6000613da2602c83612e8d565b9150613dad82613d46565b604082019050919050565b60006020820190508181036000830152613dd181613d95565b9050919050565b7f4e487b7100000000000000000000000000000000000000000000000000000000600052603260045260246000fd5b7f4552433732313a20696e76616c696420746f6b656e2049440000000000000000600082015250565b6000613e3d601883612e8d565b9150613e4882613e07565b602082019050919050565b60006020820190508181036000830152613e6c81613e30565b9050919050565b7f4552433732313a2061646472657373207a65726f206973206e6f74206120766160008201527f6c6964206f776e65720000000000000000000000000000000000000000000000602082015250565b6000613ecf602983612e8d565b9150613eda82613e73565b604082019050919050565b60006020820190508181036000830152613efe81613ec2565b9050919050565b60008190508160005260206000209050919050565b60006020601f8301049050919050565b600082821b905092915050565b600060088302613f677fffffffffffffffffffffffffffffffffffffffffffffffffffffffffffffffff82613f2a565b613f718683613f2a565b95508019841693508086168417925050509392505050565b6000819050919050565b6000613fae613fa9613fa484612f34565b613f89565b612f34565b9050919050565b6000819050919050565b613fc883613f93565b613fdc613fd482613fb5565b848454613f37565b825550505050565b600090565b613ff1613fe4565b613ffc818484613fbf565b505050565b5b8181101561402057614015600082613fe9565b600181019050614002565b5050565b601f8211156140655761403681613f05565b61403f84613f1a565b8101602085101561404e578190505b61406261405a85613f1a565b830182614001565b50505b505050565b600082821c905092915050565b60006140886000198460080261406a565b1980831691505092915050565b60006140a18383614077565b9150826002028217905092915050565b6140ba82612e82565b67ffffffffffffffff8111156140d3576140d26131a3565b5b6140dd82546135dd565b6140e8828285614024565b600060209050601f83116001811461411b5760008415614109578287015190505b6141138582614095565b86555061417b565b601f19841661412986613f05565b60005b828110156141515784890151825560018201915060208501945060208101905061412c565b8683101561416e578489015161416a601f891682614077565b8355505b6001600288020188555050505b505050505050565b7f4552433732314d657461646174613a2055524920717565727920666f72206e6f60008201527f6e6578697374656e7420746f6b656e0000000000000000000000000000000000602082015250565b60006141df602f83612e8d565b91506141ea82614183565b604082019050919050565b6000602082019050818103600083015261420e816141d2565b9050919050565b600081905092915050565b6000815461422d816135dd565b6142378186614215565b9450600182166000811461425257600181146142675761429a565b60ff198316865281151582028601935061429a565b61427085613f05565b60005b8381101561429257815481890152600182019150602081019050614273565b838801955050505b50505092915050565b7f70726572657665616c0000000000000000000000000000000000000000000000600082015250565b60006142d9600983614215565b91506142e4826142a3565b600982019050919050565b60006142fb8284614220565b9150614306826142cc565b915081905092915050565b600061431c82612e82565b6143268185614215565b9350614336818560208601612e9e565b80840191505092915050565b600061434e8285614220565b915061435a8284614311565b91508190509392505050565b7f636f6e7472616374555249000000000000000000000000000000000000000000600082015250565b600061439c600b83614215565b91506143a782614366565b600b82019050919050565b60006143be8284614220565b91506143c98261438f565b915081905092915050565b7f4f776e61626c653a206e6577206f776e657220697320746865207a65726f206160008201527f6464726573730000000000000000000000000000000000000000000000000000602082015250565b6000614430602683612e8d565b915061443b826143d4565b604082019050919050565b6000602082019050818103600083015261445f81614423565b9050919050565b7f5061757361626c653a2070617573656400000000000000000000000000000000600082015250565b600061449c601083612e8d565b91506144a782614466565b602082019050919050565b600060208201905081810360008301526144cb8161448f565b9050919050565b6000819050919050565b6000819050919050565b6144f76144f2826144d2565b6144dc565b82525050565b6000819050919050565b61451861451382612f34565b6144fd565b82525050565b60008160601b9050919050565b60006145368261451e565b9050919050565b60006145488261452b565b9050919050565b61456061455b82612fb7565b61453d565b82525050565b600061457282886144e6565b6020820191506145828287614507565b602082019150614592828661454f565b6014820191506145a28285614507565b6020820191506145b28284614507565b6020820191508190509695505050505050565b7f4e487b7100000000000000000000000000000000000000000000000000000000600052601260045260246000fd5b60006145ff82612f34565b915061460a83612f34565b92508261461a576146196145c5565b5b828206905092915050565b7f4552433732313a207472616e736665722066726f6d20696e636f72726563742060008201527f6f776e6572000000000000000000000000000000000000000000000000000000602082015250565b6000614681602583612e8d565b915061468c82614625565b604082019050919050565b600060208201905081810360008301526146b081614674565b9050919050565b7f4552433732313a207472616e7366657220746f20746865207a65726f2061646460008201527f7265737300000000000000000000000000000000000000000000000000000000602082015250565b6000614713602483612e8d565b915061471e826146b7565b604082019050919050565b6000602082019050818103600083015261474281614706565b9050919050565b7f4f776e61626c653a2063616c6c6572206973206e6f7420746865206f776e6572600082015250565b600061477f602083612e8d565b915061478a82614749565b602082019050919050565b600060208201905081810360008301526147ae81614772565b9050919050565b7f4552433732313a20617070726f766520746f2063616c6c657200000000000000600082015250565b60006147eb601983612e8d565b91506147f6826147b5565b602082019050919050565b6000602082019050818103600083015261481a816147de565b9050919050565b7f4552433732313a207472616e7366657220746f206e6f6e20455243373231526560008201527f63656976657220696d706c656d656e7465720000000000000000000000000000602082015250565b600061487d603283612e8d565b915061488882614821565b604082019050919050565b600060208201905081810360008301526148ac81614870565b9050919050565b60006148be82612f34565b91506148c983612f34565b9250826148d9576148d86145c5565b5b828204905092915050565b600081519050919050565b600082825260208201905092915050565b600061490b826148e4565b61491581856148ef565b9350614925818560208601612e9e565b61492e81612ec8565b840191505092915050565b600060808201905061494e6000830187612fc9565b61495b6020830186612fc9565b61496860408301856130c5565b818103606083015261497a8184614900565b905095945050505050565b60008151905061499481612df3565b92915050565b6000602082840312156149b0576149af612dbd565b5b60006149be84828501614985565b91505092915050565b7f4552433732313a206d696e7420746f20746865207a65726f2061646472657373600082015250565b60006149fd602083612e8d565b9150614a08826149c7565b602082019050919050565b60006020820190508181036000830152614a2c816149f0565b9050919050565b7f4552433732313a20746f6b656e20616c7265616479206d696e74656400000000600082015250565b6000614a69601c83612e8d565b9150614a7482614a33565b602082019050919050565b60006020820190508181036000830152614a9881614a5c565b9050919050565b7f4e487b7100000000000000000000000000000000000000000000000000000000600052603160045260246000fdfea26469706673582212207503f2516fc1c80223b557065fd7327fa6d8357c778e061ddee12de432c4399c64736f6c63430008110033",
  "linkReferences": {},
  "deployedLinkReferences": {}
}