{
  "_format": "hh-sol-artifact-1",
  "contractName": "GroupPredict",
  "sourceName": "contracts/GroupPredict.sol",
  "abi": [
    {
      "inputs": [
        {
          "internalType": "contract IGroupNFT",
          "name": "nft",
          "type": "address"
        },
        {
          "internalType": "contract ERC20PresetMinterPauser",
          "name": "token",
          "type": "address"
        },
        {
          "internalType": "uint256",
          "name": "rewardAmt",
          "type": "uint256"
        }
      ],
      "stateMutability": "nonpayable",
      "type": "constructor"
    },
    {
      "anonymous": false,
      "inputs": [
        {
          "indexed": true,
          "internalType": "address",
          "name": "previousOwner",
          "type": "address"
        },
        {
          "indexed": true,
          "internalType": "address",
          "name": "newOwner",
          "type": "address"
        }
      ],
      "name": "OwnershipTransferred",
      "type": "event"
    },
    {
      "anonymous": false,
      "inputs": [
        {
          "indexed": false,
          "internalType": "address",
          "name": "account",
          "type": "address"
        }
      ],
      "name": "Paused",
      "type": "event"
    },
    {
      "anonymous": false,
      "inputs": [
        {
          "indexed": false,
          "internalType": "address",
          "name": "account",
          "type": "address"
        }
      ],
      "name": "Unpaused",
      "type": "event"
    },
    {
      "inputs": [],
      "name": "GroupNFT",
      "outputs": [
        {
          "internalType": "contract IGroupNFT",
          "name": "",
          "type": "address"
        }
      ],
      "stateMutability": "view",
      "type": "function"
    },
    {
      "inputs": [],
      "name": "NFTBToken",
      "outputs": [
        {
          "internalType": "contract ERC20PresetMinterPauser",
          "name": "",
          "type": "address"
        }
      ],
      "stateMutability": "view",
      "type": "function"
    },
    {
      "inputs": [],
      "name": "TEAM_COUNT",
      "outputs": [
        {
          "internalType": "uint8",
          "name": "",
          "type": "uint8"
        }
      ],
      "stateMutability": "view",
      "type": "function"
    },
    {
      "inputs": [
        {
          "internalType": "uint8",
          "name": "",
          "type": "uint8"
        }
      ],
      "name": "_gameDrawPredictCount",
      "outputs": [
        {
          "internalType": "uint256",
          "name": "",
          "type": "uint256"
        }
      ],
      "stateMutability": "view",
      "type": "function"
    },
    {
      "inputs": [
        {
          "internalType": "uint8",
          "name": "",
          "type": "uint8"
        }
      ],
      "name": "_gameLosePredictCount",
      "outputs": [
        {
          "internalType": "uint256",
          "name": "",
          "type": "uint256"
        }
      ],
      "stateMutability": "view",
      "type": "function"
    },
    {
      "inputs": [
        {
          "internalType": "uint8",
          "name": "",
          "type": "uint8"
        }
      ],
      "name": "_gameWinPredictCount",
      "outputs": [
        {
          "internalType": "uint256",
          "name": "",
          "type": "uint256"
        }
      ],
      "stateMutability": "view",
      "type": "function"
    },
    {
      "inputs": [
        {
          "internalType": "uint8",
          "name": "",
          "type": "uint8"
        }
      ],
      "name": "_games",
      "outputs": [
        {
          "internalType": "uint8",
          "name": "homeTeam",
          "type": "uint8"
        },
        {
          "internalType": "uint8",
          "name": "awayTeam",
          "type": "uint8"
        },
        {
          "internalType": "uint256",
          "name": "deadline",
          "type": "uint256"
        },
        {
          "internalType": "uint8",
          "name": "homeScore",
          "type": "uint8"
        },
        {
          "internalType": "uint8",
          "name": "awayScore",
          "type": "uint8"
        },
        {
          "internalType": "enum GroupPredict.GameResult",
          "name": "result",
          "type": "uint8"
        }
      ],
      "stateMutability": "view",
      "type": "function"
    },
    {
      "inputs": [],
      "name": "_predictId",
      "outputs": [
        {
          "internalType": "uint256",
          "name": "",
          "type": "uint256"
        }
      ],
      "stateMutability": "view",
      "type": "function"
    },
    {
      "inputs": [
        {
          "internalType": "uint256",
          "name": "",
          "type": "uint256"
        }
      ],
      "name": "_predictInfos",
      "outputs": [
        {
          "internalType": "uint8",
          "name": "gameId",
          "type": "uint8"
        },
        {
          "internalType": "uint256",
          "name": "time",
          "type": "uint256"
        },
        {
          "internalType": "enum GroupPredict.GameResult",
          "name": "result",
          "type": "uint8"
        },
        {
          "internalType": "uint256",
          "name": "count",
          "type": "uint256"
        },
        {
          "internalType": "address",
          "name": "userAddr",
          "type": "address"
        },
        {
          "internalType": "bool",
          "name": "isClaimed",
          "type": "bool"
        }
      ],
      "stateMutability": "view",
      "type": "function"
    },
    {
      "inputs": [
        {
          "internalType": "uint256",
          "name": "",
          "type": "uint256"
        }
      ],
      "name": "_tokenPredictInfos",
      "outputs": [
        {
          "internalType": "uint256",
          "name": "",
          "type": "uint256"
        }
      ],
      "stateMutability": "view",
      "type": "function"
    },
    {
      "inputs": [
        {
          "internalType": "address",
          "name": "",
          "type": "address"
        },
        {
          "internalType": "uint256",
          "name": "",
          "type": "uint256"
        }
      ],
      "name": "_userPredicts",
      "outputs": [
        {
          "internalType": "uint256",
          "name": "",
          "type": "uint256"
        }
      ],
      "stateMutability": "view",
      "type": "function"
    },
    {
      "inputs": [
        {
          "internalType": "uint256",
          "name": "predictId",
          "type": "uint256"
        }
      ],
      "name": "claim",
      "outputs": [],
      "stateMutability": "nonpayable",
      "type": "function"
    },
    {
      "inputs": [
        {
          "internalType": "uint8[]",
          "name": "gameIds",
          "type": "uint8[]"
        }
      ],
      "name": "getGameByIds",
      "outputs": [
        {
          "components": [
            {
              "internalType": "uint8",
              "name": "homeTeam",
              "type": "uint8"
            },
            {
              "internalType": "uint8",
              "name": "awayTeam",
              "type": "uint8"
            },
            {
              "internalType": "uint256",
              "name": "deadline",
              "type": "uint256"
            },
            {
              "internalType": "uint8",
              "name": "homeScore",
              "type": "uint8"
            },
            {
              "internalType": "uint8",
              "name": "awayScore",
              "type": "uint8"
            },
            {
              "internalType": "enum GroupPredict.GameResult",
              "name": "result",
              "type": "uint8"
            }
          ],
          "internalType": "struct GroupPredict.Game[]",
          "name": "",
          "type": "tuple[]"
        },
        {
          "internalType": "uint256[]",
          "name": "",
          "type": "uint256[]"
        }
      ],
      "stateMutability": "view",
      "type": "function"
    },
    {
      "inputs": [
        {
          "internalType": "address",
          "name": "userAddr",
          "type": "address"
        },
        {
          "internalType": "uint256",
          "name": "pageNum",
          "type": "uint256"
        },
        {
          "internalType": "uint256",
          "name": "pageSize",
          "type": "uint256"
        }
      ],
      "name": "getPredictsByUser",
      "outputs": [
        {
          "internalType": "uint256",
          "name": "",
          "type": "uint256"
        },
        {
          "components": [
            {
              "internalType": "uint256",
              "name": "id",
              "type": "uint256"
            },
            {
              "internalType": "uint256",
              "name": "time",
              "type": "uint256"
            },
            {
              "internalType": "uint8",
              "name": "homeTeamId",
              "type": "uint8"
            },
            {
              "internalType": "uint8",
              "name": "awayTeamId",
              "type": "uint8"
            },
            {
              "internalType": "uint8",
              "name": "homeScore",
              "type": "uint8"
            },
            {
              "internalType": "uint8",
              "name": "awayScore",
              "type": "uint8"
            },
            {
              "internalType": "enum GroupPredict.GameResult",
              "name": "result",
              "type": "uint8"
            },
            {
              "internalType": "uint256",
              "name": "count",
              "type": "uint256"
            },
            {
              "internalType": "uint256",
              "name": "reward",
              "type": "uint256"
            },
            {
              "internalType": "bool",
              "name": "isClaimed",
              "type": "bool"
            },
            {
              "internalType": "uint256[]",
              "name": "tokenIds",
              "type": "uint256[]"
            }
          ],
          "internalType": "struct GroupPredict.PredictResult[]",
          "name": "",
          "type": "tuple[]"
        }
      ],
      "stateMutability": "view",
      "type": "function"
    },
    {
      "inputs": [],
      "name": "getRewardAmount",
      "outputs": [
        {
          "internalType": "uint256",
          "name": "",
          "type": "uint256"
        }
      ],
      "stateMutability": "view",
      "type": "function"
    },
    {
      "inputs": [
        {
          "internalType": "uint8",
          "name": "gameId",
          "type": "uint8"
        }
      ],
      "name": "getTotalPredictCountByGame",
      "outputs": [
        {
          "internalType": "uint256",
          "name": "",
          "type": "uint256"
        }
      ],
      "stateMutability": "view",
      "type": "function"
    },
    {
      "inputs": [
        {
          "internalType": "address",
          "name": "userAddr",
          "type": "address"
        },
        {
          "internalType": "uint8",
          "name": "gameId",
          "type": "uint8"
        }
      ],
      "name": "getUserNFTByGameAndNotPredicted",
      "outputs": [
        {
          "internalType": "uint256[]",
          "name": "",
          "type": "uint256[]"
        }
      ],
      "stateMutability": "view",
      "type": "function"
    },
    {
      "inputs": [
        {
          "internalType": "address",
          "name": "userAddr",
          "type": "address"
        },
        {
          "internalType": "uint8",
          "name": "team",
          "type": "uint8"
        }
      ],
      "name": "getUserNFTByTeamAndNotPredicted",
      "outputs": [
        {
          "internalType": "uint256[]",
          "name": "",
          "type": "uint256[]"
        }
      ],
      "stateMutability": "view",
      "type": "function"
    },
    {
      "inputs": [],
      "name": "owner",
      "outputs": [
        {
          "internalType": "address",
          "name": "",
          "type": "address"
        }
      ],
      "stateMutability": "view",
      "type": "function"
    },
    {
      "inputs": [],
      "name": "paused",
      "outputs": [
        {
          "internalType": "bool",
          "name": "",
          "type": "bool"
        }
      ],
      "stateMutability": "view",
      "type": "function"
    },
    {
      "inputs": [
        {
          "internalType": "uint8",
          "name": "gameId",
          "type": "uint8"
        },
        {
          "internalType": "uint256[]",
          "name": "tokenIds",
          "type": "uint256[]"
        },
        {
          "internalType": "enum GroupPredict.GameResult",
          "name": "result",
          "type": "uint8"
        }
      ],
      "name": "predict",
      "outputs": [],
      "stateMutability": "nonpayable",
      "type": "function"
    },
    {
      "inputs": [],
      "name": "renounceOwnership",
      "outputs": [],
      "stateMutability": "nonpayable",
      "type": "function"
    },
    {
      "inputs": [
        {
          "internalType": "uint8[]",
          "name": "ids",
          "type": "uint8[]"
        },
        {
          "internalType": "uint8[]",
          "name": "homeTeams",
          "type": "uint8[]"
        },
        {
          "internalType": "uint8[]",
          "name": "awayTeams",
          "type": "uint8[]"
        },
        {
          "internalType": "uint256[]",
          "name": "deadlines",
          "type": "uint256[]"
        }
      ],
      "name": "setGames",
      "outputs": [],
      "stateMutability": "nonpayable",
      "type": "function"
    },
    {
      "inputs": [
        {
          "internalType": "uint8[]",
          "name": "ids",
          "type": "uint8[]"
        },
        {
          "internalType": "uint8[]",
          "name": "homeScores",
          "type": "uint8[]"
        },
        {
          "internalType": "uint8[]",
          "name": "awayScores",
          "type": "uint8[]"
        },
        {
          "internalType": "enum GroupPredict.GameResult[]",
          "name": "results",
          "type": "uint8[]"
        }
      ],
      "name": "setResults",
      "outputs": [],
      "stateMutability": "nonpayable",
      "type": "function"
    },
    {
      "inputs": [
        {
          "internalType": "address",
          "name": "newOwner",
          "type": "address"
        }
      ],
      "name": "transferOwnership",
      "outputs": [],
      "stateMutability": "nonpayable",
      "type": "function"
    }
  ],
  "bytecode": "0x60806040523480156200001157600080fd5b5060405162002c0738038062002c078339810160408190526200003491620000ee565b6200003f3362000085565b60018055600280546001600160a81b0319166101006001600160a01b0395861602179055600380546001600160a01b031916929093169190911790915560045562000136565b600080546001600160a01b038381166001600160a01b0319831681178455604051919092169283917f8be0079c531659141344cd1fd0a4f28419497f9722a3daafe3b4186f6b6457e09190a35050565b6001600160a01b0381168114620000eb57600080fd5b50565b6000806000606084860312156200010457600080fd5b83516200011181620000d5565b60208501519093506200012481620000d5565b80925050604084015190509250925092565b612ac180620001466000396000f3fe608060405234801561001057600080fd5b50600436106101725760003560e01c80636de5e2e0116100de578063c258038a11610097578063e7a2bba011610071578063e7a2bba014610407578063ef343f501461041a578063f2fde38b1461043a578063fe59165c1461044d57600080fd5b8063c258038a146103b3578063cf9d0352146103d3578063e3fac264146103f457600080fd5b80636de5e2e0146103535780636e6fd35614610366578063715018a61461036f57806379b00b6e1461037757806381b8a9d81461038f5780638da5cb5b146103a257600080fd5b8063263df1d111610130578063263df1d1146102335780633096dfc91461024d57806333ec386014610260578063379607f5146102c25780634464b186146102d55780635c975abb1461033d57600080fd5b8062276a50146101775780630332086e146101a7578063087a622f146101d557806309a69f57146101f65780631f23ab6b146101fe57806323bbcd431461021e575b600080fd5b60035461018a906001600160a01b031681565b6040516001600160a01b0390911681526020015b60405180910390f35b6101c76101b5366004612264565b60066020526000908152604090205481565b60405190815260200161019e565b6101e86101e3366004612356565b61046d565b60405161019e929190612405565b6004546101c7565b61021161020c3660046124bc565b61066f565b60405161019e91906124f1565b61023161022c36600461256e565b6109aa565b005b61023b602081565b60405160ff909116815260200161019e565b61021161025b3660046124bc565b6110db565b6102b061026e366004612264565b60056020526000908152604090208054600182015460029092015460ff8083169361010093849004821693909280831692918104821691620100009091041686565b60405161019e969594939291906125cb565b6102316102d0366004612601565b61137f565b61032b6102e3366004612601565b600b6020526000908152604090208054600182015460028301546003840154600485015460069095015460ff9485169593949283169391926001600160a01b03909216911686565b60405161019e9695949392919061261a565b60025460ff16604051901515815260200161019e565b6101c7610361366004612660565b61177f565b6101c760095481565b6102316117b0565b60025461018a9061010090046001600160a01b031681565b6101c761039d366004612264565b6117c4565b6000546001600160a01b031661018a565b6101c76103c1366004612264565b60076020526000908152604090205481565b6103e66103e136600461268c565b611800565b60405161019e9291906126c1565b6102316104023660046127b6565b611bf5565b6102316104153660046128bc565b611e15565b6101c7610428366004612264565b60086020526000908152604090205481565b610231610448366004612968565b612029565b6101c761045b366004612601565b600a6020526000908152604090205481565b606080600083516001600160401b0381111561048b5761048b612286565b6040519080825280602002602001820160405280156104f257816020015b6104df6040805160c08101825260008082526020820181905291810182905260608101829052608081018290529060a082015290565b8152602001906001900390816104a95790505b509050600084516001600160401b0381111561051057610510612286565b604051908082528060200260200182016040528015610539578160200160208202803683370190505b50905060005b8551811015610664576005600087838151811061055e5761055e612985565b60209081029190910181015160ff9081168352828201939093526040918201600020825160c08101845281548086168252610100908190048616938201939093526001820154938101939093526002810154808516606085015291820484166080840152919260a08401916201000090041660038111156105e1576105e1612392565b60038111156105f2576105f2612392565b8152505083828151811061060857610608612985565b602002602001018190525061063586828151811061062857610628612985565b60200260200101516117c4565b82828151811061064757610647612985565b60209081029190910101528061065c816129b1565b91505061053f565b509094909350915050565b60ff81166000908152600560205260409020600101546060906106ca5760405162461bcd60e51b815260206004820152600e60248201526d19d85b59481b9bdd08195e1a5cdd60921b60448201526064015b60405180910390fd5b6002546040516370a0823160e01b81526001600160a01b038581166004830152600092610100900416906370a0823190602401602060405180830381865afa15801561071a573d6000803e3d6000fd5b505050506040513d601f19601f8201168201806040525081019061073e91906129ca565b9050600080826001600160401b0381111561075b5761075b612286565b604051908082528060200260200182016040528015610784578160200160208202803683370190505b50905060005b838110156108c357600254604051632f745c5960e01b81526001600160a01b0389811660048301526024820184905260009261010090041690632f745c5990604401602060405180830381865afa1580156107e9573d6000803e3d6000fd5b505050506040513d601f19601f8201168201806040525081019061080d91906129ca565b60ff80891660009081526005602090815260409091205492935091169061083490836129e3565b1480610867575060ff80881660009081526005602090815260409091205461010090049091169061086590836129e3565b145b801561087f57506000818152600a6020526040902054155b156108b0578083858151811061089757610897612985565b6020908102919091010152836108ac816129b1565b9450505b50806108bb816129b1565b91505061078a565b50816000036109035760005b6040519080825280602002602001820160405280156108f8578160200160208202803683370190505b5093505050506109a4565b6000826001600160401b0381111561091d5761091d612286565b604051908082528060200260200182016040528015610946578160200160208202803683370190505b50905060005b8381101561099d5782818151811061096657610966612985565b602002602001015182828151811061098057610980612985565b602090810291909101015280610995816129b1565b91505061094c565b5093505050505b92915050565b6002600154036109fc5760405162461bcd60e51b815260206004820152601f60248201527f5265656e7472616e637947756172643a207265656e7472616e742063616c6c0060448201526064016106c1565b6002600155610a096120a2565b333214610a4c5760405162461bcd60e51b815260206004820152601160248201527053656e646572206973206e6f7420454f4160781b60448201526064016106c1565b6000816003811115610a6057610a60612392565b03610a9e5760405162461bcd60e51b815260206004820152600e60248201526d1a5b9d985b1a59081c995cdd5b1d60921b60448201526064016106c1565b60ff831660009081526005602052604090206001015415801590610ad7575060ff83166000908152600560205260409020600101544211155b610b3b5760405162461bcd60e51b815260206004820152602f60248201527f67616d65206e6f7420657869737473206f722067616d6520616c72656164792060448201526e73746f702070726564696374696e6760881b60648201526084016106c1565b60098054906000610b4b836129b1565b909155505081516040805160e08101825260ff86168152426020820152908101836003811115610b7d57610b7d612392565b8152602081018390523360408201526060016000604051908082528060200260200182016040528015610bba578160200160208202803683370190505b508152600060209182018190526009548152600b82526040908190208351815460ff90911660ff19918216178255928401516001828101919091559184015160028201805492949193909290911690836003811115610c1b57610c1b612392565b02179055506060820151600382015560808201516004820180546001600160a01b0319166001600160a01b0390921691909117905560a08201518051610c6b916005840191602090910190612192565b5060c091909101516006909101805460ff191691151591909117905560005b81811015610fbe576002548451339161010090046001600160a01b031690636352211e90879085908110610cc057610cc0612985565b60200260200101516040518263ffffffff1660e01b8152600401610ce691815260200190565b602060405180830381865afa158015610d03573d6000803e3d6000fd5b505050506040513d601f19601f82011682018060405250810190610d279190612a05565b6001600160a01b031614610d7d5760405162461bcd60e51b815260206004820152601c60248201527f6d73672e73656e646572206e6f74206f776e2074686520746f6b656e0000000060448201526064016106c1565b600a6000858381518110610d9357610d93612985565b6020026020010151815260200190815260200160002054600014610df95760405162461bcd60e51b815260206004820152601a60248201527f746f6b656e20616c72656164792062652070726564696374656400000000000060448201526064016106c1565b6000602060ff16858381518110610e1257610e12612985565b6020026020010151610e2491906129e3565b60ff80881660009081526005602052604090205491925080831691161480610e67575060ff86811660009081526005602052604090205461010090048116908216145b610ea95760405162461bcd60e51b8152602060048201526013602482015272746f6b656e206e6f742067616d65207465616d60681b60448201526064016106c1565b600954600a6000878581518110610ec257610ec2612985565b6020026020010151815260200190815260200160002081905550600b60006009548152602001908152602001600020600501858381518110610f0657610f06612985565b6020908102919091018101518254600181018455600093845291909220015560025485516101009091046001600160a01b03169063dd46706490879085908110610f5257610f52612985565b60200260200101516040518263ffffffff1660e01b8152600401610f7891815260200190565b600060405180830381600087803b158015610f9257600080fd5b505af1158015610fa6573d6000803e3d6000fd5b50505050508080610fb6906129b1565b915050610c8a565b50336000908152600c6020908152604082206009548154600181810184559285529290932090910191909155826003811115610ffc57610ffc612392565b036110375760ff841660009081526006602052604090205461101f908290612a22565b60ff85166000908152600660205260409020556110d1565b600282600381111561104b5761104b612392565b036110865760ff841660009081526007602052604090205461106e908290612a22565b60ff85166000908152600760205260409020556110d1565b600382600381111561109a5761109a612392565b036110d15760ff84166000908152600860205260409020546110bd908290612a22565b60ff85166000908152600860205260409020555b5050600180555050565b6060602060ff8316106111245760405162461bcd60e51b815260206004820152601160248201527034b73b30b634b2103830b930b6b2ba32b960791b60448201526064016106c1565b6002546040516370a0823160e01b81526001600160a01b038581166004830152600092610100900416906370a0823190602401602060405180830381865afa158015611174573d6000803e3d6000fd5b505050506040513d601f19601f8201168201806040525081019061119891906129ca565b9050600080826001600160401b038111156111b5576111b5612286565b6040519080825280602002602001820160405280156111de578160200160208202803683370190505b50905060005b838110156112d557600254604051632f745c5960e01b81526001600160a01b0389811660048301526024820184905260009261010090041690632f745c5990604401602060405180830381865afa158015611243573d6000803e3d6000fd5b505050506040513d601f19601f8201168201806040525081019061126791906129ca565b905060ff87166112786020836129e3565b14801561129157506000818152600a6020526040902054155b156112c257808385815181106112a9576112a9612985565b6020908102919091010152836112be816129b1565b9450505b50806112cd816129b1565b9150506111e4565b50816000036112e55760006108cf565b6000826001600160401b038111156112ff576112ff612286565b604051908082528060200260200182016040528015611328578160200160208202803683370190505b50905060005b8381101561099d5782818151811061134857611348612985565b602002602001015182828151811061136257611362612985565b602090810291909101015280611377816129b1565b91505061132e565b6002600154036113d15760405162461bcd60e51b815260206004820152601f60248201527f5265656e7472616e637947756172643a207265656e7472616e742063616c6c0060448201526064016106c1565b60026001556113de6120a2565b3332146114215760405162461bcd60e51b815260206004820152601160248201527053656e646572206973206e6f7420454f4160781b60448201526064016106c1565b6000818152600b602052604081206002015460ff16600381111561144757611447612392565b036114885760405162461bcd60e51b81526020600482015260116024820152701c1c99591a58dd081b9bdd08195e1a5cdd607a1b60448201526064016106c1565b6000818152600b602052604090206006015460ff16156114dc5760405162461bcd60e51b815260206004820152600f60248201526e185b1c9958591e4818db185a5b5959608a1b60448201526064016106c1565b6000818152600b60205260409020600401546001600160a01b031633146115455760405162461bcd60e51b815260206004820152601c60248201527f70726564696374206973206e6f74206f776e656420627920757365720000000060448201526064016106c1565b6000818152600b602090815260408083205460ff908116845260059092529091206002015462010000900416600381111561158257611582612392565b6000828152600b602052604090206002015460ff1660038111156115a8576115a8612392565b0361164357600380546000838152600b60205260409020909101546004546001600160a01b03909216916340c10f199133916115e49190612a35565b6040516001600160e01b031960e085901b1681526001600160a01b0390921660048301526024820152604401600060405180830381600087803b15801561162a57600080fd5b505af115801561163e573d6000803e3d6000fd5b505050505b6000818152600b60205260408120600601805460ff191660011790555b6000828152600b6020526040902060050154811015611777576000828152600b602052604081206005018054600a918391859081106116a1576116a1612985565b9060005260206000200154815260200190815260200160002081905550600260019054906101000a90046001600160a01b03166001600160a01b0316636198e339600b6000858152602001908152602001600020600501838154811061170957611709612985565b90600052602060002001546040518263ffffffff1660e01b815260040161173291815260200190565b600060405180830381600087803b15801561174c57600080fd5b505af1158015611760573d6000803e3d6000fd5b50505050808061176f906129b1565b915050611660565b505060018055565b600c602052816000526040600020818154811061179b57600080fd5b90600052602060002001600091509150505481565b6117b86120e8565b6117c26000612142565b565b60ff8116600090815260086020908152604080832054600783528184205460069093529083205490916117f691612a22565b6109a49190612a22565b6001600160a01b0383166000908152600c60205260408120546060908284611829600188612a4c565b6118339190612a35565b905060006118418688612a35565b90508282111561188a5760408051600080825260208201909252849161187d565b61186a6121dd565b8152602001906001900390816118625790505b5094509450505050611bed565b828111156118955750815b60006118a18383612a4c565b6001600160401b038111156118b8576118b8612286565b6040519080825280602002602001820160405280156118f157816020015b6118de6121dd565b8152602001906001900390816118d65790505b509050825b82811015611be3576001600160a01b038a166000908152600c602052604081208054600b9183918590811061192d5761192d612985565b600091825260208083209091015483528281019390935260409182019020815160e081018352815460ff908116825260018301549482019490945260028201549093919284019116600381111561198657611986612392565b600381111561199757611997612392565b8152602001600382015481526020016004820160009054906101000a90046001600160a01b03166001600160a01b03166001600160a01b0316815260200160058201805480602002602001604051908101604052809291908181526020018280548015611a2357602002820191906000526020600020905b815481526020019060010190808311611a0f575b50505091835250506006919091015460ff1615156020909101529050611a476121dd565b6001600160a01b038c166000908152600c60205260409020805484908110611a7157611a71612985565b600091825260208083209091015483528381015183820152835160ff908116835260058083526040808520548316818701528651831685528184528085205461010090819004841660608801528751841686528285528186206002908101548516608089015288518516875292909452938490200154919091041660a083015282015160c08201906003811115611b0a57611b0a612392565b90816003811115611b1d57611b1d612392565b905250606082015160e0820152815160ff908116600090815260056020526040902060020154620100009004166003811115611b5b57611b5b612392565b82604001516003811115611b7157611b71612392565b03611b8f578160600151600454611b889190612a35565b6101008201525b60c0820151151561012082015260a08201516101408201528084611bb38886612a4c565b81518110611bc357611bc3612985565b602002602001018190525050508080611bdb906129b1565b9150506118f6565b5092945091925050505b935093915050565b611bfd6120e8565b80518451148015611c0f575082518451145b8015611c1c575081518451145b611c385760405162461bcd60e51b81526004016106c190612a5f565b60005b8451811015611e0e57600060056000878481518110611c5c57611c5c612985565b602002602001015160ff1660ff1681526020019081526020016000206001015411611cbb5760405162461bcd60e51b815260206004820152600f60248201526e67616d65206e6f742065786973747360881b60448201526064016106c1565b828181518110611ccd57611ccd612985565b602002602001015160056000878481518110611ceb57611ceb612985565b602002602001015160ff1660ff16815260200190815260200160002060020160016101000a81548160ff021916908360ff160217905550838181518110611d3457611d34612985565b602002602001015160056000878481518110611d5257611d52612985565b602002602001015160ff1660ff16815260200190815260200160002060020160006101000a81548160ff021916908360ff160217905550818181518110611d9b57611d9b612985565b602002602001015160056000878481518110611db957611db9612985565b60209081029190910181015160ff168252810191909152604001600020600201805462ff0000191662010000836003811115611df757611df7612392565b021790555080611e06816129b1565b915050611c3b565b5050505050565b611e1d6120e8565b82518451148015611e2f575081518451145b8015611e3c575080518451145b611e585760405162461bcd60e51b81526004016106c190612a5f565b60005b8451811015611e0e57602060ff16848281518110611e7b57611e7b612985565b602002602001015160ff16108015611eb25750602060ff16838281518110611ea557611ea5612985565b602002602001015160ff16105b611ece5760405162461bcd60e51b81526004016106c190612a5f565b6040518060c00160405280858381518110611eeb57611eeb612985565b602002602001015160ff168152602001848381518110611f0d57611f0d612985565b602002602001015160ff168152602001838381518110611f2f57611f2f612985565b60200260200101518152602001600060ff168152602001600060ff16815260200160006003811115611f6357611f63612392565b81525060056000878481518110611f7c57611f7c612985565b60209081029190910181015160ff9081168352828201939093526040918201600020845181549286015190851661ffff199384161761010091861682021782559285015160018201556060850151600282018054608088015192871694169390931794169092029290921780835560a084015191929062ff000019166201000083600381111561200e5761200e612392565b02179055509050508080612021906129b1565b915050611e5b565b6120316120e8565b6001600160a01b0381166120965760405162461bcd60e51b815260206004820152602660248201527f4f776e61626c653a206e6577206f776e657220697320746865207a65726f206160448201526564647265737360d01b60648201526084016106c1565b61209f81612142565b50565b60025460ff16156117c25760405162461bcd60e51b815260206004820152601060248201526f14185d5cd8589b194e881c185d5cd95960821b60448201526064016106c1565b6000546001600160a01b031633146117c25760405162461bcd60e51b815260206004820181905260248201527f4f776e61626c653a2063616c6c6572206973206e6f7420746865206f776e657260448201526064016106c1565b600080546001600160a01b038381166001600160a01b0319831681178455604051919092169283917f8be0079c531659141344cd1fd0a4f28419497f9722a3daafe3b4186f6b6457e09190a35050565b8280548282559060005260206000209081019282156121cd579160200282015b828111156121cd5782518255916020019190600101906121b2565b506121d9929150612239565b5090565b6040805161016081018252600080825260208201819052918101829052606081018290526080810182905260a081018290529060c082019081526020016000815260200160008152602001600015158152602001606081525090565b5b808211156121d9576000815560010161223a565b803560ff8116811461225f57600080fd5b919050565b60006020828403121561227657600080fd5b61227f8261224e565b9392505050565b634e487b7160e01b600052604160045260246000fd5b604051601f8201601f191681016001600160401b03811182821017156122c4576122c4612286565b604052919050565b60006001600160401b038211156122e5576122e5612286565b5060051b60200190565b600082601f83011261230057600080fd5b81356020612315612310836122cc565b61229c565b82815260059290921b8401810191818101908684111561233457600080fd5b8286015b8481101561099d576123498161224e565b8352918301918301612338565b60006020828403121561236857600080fd5b81356001600160401b0381111561237e57600080fd5b61238a848285016122ef565b949350505050565b634e487b7160e01b600052602160045260246000fd5b600481106123c657634e487b7160e01b600052602160045260246000fd5b9052565b600081518084526020808501945080840160005b838110156123fa578151875295820195908201906001016123de565b509495945050505050565b6040808252835182820181905260009190606090818501906020808901865b83811015612488578151805160ff9081168752848201518116858801528882015189880152878201518116888801526080808301519091169087015260a09081015190612473818801836123a8565b505060c0949094019390820190600101612424565b5050868303908701525061249c81876123ca565b979650505050505050565b6001600160a01b038116811461209f57600080fd5b600080604083850312156124cf57600080fd5b82356124da816124a7565b91506124e86020840161224e565b90509250929050565b60208152600061227f60208301846123ca565b600082601f83011261251557600080fd5b81356020612525612310836122cc565b82815260059290921b8401810191818101908684111561254457600080fd5b8286015b8481101561099d5780358352918301918301612548565b80356004811061225f57600080fd5b60008060006060848603121561258357600080fd5b61258c8461224e565b925060208401356001600160401b038111156125a757600080fd5b6125b386828701612504565b9250506125c26040850161255f565b90509250925092565b60ff878116825286811660208301526040820186905284811660608301528316608082015260c0810161249c60a08301846123a8565b60006020828403121561261357600080fd5b5035919050565b60ff871681526020810186905260c0810161263860408301876123a8565b60608201949094526001600160a01b03929092166080830152151560a0909101529392505050565b6000806040838503121561267357600080fd5b823561267e816124a7565b946020939093013593505050565b6000806000606084860312156126a157600080fd5b83356126ac816124a7565b95602085013595506040909401359392505050565b6000604080830185845260208281860152818651808452606093508387019150838160051b88010183890160005b838110156127a657605f198a840301855281518051845286810151878501528881015160ff9081168a8601528882015181168986015260808083015182169086015260a0808301519091169085015260c0808201516101609190612755828801826123a8565b505060e0828101519086015261010080830151908601526101208083015115159086015261014091820151918501819052612792818601836123ca565b9688019694505050908501906001016126ef565b50909a9950505050505050505050565b600080600080608085870312156127cc57600080fd5b84356001600160401b03808211156127e357600080fd5b6127ef888389016122ef565b955060209150818701358181111561280657600080fd5b61281289828a016122ef565b95505060408701358181111561282757600080fd5b61283389828a016122ef565b94505060608701358181111561284857600080fd5b87019050601f8101881361285b57600080fd5b8035612869612310826122cc565b81815260059190911b8201830190838101908a83111561288857600080fd5b928401925b828410156128ad5761289e8461255f565b8252928401929084019061288d565b979a9699509497505050505050565b600080600080608085870312156128d257600080fd5b84356001600160401b03808211156128e957600080fd5b6128f5888389016122ef565b9550602087013591508082111561290b57600080fd5b612917888389016122ef565b9450604087013591508082111561292d57600080fd5b612939888389016122ef565b9350606087013591508082111561294f57600080fd5b5061295c87828801612504565b91505092959194509250565b60006020828403121561297a57600080fd5b813561227f816124a7565b634e487b7160e01b600052603260045260246000fd5b634e487b7160e01b600052601160045260246000fd5b6000600182016129c3576129c361299b565b5060010190565b6000602082840312156129dc57600080fd5b5051919050565b600082612a0057634e487b7160e01b600052601260045260246000fd5b500690565b600060208284031215612a1757600080fd5b815161227f816124a7565b808201808211156109a4576109a461299b565b80820281158282048414176109a4576109a461299b565b818103818111156109a4576109a461299b565b602080825260129082015271696e76616c696420706172616d657465727360701b60408201526060019056fea26469706673582212203e3d6fb628cadea769a4e65b718ccb5ee6f0b9dbc0890397a98377adec74b27164736f6c63430008110033",
  "linkReferences": {},
  "deployedLinkReferences": {}
}